:020000040000FA
:060000000201070221CFFE
:03002B0002264763
:0300330002262979
:03003B0002266832
:030043000225DDB6
:0300530002224244
:03006B0002260367
:1000830002203BE5C754F84401F5C779012200007B
:100093000080FB120086B900030200F1E4792178A5
:1000A30008B800028004F709D8FCE479297802B87B
:1000B30000028004F709D8FCE490028178427909B0
:1000C3008002F0A3D8FCD9FA7AC27B0A9001377870
:1000D3003979048015E493A3AD82AE838A828B833E
:1000E300F0A3AA82AB838D828E83D8E9D9E7758288
:1000F300D77583A6740312011975829175830074F1
:100103000012011975D00075813F751881751902A8
:10011300759F00020096C09FF59FE473D09F22D085
:1001230083D082C09FE493C0E0740193C0E0740263
:1001330093F59F22FF0000B4000028002800283018
:1001430075A000A000A000A00000080008E001F0D6
:10015300001000100010001000100010005000509C
:1001630000500010001000D0070000000000000F36
:100173000001000500307507001000010081FF0039
:10018300000000FF6D068B067306FF0202020802E1
:100193005000A0000000E803025E820100004F82CD
:1001A300025882010000190B027282010000B3029F
:1001B3000258820100001A0B026882010000C90282
:1001C3000258820100001B0B026682010000CB0271
:1001D3000258820100001C0B026082080000CC025E
:1001E3000258820100001D0B0252820100001E0B07
:1001F300FF0100FF20025E82010000468202588256
:10020300010000820B0254820000000000028E8273
:1002130003000019033D0C3D0C3D0C3D0C3D0C3D12
:100223000C3D0C3D0C3D0C3D0C3D0C3D0C3D0CBF01
:100233000ED70EB90EFFFF020202020202020202F1
:10024300010D0000001001025E82010000D981024D
:100253005882010000C50B0262820100005D0702A3
:100263005882010000C60B025A820100005D810220
:100273005882010000C70B026C820100004F81020B
:100283005882010000C80B027082010000DF800267
:100293005882010000C90B027882010000CD800260
:1002A3005882010000CA0B027A82010000A9800271
:1002B3005882010000CB0B027C8201000097800270
:1002C3005882010000CC0B027E82010000418102B2
:1002D3005882010000CD0B028082010000CE0B0189
:1002E300E803053F100AFF00013075030201060011
:1002F30000000000000000000000000000000000FB
:100303000000000000000000000000FFFF06008066
:100313000CE803140953696D706C65424C455065D4
:10032300726970686572616C051250002003020ADD
:10033300000201060302F0FF0316010253696D7008
:100343006C6520424C452050657269706865726126
:100353006C451300004B130A436861726163746553
:100363007269737469632031000243686172616367
:10037300746572697374696320320008436861723B
:100383006163746572697374696320330010436831
:100393006172616374657269737469632034000206
:1003A300436861726163746572697374696320354C
:1003B300000A436861726163746572697374696387
:1003C300204465766963654E616D6500025E820156
:1003D30000004982025882010000E50C0284820376
:1003E30000009F0A025682010000E60C02588201B7
:1003F3000000F70C028682010000A00A0256820167
:100403000000F80C025882010000090D02888202E4
:100413000000A10A0256820100000A0D025882015F
:1004230000001B0D028A82000000A20A028E8203D2
:100433000000A30A0256820100001C0D025882012B
:1004430000002D0D028C82040000A90A02568201CD
:1004530000002E0D0258820100003F0D027482033A
:100463000000AE0A025682010000400D120122165E
:100473007E001201222D7E001201225E7E001201F7
:1004830022997E00120122C37E00120122ED7E001A
:10049300120122047F001201221B7F00120122326B
:1004A3007F001201225B7F001201226E7F00120186
:1004B30022847F00120122977F00120122BE7F0057
:1004C300120122B7A702120122BBA802120122F3D2
:1004D300A80212012216A90212012221A902120165
:1004E3002244A90212012253AA0212012228AB02BA
:1004F300120122A3AB021201222BAC0212012266CB
:10050300AC021201229DAC021201222BAD02120198
:100513002204AE0212012264AE021201226FAE0265
:10052300120122EEAE02120122F1AE02120122F4F6
:10053300AE0212012283AF0212012286AF02120120
:1005430022B6AF02120122E0AF02120122CEB002A4
:1005530012012280B10212012267E3021201228FEB
:10056300E302120122BDE302120122F4E3021201AB
:100573002252E4021201229DE402120122E8E40263
:1005830012012228E5021201226EE5021201229CC9
:10059300E50212012259E60212012263E602120168
:1005A3002270E602120122A3E6021201226FE70281
:1005B3001201227BE70212012293E7021201229D1C
:1005C300E70212012220A2031201222EA20312012A
:1005D3002246A2031201225EA20312012231BA01B2
:1005E300120122DDBA0112012258BB011201227944
:1005F300BC01120122B5BC011201225EBD01120130
:100603002245BE01120122A9BF0112012200C0012D
:1006130012012281C00112012271C101120122BE05
:10062300C10112012244C20112012276C201120148
:10063300228AC401120122CCC401120122EAC4019C
:100643001201226DC50112012241C60112012209C4
:10065300C701120122BFD10212012292D20212015A
:10066300223BD3021201228ED3021201223ED40274
:10067300120122CAD402120122B6D502120122E5C6
:10068300D502120122F8D60212012240D70212012A
:100693002215D80212012251D8021201226DD8026A
:1006A3001201228AA50312012200800312012216DD
:1006B30080031201223C800312012258810312019C
:1006C300226281031201229782031201228F830384
:1006D30012012240DE0212012270DF02120122A364
:1006E300DF02120122EDDF02120122B4E102120144
:1006F30022276E00120122916E00120122F06F0078
:100703001201220070001201222D700012012284B6
:1007130070001201222D71001201223472001201A5
:1007230022FE72001201225E7400120122A17400E3
:10073300120122467500120122937500120122B99B
:100743007500120122C77700120122CC7700120133
:1007530022D179001201221E7A00120122917A001D
:10076300120122C47A00120122667B001201220FB9
:100773007C00120122477C001201224A7C001201F4
:1007830022927C00120122D27C00120122297D00D8
:10079300120122128D031201222A8D0312012272E9
:1007A3008D03120122888D03120122CF8D031201C2
:1007B30022E38E03120122708F03120122BB8F03E7
:1007C300120122DC2600120122E826001201222354
:1007D3002700120122682700120122282800120193
:1007E30022AE28001201221329001201223F290000
:1007F300120122782900120122B62B001201229A3B
:100803002D00120122802F00120122C33000120199
:10081300221133001201222334001201226E35000B
:100823001201227E36001201229B3600120122D6CB
:100833003600120122F836001201225B3700120142
:10084300221C3C00120122B13C00120122023D0095
:10085300120122293D001201227B3D00120122993F
:100863003D00120122F33D00120122DC3E00120181
:1008730022524000120122D6400012012224E80233
:100883001201222EE80212012271E8021201228CC7
:10089300E8021201221CE90212012244E9021201B8
:1008A3002281E902120122B8E902120122E1E902DE
:1008B30012012256EA021201226BEA02120122807D
:1008C300EA02120122B1EA02120122C5EA0212016E
:1008D30022EAEA0212012224EB0212012250EB0265
:1008E30012012288EB0212012207EC0212012250AC
:1008F300EC021201227AEC02120122A5EC0212018F
:1009030022BFFE01120122E49A02120122129B026B
:10091300120122609C02120122409D021201225FF9
:100923009D02120122DC9D021201221F9E0212016E
:1009330022759F0212012236A002120122BDA202D9
:100943001201225EA30212012254A40212012251B7
:10095300A502120122ABA60212012236A70212013E
:1009630022DD9D03120122469E031201229A9E0359
:10097300120122C19E03120122F29E03120122CD13
:10098300EC021201223AED0212012281ED02120160
:100993002299EE0212012295EF0212012278F0024F
:1009A300120122F1B10212012233B2021201220515
:1009B300B302120122DEB302120122D8B4021201E1
:1009C30022BAB50212012223B602120122D9B602BB
:1009D3001201224DB702120122B9B702120122E21B
:1009E300B7021201225CB802120122F5B802120109
:1009F300225AB9021201226FB902120122B5B902B9
:100A0300120122CEB90212012233BA021201223696
:100A1300BA02120122198A03120122418A03120126
:100A2300227F8A031201223D8B03120122A48B032E
:100A3300120122C08B03120122E88B031201221838
:100A43008C03120122278C03120122A48C031201AE
:100A530022CA8C03120122CFAA01120122ADAC01DA
:100A6300120122DFAE011201221BAF011201224843
:100A7300AF0112012232B0011201227DB001120135
:100A830022C8B001120122DAB0011201221AB10107
:100A93001201224FB1011201229DB101120122CC98
:100AA300B101120122EFB1011201223CB201120184
:100AB30022C1B201120122DBB4011201221AB701D1
:100AC3001201225BB701120122FDB8011201223E7D
:100AD300B901120122B1B90112012207BA011201AF
:100AE30022CF8D02120122CD8E02120122669502BF
:100AF300120122879702120122529902120122BA8D
:100B03009A021201223D4100120122EC410012011E
:100B130022324200120122724300120122084500D0
:100B23001201228245001201229D45001201221862
:100B33004600120122724700120122D2480012011C
:100B430022D84900120122394B00120122524B00D4
:100B5300120122B04B001201229E4C00120122D13D
:100B63004C00120122414D00120122BB4D00120123
:100B730022054E00120122CF4E00120122A44F0083
:100B83001201228350001201220E51001201227C15
:100B93005100120122F051001201221B52001201D6
:100BA30022DA52001201223F54001201225C540047
:100BB3001201227B54001201226C55001201229172
:100BC3005500120122BB55001201223656001201B4
:100BD30022905600120122F95700120122A7580051
:100BE300120122E85800120122BDE5011201220B75
:100BF300E60112012217E601120122F5E6011201B4
:100C03002226E70112012257E701120122D7E70149
:100C13001201220FE80112012261E8011201229E52
:100C2300E801120122BBEA01120122E1EC011201E7
:100C330022CCEE01120122B6F001120122D12600CC
:100C4300120122BC9601120122EC9601120122C567
:100C53009D011201224A9F0112012247A50112019F
:100C6300222FA6011201226CA6011201228FA601D6
:100C7300120122C0A601120122C9A601120122D328
:100C8300A601120122C1A701120122B7A801120174
:100C930022185900120122175D001201221D5D0066
:100CA3001201225864001201227169001201229973
:100CB3008303120122938403120122078503120185
:100CC30022458503120122B98503120122328603CC
:100CD3001201223B86031201224786031201225C82
:100CE30086031201229A8603120122B0860312019F
:100CF30022A2F502120122AFF502120122C9F50266
:100D030012012208F60212012246F602120122AB58
:100D1300F602120122C0F602120122CBF6021201E0
:100D230022D8F602120122EFF602120122FDF60288
:100D330012012208F70212012214F70212012223E0
:100D4300F7021201222EF70212012251F7021201B9
:100D530022F8F70212012208F80212012222F802F5
:100D63001201223FF8021201225BF80212012280D3
:100D7300F8021201228BF802120122A0F8021201DA
:100D830022B4F80212012215F9021201221BF90200
:100D930012012221F90212012227F9021201223F34
:100DA300F90212012272F90212012293D7011201F0
:100DB3002217D801120122C6D80112012225DA0115
:100DC30012012246DC0112012232DD0112012267E7
:100DD300DD0112012289DD0112012238DE01120137
:100DE3002230E00112012259E001120122EBE0015D
:100DF3001201221DE1011201222AE10112012281C5
:100E0300E101120122A7E10112012214E4011201FE
:100E13002217E5011201226FE50112012222C90105
:100E23001201222CCA0112012213CB011201221D2D
:100E3300CB011201223FCB011201224BCB01120144
:100E430022E4CC0112012213CD011201222FCE0183
:100E530012012288CE01120122EECF01120122CD0E
:100E6300D00112012229D10112012296D1011201CE
:100E730022D1D10112012210D201120122C9D401BF
:100E8300120122E3D4011201226FD5011201227D46
:100E9300D501120122D6D501120122E4D501120196
:100EA3002257D601120122BBD60112012205D70116
:100EB30012012291F301120122B3F301120122D98B
:100EC300F501120122EEF80112012206FA011201C4
:100ED30022B9FA011201229BFB01120122AF9703EF
:100EE300120122D4970312012246980312012245CC
:100EF300CA021201224ECA0212012257CA02120169
:100F0300222ECB02120122DFCC0212012215CD02C6
:100F13001201224FCD0212012285CD02120122BFFE
:100F2300CD02120122F3CD021201221FCE021201C1
:100F33002268CE02120122A2CE02120122EBCE02BD
:100F430012012243CF0212012278CF02120122D3CF
:100F5300CF021201220DD0021201225ED002120131
:100F63002294D002120122CED002120122FCD0021E
:100F73001201221FD102120122ADA303120122D9B1
:100F8300A30312012234A4031201223EA40312017B
:100F9300224EA40312012250C2021201225AC2029B
:100FA30012012298C202120122E1C2021201221B83
:100FB300C30212012271C30212012292C30212015F
:100FC3002217C60212012220C6021201226BC60298
:100FD30012012294C6021201229EC6021201220AA3
:100FE300C702120122A0C702120122EAC70212019C
:100FF300221AC802120122A3C802120122E3C80264
:101003001201221BC9021201222DC9021201224C14
:10101300C90212012255C9021201221BCA0212017E
:10102300223CA00312012203FE0212012239FE0216
:101033001201226FFE02120122B8FF021201220ED8
:10104300A60312012224A6031201222EA6031201D3
:101053002278A603120122EFF90212012204FA02F6
:10106300120122B7FA02120122F7FA021201221028
:10107300FB0212012244FB0212012291FB02120124
:1010830022C5FB0212012207FC02120122699C0302
:10109300120122929C03120122BB9C0312012256CD
:1010A3009D03120122989D0312012258A4031201E9
:1010B30022C7A403120122E58F031201220A90031F
:1010C30012012234900312012273A7031201229208
:1010D3008201120122F68401120122A78601120164
:1010E30022A98701120122328801120122B6880146
:1010F300120122DB8801120122148C0112012288C1
:101103008C01120122798D01120122B38D0112018A
:1011130022F38D01120122A68F01120122F98F0100
:10112300120122429001120122B09001120122E227
:101133009001120122FA90011201220F9201120171
:10114300221F92011201223A93011201225C9301A0
:101153001201229293011201223695011201227586
:101163009501120122979601120122F7A20312019F
:101173002208A3031201222AA70312012269A7034B
:101183001201220EA803120122F2A4031201220269
:10119300A5031201221AA50312012280A50312013D
:1011A30022389F03120122BD9F0312012223A003B1
:1011B300120122F19A031201221A9B0312012285C2
:1011C3009B03120122D69B031201222F9C031201BF
:1011D30022E08603120122F586031201220B880303
:1011E3001201228D88031201220189031201221B9D
:1011F3008903120122328903120122458903120154
:10120300225D890312012272890312012293890349
:10121300120122E4890312012221A803120122B13F
:101223009203120122419303120122BF930312017D
:1012330022549403120122DE9403120122E8940340
:10124300120122FC94031201220F95031201226F53
:101253009503120122549903120122A49903120146
:10126300222D9A03120122939A03120122729503EB
:101273001201229C95031201226296031201223D60
:1012830097031201225ABA0212012217BB0212015A
:101293002252BB021201227ABB02120122DCBB02E0
:1012A30012012228BC0212012288BC021201221B55
:1012B300BD021201221ABE02120122A9BF021201AB
:1012C300222CC00212012293C002120122AAC002E0
:1012D300120122B4C102120122F2C1021201220040
:1012E3008002120122608302120122E884021201A9
:1012F300223F85021201225E8502120122DC850251
:101303001201226C87021201225088021201225C10
:101313008C021201222C8D0212012233A10312012D
:101323002242A10312012265A1031201229DA103FE
:10133300120122CFA103120122E2D80212012232AA
:10134300DB0212012236DC02120122B2DD0212019B
:10135300223AF1021201227FF1021201229CF102D0
:101363001201229AF2021201220FF3021201221039
:10137300F40212012269F502120122D07F00120148
:1013830022BAA703120122D8FF01120122F0A703F8
:10139300E066701008A3E066700A08A3E0667004B4
:1013A30008A3E06622C3E7960809E7960809E796CB
:1013B3000809E79622C3E09608A3E09608A3E096FF
:1013C30008A3E09622C008C3E096F50808A3E096B8
:1013D300420808A3E096420808A3E0964508700176
:1013E300D3D00822080808EAC0E0EBC0E086F0E7A3
:1013F300A4FA180986F0E7A42AFA180986F0E7A4E4
:101403002AFA180986F0E7A42AFA1986F0E7A4FB5A
:10141300E5F02AFA190886F0E7A42BFBE5F03AFA7F
:10142300190886F0E7A42BFBE5F03AFA18180986A9
:10143300F0E7A4C5F02BFBE43AFA1908E7C5F0C6B8
:10144300A426F6E5F03BFBE43AFA1886F0E7A4F6A7
:10145300E5F00826F6E43B08F6E43A08F6D0E0FBAC
:10146300D0E0FA22E4CFC0E0E4CEC0E0E4CDC0E0B7
:10147300E4CCC0E075F020E626F608E633F608E68D
:1014830033F608E633F6181818EC33FCED33FDEEAB
:1014930033FEEF33FFC3EC9709ED9709EE9709EF9E
:1014A30097191919400FFFEC97FC09ED97FD09EE09
:1014B30097FE191906D5F0BFECF709EDF709EEF71A
:1014C30009EFF7191919D0E0FCD0E0FDD0E0FED008
:1014D300E0FF226016080808C6C313C618C613C661
:1014E30018C613C618C613C6D5E0EA227009080841
:1014F30008226016181818C6C333C608C633C608B0
:10150300C633C608C633C6D5E0EA22E627F608097D
:10151300E637F60809E637F60809E637F622E02645
:10152300F608A3E036F608A3E036F608A3E036F69D
:1015330022E026F008A3E036F008A3E036F008A383
:10154300E036F022C3E697F60809E697F60809E6BF
:1015530097F60809E697F622C3E096F008A3E0960B
:10156300F008A3E096F008A3E096F022E657F60809
:1015730009E657F60809E657F60809E657F622E0A2
:1015830056F608A3E056F608A3E056F608A3E0567D
:10159300F622E056F008A3E056F008A3E056F00860
:1015A300A3E056F022E0F608A3E0F608A3E0F6086D
:1015B300A3E0F622E6F008A3E6F008A3E6F008A30A
:1015C300E6F022E0FAA3E0FBA3E0FCA3E0FD22EABD
:1015D300F0A3EBF0A3ECF0A3EDF022E0F8A3E0F925
:1015E300A3E0FAA3E0FB22E8F0A3E9F0A3EAF0A367
:1015F300EBF022CAC0E0E6F0A308DAFAD0E0FA2260
:10160300CAC0E0E0A3C582CCC582C583CDC583F043
:10161300A3C582CCC582C583CDC583DAE6D0E0CA33
:1016230022C3E498F8E499F91216658026C3E49A74
:10163300FAE49BFBE920E7E9121665E498F8E499DC
:10164300F922C3E498F8E499F9121665E498F8E4EA
:1016530099F9C3E49AFAE49BFB22EB20E7CFE92054
:10166300E7E0B90010BB0008E88AF084F8AAF0228A
:10167300E4FBC8FA22EB70227B10C833C8C933C914
:10168300335007C39AC3DBF280069A50012ADBEA80
:10169300C833F4C8C933F4C9FA2275F008E4C8336F
:1016A300C8C933C933C99AC99B5004C92AC93BD590
:1016B300F0ECFBC833F4C8E4C9FA22600D08C6A2F3
:1016C300E713C618C613C6D5E0F322600C08C6C3D9
:1016D30013C618C613C6D5E0F422700422600D1891
:1016E300C6C333C608C633C6D5E0F418222518107E
:1016F300AF08F518400C15198008F51840021519A4
:10170300D2AF2200C0D0251810AF08F518500C0531
:10171300198008F51850020519D2AFD0D022251828
:10172300F58210AF08F518400C15198008F518401C
:10173300021519D2AF851983222518F582E43519CC
:10174300F583222518F8E43519F9222518FAE4352A
:1017530019FB222518FCE43519FD22E4732518C56D
:1017630082C0E0E51934FFC583C0E0E518C3958264
:1017730024F810AF0885831985821880088583199A
:10178300858218D2AFCEF0A3E520F0A37808E6084F
:10179300F0A3DEFAEFF0A3E58124FAF8E608F0A35C
:1017A300E608F0A3E608F0A30808E608F0A3E608B5
:1017B300F0A315811581D0E0FED0E0F815811581E5
:1017C3001581E8C0E0EEC0E0222518C582C0E0E53F
:1017D3001934FFC583C0E0E518C3958224F910AF1F
:1017E300088583198582188008858319858218D214
:1017F300AFCEF0A3E520F0A37808E608F0A3DEFA65
:10180300EFF0A3E58124FBF8E608F0A3E608F0A3D4
:101813000808E608F0A3E608F0A315811581D0E0D7
:10182300FED0E0F815811581E8C0E0EEC0E0228526
:101833001983851882E0A3FEE0A3F5207808E0A3CE
:10184300F608DFFAE0A3FFE0A3C0E0E0A3C0E0E016
:10185300A3C0E0E0A3C0E0E0A3C0E010AF0885822E
:10186300188583198008858218858319D2AFD083A0
:10187300D08202011F851983851882E0A3FEE0A3AD
:10188300F5207808E0A3F608DFFAE0A3FFE0A3C0A1
:10189300E0E0A3C0E0E0A3C0E0E0A3C0E010AF0835
:1018A3008582188583198008858218858319D2AFAC
:1018B300D083D08222C0D02518C582C0E0E5193478
:1018C300FFC583C0E0E518C3958224F310AF0885F4
:1018D30083198582188008858319858218D2AFC839
:1018E300F0A3E9F0A3EAF0A3EBF0A37908E709F08A
:1018F300A3D8FAECF0A3EDF0A3EEF0A3EFF0A3D09E
:10190300E0F0A3D0E0F0A3D0E0F0A3E520F0A3E55E
:10191300F0F0A322851983851882E0C0E0A3E0F9E3
:10192300A3E0FAA3E0FBA37808E0F608A3DFFAE05C
:10193300FCA3E0FDA3E0FEA3E0FFA3E0C0E0A3E07F
:10194300C0E0A3E0F5D0A3E0F520A3E0A3F5F010F9
:10195300AF088583198582188008858319858218C5
:10196300D2AFD082D083D0E0F8D0E03274048006C6
:10197300740280027401C0E0F404121721D0E01253
:1019830015F6227404800474028000CCC0E0EDC01C
:10199300E0E518C39CCCAD1950011D10AF068C189F
:1019A3008D1980068C188D19D2AF121603D0E0FD65
:1019B300D0E0FC22D083D082E9C0E0E493A3C386C5
:1019C300F0C5F095F0F908E493A386F0C5F095F01F
:1019D300700BE493A3C3994005E9048002A3E47563
:1019E300F002A42582F582E5F03583F583D0E0F992
:1019F300E493A3C0E0E493C0E022D083D082ECC0A0
:101A0300E0EDC0E0E493A3FCE493A3FDED4C600D93
:101A1300121A49EC24FFFCED34FFFD80EFE493A39D
:101A2300FCE493A3FDED4C600D121A88EC24FFFC3B
:101A3300ED34FFFD80EFD0E0FDD0E0FCE493A3C0E4
:101A4300E0E493C0E022C0E0C3E4939608740193FA
:101A53009618400FE4936670080874019366187033
:101A6300007019A3A3C3E49396087401939618A373
:101A7300A3400DD0E0D0E0D0E0021A39A3A3A3A382
:101A8300A3A3D0E022C0E0C0F088F0E4936670081E
:101A93000874019366187000A8F0A3A3700BD0F02C
:101AA300D0E0D0E0D0E0021A39A3A3D0F0D0E022F6
:101AB40074F51217CCEAFEEBFFEE2434F8EF340091
:101AC400F988088909EE2435F582EF3400F583E0BE
:101AD400F8EE2437F582EF3400F583E0F50AEC855F
:101AE4000AF0A4FCAAF0850AF0EDA42AFDE82CF87B
:101AF400E43DF97A257B00121665EA85088285099A
:101B040083F0F8740758F97401B900028004C333F0
:101B1400D9FCFAE8131313541FF8EE28F8EF340035
:101B2400F9E8245DF582E93400F583E05A6008EEB3
:101B34002434F582EF802CEE2434F582EF3400F562
:101B440083E0C0E0EE2436F582EF3400F583E0F55F
:101B5400F0D0E084A8F0EE28F8EF3400F9E8243857
:101B6400F582E93400F583E0F97F0402187874F50E
:101B74001217CCEAFEEBFFEE2434F582EF3400F5C5
:101B840083E0C0E0EE2435F582EF3400F583D0E045
:101B9400F08E828F83A3A3A3A3A3A3A3C082C08335
:101BA4008E828F83A3A3A3A3A3E0F8A3E0F9D08339
:101BB400D082E0C398F508A3E099F509EE247FF5F7
:101BC40082EF3400F583E064017069EE2480F582CD
:101BD400EF3400F583E0F8A3E0F98E828F83A3A3AA
:101BE400A3A3A3A3A3E0FCA3E0FD8E828F83A3A3FE
:101BF400A3A3A3E0FAA3E0FBC3EA9CEB9D5010C3AC
:101C0400EC98ED99402EC3EA98EB995027800EC3C7
:101C1400EA98EB994007C3EC98ED9940177CDC7D7A
:101C240004EEFAEFFB120B9BEE247FF582EF3400F7
:101C3400F583E4F0EE2434F8EF3400F9E8FCE9FD30
:101C4400EE2435F582EF3400F583E0F8EE2437F521
:101C540082EF3400F583E0F50AE508850AF0A4F57F
:101C640008AAF0850AF0E509A42AF509E82508F888
:101C7400E43509F97A257B00121665EA8C828D8396
:101C8400F0F8740758F97401B900028004C333D919
:101C9400FCFAE8131313541FF8EE28F8EF3400F994
:101CA400E8245DF582E93400F583E05A6008EE2407
:101CB40034F582EF802CEE2434F582EF3400F58382
:101CC400E0C0E0EE2436F582EF3400F583E0F5F071
:101CD400D0E084A8F0EE28F8EF3400F9E82438F5D1
:101CE40082E93400F583E0F91225C9021B6DC08234
:101CF400C083851882851983E0F8A3E0F9C3EA9CC0
:101D0400EB9D5010C3EC98ED99401BC3EA98EB99F6
:101D14005014800EC3EA98EB994007C3EC98ED99F0
:101D24004004790180027900D083D08222EAC39CE6
:101D3400FAEB9DFB2274EF1217CC9003A2E0640827
:101D44006005E06407702A9061C8E060249003D0C5
:101D5400E0F4601DE0F875F003A4C8AAF02AF97451
:101D6400D228FE740339FF8E828F83A3A3A3E0706D
:101D740003021E69906060E0C0E0EE2468F582EF23
:101D84003400F583D0E0F0750C45750D0575080039
:101D9400750900E5D914F50AE5D95403F50E601761
:101DA4007403650E605CE50A6010EE2467F582EF4B
:101DB4003400F583E07003021E4E900540E0640198
:101DC400602AEE2482F582EF3400F583E060047823
:101DD4000480027800850A08E508C398FA95E0FBB8
:101DE400120A698A088B09EA45097005120D8D806B
:101DF40074EE2482F582EF3400F583E070048A0CDB
:101E04008B0DE50A6012850C82850D83F50BE5D9EF
:101E1400F0A3150BE50B70F6EE2482F582EF340087
:101E2400F583E0604474FC250AF50A780C121973F2
:101E3400AC0AA90EEEFAEFFB120C37740212170665
:101E4400E97026AA08AB0912125B793D8E828F8352
:101E5400A3A3A3A3E0FA7B0012093DEEFAEFFB1261
:101E64000BB3120C49790080747403650E605685B7
:101E74000A107511007810121973AC0CAD0DAA0874
:101E8400AB09120C137402121706EE2468F582EFE4
:101E94003400F583E064807004747F8001E0F50C05
:101EA400780C121977E50EF50C780C121977A90A3B
:101EB400AC08AD099003D0E0FA7B0012090174026A
:101EC40012170680139003A2E06408600BAC0CADFB
:101ED4000DEEFAEFFB120CA3120D9979017F0A02A1
:101EE400187874F51217CC74FC1216F0EAFEEBFFA6
:101EF4008908A2AFE433F509C2AF806AEE2463F81F
:101F0400EF3400F97A007B00A2AFE433F50AC2AFE4
:101F140088828983E0FCA3E0FDEC4D603A888289E5
:101F240083E0FAA3E0FB8A828B83E0FCA3E0FD88D4
:101F3400828983ECF0A3EDF08A828B83E4F0A3F032
:101F440088828983E0FCA3E0FDEC4D700A888289D5
:101F540083A3A3E4F0A3F0E50AA2E092AF12125B1C
:101F64009004E3E004F0EE2463F582EF3400F5839B
:101F7400E0F8A3E0F9E849603DEE2463F582EF342C
:101F840000F583E02402FAA3E03400FBEA2402F51E
:101F94000AEB3400F50B780A1219738A828B83E0FA
:101FA400FCA3E0F9EEFAEFFB120BD774021217064A
:101FB400E97003021F009004E3E060639004E4E02E
:101FC400F89004E3E0C398500C74026508705090D4
:101FD40004E5E0604A8E828F83A3A3A3A3E085185F
:101FE40082851983F0A3E4F09004E3E0F87402120C
:101FF400173CE8F0A3E4F09004E3E0F89004E2E096
:1020040028F0740212173CAC82AD838518828519BE
:1020140083AA82AB83790112090D9004E3E4F0E50D
:1020240009A2E092AF7404121706021B6D000000AF
:102034008521878522C622C0E0C0D0E8C0E0E9C07F
:10204400E0EAC0E0EBC0E0ECC0E0EDC0E0EEC0E0F0
:10205400C008C009C00AC00BC082C083C0F0A2AFD0
:10206400E433FEC2AF759B00906182E0A2E050129F
:10207400E591A2E0500C7591FE7401652170031284
:102084001D39E0A2E55051E591A2E5504B7591DF71
:102094009003A2E064076005E0640870237401659E
:1020A40021703579019003D0E0FA75F003A4CAA831
:1020B400F028FB74D22AFA74033BFB121EE6801844
:1020C400E0640D70139003C4E004F064287002E42B
:1020D400F07A00E0F9120D9F906182E0A2E64003DD
:1020E400022182E591A2E640030221827591BF900C
:1020F40003A2E064057008120CCD120CD9800312FF
:102104000CD3752100120D2DE99003A3F079001270
:102114000D21120B117A017B009003A1E0F9120F3B
:10212400F7907803E064427055900544E014F07031
:102134004DC2AF12213A00782AD0E0F618D0E0F66A
:10214400E59F540770057509FF800375097FC4C0B6
:10215400E07829E6F50808E65509F509740B7808CE
:102164001216CED0E02508F8906270E0A2E740F89D
:10217400E8C333906272F0906270E0D2E0F0906154
:1021840081E0A2E35009E5E9A2E3500375E9F7A36E
:10219400E0A2E75009E591A2E7500375917FEEA212
:1021A400E092AFD0F0D083D082D00BD00AD009D047
:1021B40008D0E0FED0E0FDD0E0FCD0E0FBD0E0FAB7
:1021C400D0E0F9D0E0F8D0D0D0E032C0E0C0D0C048
:1021D40082C083906183E0A2E05009E5BFA2E05091
:1021E4000375BFFEE0A2E15009E5BFA2E15003750B
:1021F400BFFDE0A2E25009E5BFA2E2500375BFFBB8
:10220400E0A2E35009E5BFA2E3500375BFF7E0A2E3
:10221400E45009E5BFA2E4500375BFEFE0A2E55026
:1022240009E5BFA2E5500375BFDFE0A2E65009E56A
:10223400BFA2E6500375BFBFD083D0828088C0E0C0
:10224400C0D0E8C0E0E9C0E0EAC0E0EBC0E0ECC028
:10225400E0EDC0E0C0F0E5A7A2E6500FE5A1A2E6DC
:10226400500953A7BF75A1BF1222A7E5A7A2E55045
:102274000CE5A1A2E5500653A7DF75A1DFE5A7A2EF
:10228400E15009E5A1A2E1500375A1FDE5A7A2E291
:10229400500CE5A1A2E2500653A7FB75A1FBD0F0B8
:1022A4000221B874F81217CC7521019003A2E064DE
:1022B400067015120C678A828B83A3A3A3A3A3A31E
:1022C400E0FAA3E0FB120CBBA2AFE433FED2AF9062
:1022D40003A8E0640170187A207B009003A1E0F960
:1022E40012107B7A207B009003A1E0F9120FFD907D
:1022F4006182E0D2E6F0900541E0602185C622804B
:10230400169003A7E064017008E5C654F84405F587
:10231400C653BEFC1220347401652160E4EEA2E0D1
:1023240092AF7F01021878008E238F24858228853E
:102334008327851882851983E0CEA3E0CF85288280
:10234400852783EBC9EAC8EDCBECCA75F010C3E866
:1023540033C8E933C9EA33CAEB33CBC3EA9EF52663
:10236400EB9FF525B35004AB25AA26EC33CCED3313
:10237400CDD5F0DAAE23AF242274ED1217CC8A083F
:102384008B098C0A8D0B741312173C780C1215A848
:102394007808790C1213A87510017511C87512000C
:1023A40075130050127808790C12154778107908C3
:1023B4001213A850168010780C790812154778105B
:1023C400790C1213A840047901800279007F0C0271
:1023D400187874ED1217CC8A088B098C0A8D0B744B
:1023E4001312173C780C1215A8780C79081213A84C
:1023F40040117808790C121547AA08AB09AC0AAD4C
:102404000B80227510007511007512007513017888
:1024140010790C1215477810790812150EAA10AB12
:1024240011AC12AD1380A68A828B837508FF7509DF
:10243400FF750AFF750B0078081215957F040218C2
:102444007874F51217CC8C828D8378081215A88ABB
:10245400828B83780812155BEA2404F8EB3400F9C4
:102464008C828D83A3A3A3A3E0FCA3E0FD888289CF
:1024740083C3E09CF0A3E09DF088828983C3E09449
:1024840020A3E0944E40268A828B837508FF750949
:10249400FF750AFF750BFF78081215348A828B8347
:1024A400A3A3A3A3E02420F0A3E0344EF002242B42
:1024B40074F51217CCE9FE9004F7E0FAA3E0FBEE02
:1024C400C333F8E433F9742228F582748139F5832F
:1024D400E02AF508A3E03BF50978081219737A405D
:1024E4007B427C0F7D0012232C74021217068A088B
:1024F4008B098C0A8D0B741078081214D6AA08ABB9
:10250400097F0402187874F11217CC8A0C8B0D8C95
:102514000E8D0F740F12173CE0FAA3E0FB74111236
:10252400173CE0F508A3E0F5097808121973EA24CA
:1025340001F508EB3400F509E4F50AF50B780C799C
:10254400081213E7750871750902780C79081213DB
:10255400E7AA0CAB0DAC0EAD0F12232C74021217AC
:10256400068B09EA450960047A0180027A00EC2AA4
:10257400FCED3400FD741312173CE0F8A3E0F9E815
:10258400FEE9FFECF8EDF97A717B02121665880812
:1025940089098E828F8378081215B7ECF8EDF97AE1
:1025A400717B021216658A088B0974057808121665
:1025B400DD8E828F83A3A3A3A3E508F0A3E509F02E
:1025C4007F08021878C082C083E9906000F0D0834D
:1025D400D08222C2AF02000022C0E074F21218B806
:1025E400A2AFE433FED2AFC2C0E5D1A2E450065399
:1025F400D1EF12124FEEA2E092AF7F01021917C081
:10260400E074F21218B8A2AFE433FED2AFE589A2A7
:10261400E150031211CB758900C2C5EEA2E092AF5E
:102624007F01021917C0E074F21218B8A2AFE433A4
:10263400FED2AFE58BA2E050031211CB758B00C222
:10264400E880D8C0E0C0D0E8C0E0E9C0E0E5A8D2A6
:10265400AFC2C7A2E7A2E792AFD0E0F9D0E0F8D0CA
:10266400D0D0E032C0E0C0D0E8C0E0E9C0E0C008AB
:10267400C009C082C083A2AFE433F9D2AF9009D3BA
:10268400E0F8A3E0687008539AFBA374018025C2A4
:10269400E99009D3E0F50874012508F0745325087E
:1026A400F582E43409F583E0F5C19009D3E0C394DD
:1026B400804002E4F0E9A2E092AFD083D082D00956
:1026C400D008D0E0F9D0E0F8D0D0D0E03202011F39
:1026D400FFFFFFFFFFFFFFFFC082C083E9900B8174
:1026E400F002296B74F7121760E99002E1F07C198B
:1026F4007D037AFF7BFF1208539002E274FFF0A37C
:10270400F0A3E4F0A3F079051207DB9002E1E0F90D
:102714001206FD7A717B08120A1B7F0102183274BB
:10272400F41217608A088B09EB548060309002E140
:10273400E0F9120FDF8A0A8B0BAE0AAF0BEE4F6083
:10274400138E828F83E064B070031207F3EEFAEF06
:10275400FB120FCDAA08E5096480FB80047A007B94
:102764000002293A74F212176074FC1216F0EAFEA1
:10277400EBFFEE4F6038740212173CEEF0A3EF1239
:102784002B9FECF0A3ED122B9FAA82AB831206F7CA
:10279400E9F5087073741212173C123753E50A45B1
:1027A4000B60658E828F83122816EE4F70057508B4
:1027B4000280557A067B001210338A0C8B0DA80C0C
:1027C400A90DE8497005750813803D88828983E462
:1027D400122820A3A3EEF0A3EF123BECE50AF0A32A
:1027E400E50BF09002E71228A89002E76017E0FCDE
:1027F400A3E08003EAFCEBFD8C828D831228A87091
:10280400F38C828D83123678A90874041217060299
:102814003DEEA3A3A3A3E0FEA3E0FF22F0A3F08870
:102824008289832274F2121760890AE975F017A469
:10283400FEAFF09002E6E4F09002E41228A8600AE9
:102844001210399002E4E4F0A3F0EEFAEFFB121058
:10285400338A088B09EA4509602FEEFCEFFD790005
:10286400120FB59002E4E508F0A3E509F07B0080BF
:1028740008122892E4F0A3F00BEBC3950A40F2E5AA
:102884000A9002E6F0790080027913023DEEEB75BE
:10289400F017A4F8A9F09002E4E028FAA3E0398A3A
:1028A40082F5832212340EEA4B2274F412176075F7
:1028B4000800750900740C12173C123BC0FEE9FFB6
:1028C400800CE5082401F508E5093400F509C3E5A1
:1028D400089CE5099D503285080A85090B74037824
:1028E4000A1216DDEA250AF8EB350BF9888289838A
:1028F400A3A3A3A3A3A3123753EE650A7003EF6542
:102904000B70BFE8FAE9FB80047A007B008027742F
:10291400F41217607900EAA2E0501B7508017509EA
:102924008278081219737C047D007A837B0B12076A
:10293400D574021217067F04021832C082C0839035
:1029440002E7122972601C88828983A3A3E06A705B
:1029540003A3E06B8882898370E8A3A3A3A3123442
:102964000A80047A007B00D083D08202011F123EC9
:10297400C1E8492274EE12176074FC1216F0EAFEE4
:10298400EBFF851882851983E4F0A3F0EE2402128C
:10299400365CEE2405122B8DEE2404F50EEF122F77
:1029A40072E024FE603924FC604624FE605224FE5A
:1029B400605E24FE7003022A9224FE7003022B0A36
:1029C40024FE7003022B1924FE7003022B2824FC1E
:1029D4007003022B3724FE7003022B46022B8390D4
:1029E40003007417F0A3E4122BA7120475022B83BF
:1029F400851882851983AC82AD831207F9022B53A3
:102A0400851882851983AC82AD831207FF022B538C
:102A1400850C08850D09740212173CAC82AD8385C0
:102A2400088285098312340A12071B8A0C8B0DACA9
:102A34000CAD0DEC4D6042E4F50CF50D780C12195B
:102A440073750C00750D03780C121973750C0175F0
:102A54000D03780C121973740812173C12198A7931
:102A64001612340412083B7408121706E9F50C70A8
:102A74000B12340012048D800F750C0185088285B9
:102A84000983122B95123678850C08022B56740292
:102A940012173CAC82AD83850C82850D8312340AF7
:102AA40012071B8A108B11AC10AD11EC4D604385DD
:102AB4000C82850D83A3A312198A75100075110366
:102AC40078101219737510017511037810121973A7
:102AD400740812173C12198A791612340412083B2E
:102AE4007408121706E9F509700B123400120493E6
:102AF400800F750901850C82850D83122B95123682
:102B040078850908804C851882851983AC82AD8349
:102B1400120805803A851882851983AC82AD831228
:102B2400080B802B851882851983AC82AD8312082B
:102B340011801C851882851983AC82AD8312081715
:102B4400800D851882851983AC82AD8312081DE936
:102B5400F508E50860298E828F83A3E06414601F62
:102B6400850E82850F83E0900300122B9F123EBDD9
:102B7400900301123678E508A3122BA712046FEE16
:102B8400FAEFFB120799023564F50CEF3400F50DEA
:102B940022123EC185188285198322F08518828508
:102BA400198322F07C007D03850A82850B8312340D
:102BB4000E2274EE12176074FC1216F08A0A8B0B44
:102BC4008C0E8D0FEA2405F508EB3400F5097C150D
:102BD4007D0079007A007B03120FB5E5082402F525
:102BE4000CE509122B90851882851983858210853E
:102BF40083117810121973850882850983A3A3A30E
:102C0400A31230BA121973E5082405F510E5093446
:102C140000F5117810121973850C82850D83123416
:102C24001412071574061217068A108B11AE10AF12
:102C340011E50A2402F50AE50B12365FEE4F700324
:102C4400022D7C8017740212173C12340A88828980
:102C540083EAF0A3EBF0900300E004F0900300E0BB
:102C6400C394054003022D7CE4F510F5117810128D
:102C740019737510E975110278101219737510EA39
:102C84007511027810121973740612173C12198AFE
:102C94007910EEFCEFFD12340412083B740812178D
:102CA40006E9705E850882850983A3A3A3A3A3A371
:102CB400A3E0F89002E9E06870481230BA12197380
:102CC4007CEA7D02E5082408FAE5093400FB120FCA
:102CD400AF7402121706E960298E828F83A3A3A31F
:102CE400A312340A900300E0F5107402781012164F
:102CF400DD74012510F58274033511F583EAF0A320
:102D0400EBF0740212173C8582108583117810123F
:102D14001973740212173C12198A850C82850D836B
:102D2400123ED212072174041217068A108B11AEB8
:102D340010AF11900300E0F51075110074027810C3
:102D44001216DD74002510F874033511F988828990
:102D540083A31228A87003022C40E82403F8E93462
:102D640000F9EE4F6003022C498882898374FFF0D6
:102D7400A3F0900300E004F0900300E0600A123432
:102D8400001204817900800B85088285098312363C
:102D94006F790A02356474EA12176074FE1216F031
:102DA4008C128D13EA2405F50CEB12403C12281A00
:102DB400750800750900EA2402F510EB3400F511DA
:102DC40085188285198385820A85830B780A1219EE
:102DD40073850C82850D83A3A3A3A3122F7C1219E0
:102DE40073E50C2405F50AE50D12365F780A12190D
:102DF40073850C82850D83123ED01207157406125A
:102E040017068A0A8B0BEA450B7003022F2DEA245E
:102E140004F50EEB122F7212281A8A828B83A3A355
:102E2400A3E0F985108285118312340A120703E99D
:102E3400F5096003022F2DE4F514F5157814121921
:102E4400737514E975150278141219737514EA75FB
:102E540015027814121973740612173C12198A7920
:102E640013AC0AAD0B85108285118312340A120843
:102E74003B7408121706E9F5096003022F2D90022E
:102E8400E9E0F8E5087009E02402900301F08017F6
:102E9400900301E0FCE82402FAE43400FBEA6C70DD
:102EA40001EB6003022F31850882AA821230B194AB
:102EB400141230A95073850E82850F83E0C0E0742C
:102EC400022A122F69D0E0F00508850E82850F834F
:102ED400A3E0C0E085080A7402250A122F69D0E035
:102EE400F005089002E9122F7C1219737CEA7D0226
:102EF40085080A7402250AFA74033400FB120F9D34
:102F040074021217069002E9E02508F50874FF6EB2
:102F1400700374FF6F6012EE24010EEF3400FFE5BE
:102F240008C394145003022DC4E50860131232F54B
:102F340085108285118312340A1204877900801463
:102F4400E509700375090A851282851383EEF0A3DF
:102F5400EFF0A90974021217067F0E0218328508D1
:102F64000C7402250CF58274033400F583223400BA
:102F7400F50F850E82F58322123BFF2274EE1217A1
:102F84006074FE1216F08C0E8D0FEA2405F50CEB1E
:102F9400122B90750B00900300E4F0F50AEA24026A
:102FA400F508EB3400F5098049900300E0FA90023B
:102FB400E9E0F81230B194171230A9400D900300E3
:102FC400E0F87416C3989002E9F01230BA1219733B
:102FD4007CEA7D0274012AFA74033400FB120F9D0B
:102FE40074021217069002E9E0F8900300E028F05A
:102FF400050AE50C2416F582E50D122F6DE0F8E5BF
:103004000AC3984003023092900300E0C394165020
:103014007DE50AC333F8E433F9E50C28FEE50D3900
:10302400FF851882851983AC82AD838E828F8312CB
:10303400340A12071B8A108B11AC10AD11EC4D70C1
:1030440005750B018043E4F510F51178101219731E
:103054007510E975110278101219737510EA75115B
:10306400027810121973740612173C12198A791611
:1030740085088285098312340A12083B74081217E2
:1030840006E9F50B7003022FAD12366B80107C003D
:103094007D0385088285098312340A120499A90BD9
:1030A4007402023566E99400C365D03322EA28F835
:1030B400E43400F9E822E0F5107511007810227468
:1030C400EA12176074FC1216F08A0C8B0D8C128DA8
:1030D40013EA2405F50AEB12365F7508007509003A
:1030E400E50A2402F510E50B3400F51174021217F9
:1030F4003C85820E85830F780E121973850A8285AA
:103104000B83A3A3A3A3123BAB121973E50A2405F3
:10311400F50EE50B3400F50F780E12197385108245
:1031240085118312366512340412071574061217BA
:10313400068A0E8B0FAE0EAF0FE50C2402F50EE5DA
:103144000D3400F50F80408882898374FFF00508F0
:10315400122F6274FFF005089002E9E0F50C750D7A
:1031640000780C1219737CEA7D0285080C74022520
:103174000CFA74033400FB120F9D740212170690AC
:1031840002E9E02508F508EE4F60718E828F83A373
:10319400A3A3E0F9850E82850F8312340A12070374
:1031A400E9F509EE2404122B8DE97044E4F514F5D5
:1031B4001578141219737514E97515027814121917
:1031C400737514EA751502781412197374081217BA
:1031D4003C12198A7911EEFCEFFD850E82850F836E
:1031E40012340A12083B7408121706E9F50960271D
:1031F400850C82850D831232EB123678E508700354
:103204000232D11232F5850E82850F8312340A12EE
:10321400049F79000232E6850882AA82EA9002E9D4
:103224007009E02404900301F08022E0F890030187
:10323400E0F514E82404FCE43400FDEC65147001AA
:10324400ED70C01230B194121230A950B6850C82C0
:10325400850D83E0C0E074022A122F69D0E0F005E6
:1032640008850C82850D83A3E0C0E0122F62D0E0B4
:1032740012330785820C85830D780C12197374043C
:1032840012173C12198A851082851183123ED212BC
:10329400072174041217068A0C8B0DAE0CAF0D8532
:1032A400080C7402250CF874033400F9EE4F700313
:1032B40002314B851882851983E088828983123311
:1032C40007A3E0C0E0122F62D0E0023159E5097093
:1032D4000375090A850A82850B831232EB1236784C
:1032E400A9097404022F5A123EC1851282851383E0
:1032F40022900301E0F5F0E50884900300F07C00DF
:103304007D0322F005088518828519832274EC1246
:10331400176074FE1216F08A088B098C0E8D0FEA62
:103324002405FEEB3400FF851882851983AC82AD39
:10333400838E828F8312340A12071B8A0A8B0BEE48
:103344002418122B8DEA450B70030233DB12354D22
:10335400503285188285198312340A12082F8A1074
:103364008B11EA4511606B7912AC0AAD0B850882AA
:1033740085098312340A85108285118312175EE948
:10338400F50A7058E4F50AF50B780A1219738E825F
:103394008F83A3A3E0F50A780A121973EE240312AB
:1033A400365C780A1219738E828F831234141208D1
:1033B400417406121706E9F50A7021850C82850D01
:1033C40083E0701F85088285098312340A1204A5DC
:1033D4008011750A0E8009750A018004E50A6003EC
:1033E40012366B850C82850D83E0600479008002BF
:1033F400A90A74021217067F0C0218327C007D039E
:10340400850A82850B8312340E22E0FAA3E0FB22A4
:10341400E0FCA3E0FD85088285098312340E227442
:10342400EE12176074FE1216F08A088B098C0C8D4C
:103434000DEA2405FEEB3400FF750E008518828525
:103444001983AC82AD838E828F8312340A12071BD8
:103454008A0A8B0BEA450B700302353912354D503D
:103464003585188285198312340A12082F8A0E8B27
:103474000FEA450F605E7912AC0AAD0B85088285B0
:10348400098312340A850E82850F8312175EE9F5CB
:103494000E600302353C850882850983123753AADE
:1034A4000AFB1208238A108B11A810A911E849708D
:1034B4001E7AFF7BFF1208238A108B11A810A91112
:1034C400E849606C88828983E50AF0A3E50BF0750E
:1034D4000A008007750E0E805F050A9002E6E0FA86
:1034E400E50AC39A504AE50A75F017A4FAABF088C6
:1034F400828983A3A3E02AFAA3E03BFB8A828B831D
:10350400123665EC4D70D2750A17750B00780A12E5
:103514001973EEFCEFFD120F9D7402121706EEFCF8
:10352400EFFD85088285098312340A1204AB8014E6
:10353400750E098003750E01123EB9850C82850D46
:1035440083123678A90E0230A4E5082402F508E5B2
:10355400093400F5098A828B83A3A3A3E0A2E522A0
:1035640074041217067F0A02183274EC1217608C66
:10357400108D11EA2405F50CEB122B90750F00EA5F
:103584002402F50AEB12365F850A82F58312340AA7
:103594001208238A088B09EA45097003023651751B
:1035A4000E008071850C82850D83E06401704F8E5E
:1035B400828F83A3A312198A8E828F83A3A3A3A3CA
:1035C400E0F5127513007812121973EE2405F51242
:1035D400EF3400F5137812121973123404120841EF
:1035E4007406121706E9F50F6014850C82850D83A5
:1035F400E4F0123EB98510828511831236787C1767
:103604007D007900EEFAEFFB120FB58E828F83E412
:10361400F0A3F0050E9002E6E0F8E50EC398501E04
:10362400E50E75F017A4F8A9F0850882850983A32F
:10363400A3124046123665EC4D60030235A8850896
:103644008285098374FFF0A3F0E50F700612340439
:103654001204B1A90F0233FBF50AEF3400F50B2273
:10366400A3E0FCA3E0FD228E828F83123EC1850E6F
:1036740082850F83E8F0A3E9F022C082C083900220
:10368400E2E06A7003A3E06B70067AE27B028004D6
:103694007A007B0002296BC082C08378008C828D03
:1036A40083E06A7003A3E06B7010E875F003A4F87C
:1036B400A9F0EC28FAED39FB8015088C828D83A3E0
:1036C400A3A3E06A7003A3E06B60DF7A007B0002CF
:1036D400296B74F61217601207ED8A828B83E582D8
:1036E400458370067A007B008007A3A3A3A312344A
:1036F4000A023D6A74F2121760E9FE740E12173C56
:10370400123753741012173C123BCB8C828D83E01A
:1037140064027036A3123EC7F50CA3E0F9A80C743A
:10372400026870037429697021750C02750D0078A4
:103734000C1219737808121973780A121973EEF9B6
:10374400120865740612170680027901023DEEE044
:10375400F50AA3E0F50B2274E812176074FB121645
:10376400F0E9851882851983F08A168B17ECFEED33
:10377400FF751000741D12173C123EBD741D121704
:103784003C1236788E828F83A3A3A3E0A2E4502D4B
:10379400741D12173C12340A12082F8A828B83E597
:1037A4008245837003023B9C790AEEFCEFFDAA1666
:1037B400AB1712175EE9F5106003023B9F741F12EA
:1037C400173C123BCB742112173C1237537423124B
:1037D400173CE0F50EA3E0F50F8E828F83E06402C0
:1037E4006003023B4AA3123EBD850882850983A378
:1037F400858212858313EE2406122B8D8882898399
:10380400E0FAA3E0F9EA2400F514E439F515781494
:103814001219FD0100002801283F3807000228047E
:10382400390328713800293B3A0129663A022907ED
:103834003A03293B3A0429E53A4A3BE50E450F6031
:1038440003023B45850C82850D83123BC0FAE9FBDC
:103854008A828B83E0850A82850B83123BF61219D8
:10386400738A828B83A3E0FCA3E0023ACFE50E4582
:103874000F6003023B45850A82850B837401F012B5
:103884003BD3850882850983F07C007D008E828F7E
:1038940083A3A3A3A3E02401FAA3E03400FB12074B
:1038A4001BEA4B60418A828B83E02402F8850A82FA
:1038B400850B83E028F0EA2404F8EB3400F98882CD
:1038C4008983E0851282851383123C08123BF61229
:1038D40019738A828B83123664E5082403FAE50996
:1038E4003400FB023AD4850A82850B83E02404F079
:1038F4007C047D007900AA12AB13120FB5023B9F22
:10390400E50E450F6003023B45123BD3FEA3E0FFE7
:10391400850A82850B837404F0EE85088285098309
:10392400F0EF851282851383F0740312173CAC8286
:10393400AD83EEFAEFFB12071B8A0C8B0DEA450DE3
:1039440070030239E88A828B83A3A31228167401B8
:1039540012173C85820E85830F780E121973740535
:1039640012173C12198A7CFF7DFF1207217404127E
:1039740017068B0FEA450F7033850C82850D831271
:103984003BAB121973850C82850D83A312198A7CB3
:10399400027D007A5C7B8212054D7404121706E9DD
:1039A400700A740112173C74FFF0A3F08E828F83A7
:1039B400E064027039750C02750D00780C121973ED
:1039C4008E828F83123664E5082404FAE5093400F4
:1039D400FB120F9D7402121706850A82850B83E081
:1039E40024028009740112173CEEF0A3EFF0740175
:1039F40012173C123BBCF0740112173CA3123BB4E7
:103A0400023B3FE50E450F6003023B45850C828572
:103A14000D83123665AA16AB17120859850A8285DA
:103A24000B837402F0EA850882850983F08512828B
:103A3400851383EB023B42E50E450F6003023B45D1
:103A4400123BD3F8A3E0F9850A82850B837402F054
:103A5400E8850882850983F0E9851282851383024B
:103A64003B42850C82850D8312340A120F97EAFCBF
:103A74008C82A882C3950EE4950F405FE8650E70B2
:103A840002E50F70047C008022851882851983E08A
:103A9400FAE50E2AFAE50F3400FBC3EA98EB94002A
:103AA4005003E08005E50ECCC39CFCEC850A8285BE
:103AB4000B83F08C0A750B00780A121973850C823B
:103AC400850D83E0250EFCA3E0350FFDAA08AB09A4
:103AD400120F9D7402121706023B9F751007023BDA
:103AE4009FE50E450F705A850C82850D83123EBDED
:103AF400850A82850B837407122822123BB412288C
:103B040022A3E0851282851383F0E82402FAE934C3
:103B140000FB8A828B83123BB4123BE3123BBCA3AF
:103B2400123BEC123BC5F0E82405F8E93400F988AF
:103B3400828983123BC5A3123C08A3A3A3A3F080EC
:103B44005A75100B8055741D12173C12340A120753
:103B5400ED8A828B83E5824583603D123EBD880CED
:103B6400890DE8450D6031780E121973780A12191F
:103B7400737808121973740612173CE0F9EEFCEF1F
:103B8400FDAA16AB17850C82850D8312175E740689
:103B9400121706E9F510800375100EA910740512AA
:103BA40017067F10021832E0F50E750F00780E220A
:103BB400E085088285098322123C1222123EC1E864
:103BC40022123C12A3A322E0F508A3E0F509228502
:103BD4000C82850D83E0F8A3E0F5838882E022A3BC
:103BE400A3F08A828B83A322F088828983A3A3A370
:103BF400A322F08A828B83123BFF22E0F50A750B25
:103C040000780A22F088828983A3123C1222E0857C
:103C14000882850983A3A32274EE12176074FE122E
:103C240016F08A0A8B0BECFAEDFB741412173CE0C5
:103C3400F510A3E0F511741612173CE0FE74181287
:103C4400173CE0F50EA3E0F50F851882851983ACC7
:103C540082AD8312071B8A0C8B0DEA450D604985E2
:103C6400188285198312340A1207ED8A828B83E540
:103C7400824583602FA3A3123BCBE508450960244A
:103C8400780E1219737810121973EEF9AC0CAD0D8D
:103C9400AA0AAB0B85088285098312175E74041285
:103CA40017068006790E800279010230A474F61298
:103CB400176074FE1216F0740C12173C123BC08588
:103CC4001882851983F0740112173CE9F0E4F508B1
:103CD400F5097808121973750802780812197374B3
:103CE4000412173C85820885830978081219731217
:103CF400084174061217067402121706806874F7D6
:103D0400121760EAFEEBFF89087C197D031208593B
:103D1400EA5402600BA908EEFAEFFB12070F8002C7
:103D2400790102271E74F612176074FF6A70037417
:103D3400FF6B70168C828D83123D6FE4F08C828D44
:103D440083A3A3A3123D6FA380181208298A088BAA
:103D540009A808A909E849600D8882898374FF12BB
:103D64002820A3A3E4F07F0202183274FFF0A3F02A
:103D74008C828D83A3A32274F61217601208298AF9
:103D8400828B83E58245836006A3A3E0FA80027AEE
:103D9400007B0080D174F21217608A088B09ECFE54
:103DA400EDFF740E12173CE0F50A1208298A0C8BF9
:103DB4000DA80CA90DE8497026EEFCEFFD7AFF7BF7
:103DC400FF1208298A0C8B0DA80CA90DE849700470
:103DD4007911801688828983E508F0A3E509F088C3
:103DE400828983A3A3E50AF079007F06021832745E
:103DF400EE121760EAFEEBFF8C088D09890C74142F
:103E040012173C123EBD741612173C12340A750D7B
:103E140000E8496003023EB17402650C6003023E8F
:103E2400AC741212173C123EC7FCA3E0F9EC240058
:103E3400F50EE439F50FEAF4F8EBF4F9EC58F8E58B
:103E44000F59F9E849705CE5082406F8ED3400F9E7
:103E5400880A890B8882F583123ED21208598A1087
:103E64008B11E50E65107004E50F65116042780E44
:103E7400121973850A82850B83123ED212085F746D
:103E840002121706E9F50D7027780E1219738508CA
:103E940082850983A3A3123ED012087774021217F5
:103EA40006800D750D808008750D0D8003750D0B52
:103EB400A90D0235698E828F83123EC122E0F8A3D8
:103EC400E0F922123EC188828983E022A3A3E0FCA8
:103ED400A3E0FDEEFAEFFB2274E812176074E71218
:103EE40016F0851882851983EAF0A3EBF08C168D01
:103EF40017890E750800750900743112173CE0F536
:103F040012A3E0F513743312173CE0F514A3E0F5A3
:103F140015743512173CE0F50FE50975F003A4F8A4
:103F2400A9F0851882851983124046E0F47003A332
:103F3400E0F47003024029EE2402F50CEF12403C39
:103F4400E0700302402985160A85170B780A1219B6
:103F540073AC14AD15AA12AB131207E17402121755
:103F6400068A0A8B0BEA450B7003024029E4F5101C
:103F7400F5117810121973740612173C8582108596
:103F840083117810121973740912173C85821085F5
:103F940083117810121973851282851383A3A3A346
:103FA400A312198A7914AC0AAD0B8E828F83123452
:103FB4000A12083B7408121706E97069850A82859B
:103FC4000B83A3A3A3A3123EBD740212173C1236A3
:103FD40078850C82850D83E0A2E05018A90E740246
:103FE40012173CAC82AD838E828F8312340A12077F
:103FF40033E94208850C82850D83E0A2E15026E571
:104004000FF50A780A121977A90E740312173CAC3B
:1040140082AD838E828F8312340A12072D740112AB
:104024001706E942080509E509C394025003023F53
:104034001DA9087419023BA33400F50D850C82F503
:104044008322E028FEA3E039FF8E828F832274F25C
:10405400121760EAFEEBFF890B7401650B600E74A6
:1040640002650B706A7901120A39E97062EEFAEF9F
:10407400FB1208238A088B09EA45096047750A0080
:10408400800B7C177D007900120FB5050A9002E6BB
:10409400E0F8E50AC3985021E50A75F017A4F8A9D9
:1040A400F0850882850983A3A3E028FAA3E039FBFD
:1040B4008A828B8312297270C98508828509837468
:1040C400FFF0A3F07C197D03EEFAEFFB1208530214
:1040D4003DEE74F21217608A088B09ECFEEDFF7452
:1040E4000E12173C123753900B81E0F4603D7A09AD
:1040F4007B00120FC7EA4B60328A828B8374B1F063
:10410400A3E4123BE5A3123BE3A3E508F0A3E5090E
:10411400124132EEF0A3EF124132A3A3E50AF0A359
:10412400E50BF0900B81E0F9120FD3023DEEF08A1B
:10413400828B83A3A3A3A3A322C082C08390619094
:104144007404F0A37448F0A37402F0906180744086
:10415400F09061BC7403F09061877419F09062650B
:10416400741BF0906249E0C3941390619C400A74FC
:1041740009F090606674018007740DF0906066E445
:10418400F090619A7433F0A37455F09061A0743A7E
:10419400F090053FE064017009C2919003A6746732
:1041A40080059003A67461F09026DAE4939061860A
:1041B400F09026D4E493F46027E493540FF89061CC
:1041C40085E0686012E5C654804449F5C6E59E540E
:1041D4007F644970F8E8F053C680E59E547F70FA16
:1041E4007905120D8102436BC082C083E5A8F853A0
:1041F400A87E906181E4F0A3F0A3F0C2BA539AFEC2
:10420400C289759B00C2C275E90075910075BF0033
:1042140075A91175B905906181F0A374C0F0A3E488
:10422400F0D2BA439A0174805842A802436BC08208
:10423400C08374F81216F09003A4E0F8A3E0F9E840
:104244004970030243609003A4E05440602379085A
:10425400851882851983AA82AB83120BF58518828F
:10426400851983AA82AB831208E99003A4E054BFA2
:10427400F0E054806010790C7A657B05120BF590A0
:1042840003A4E0547FF0E0A2E0503190619A7433CB
:10429400F0A37455F09061A0743AF090053FE06487
:1042A400017009C2919003A6746780059003A674F7
:1042B40061F01208EF9003A4E054FEF0E0540260B1
:1042C4003190619A743FF0A3745AF09061A0747FA6
:1042D400F090053FE064017009D2919003A67471D7
:1042E40080059003A6746AF01208EF9003A4E054CA
:1042F400FDF0E0540460139026D8E493906186F0B6
:104304001208F59003A4E054FBF0E0540860139005
:1043140026D9E493906186F01208F59003A4E05442
:10432400F7F0E0541060139026DAE493906186F07D
:104334001208F59003A4E054EFF0E05420600A1250
:1043440008F59003A4E054DFF0A3E05401600D12DB
:104354000B1D1208FB9003A5E054FEF0740812171D
:104364000602436BF0A3F0D083D08202011F74ECE9
:1043740012176074F41216F0851882851983AC82C2
:10438400AD8375838275822674041216039026D831
:1043940093F460030244FE907808E0C3940250034F
:1043A4000244DE740412173CAC82AD8375838175BC
:1043B40082C17408121603851882851983858212B6
:1043C400858313740412173CAC82AD83750EFF759C
:1043D4000FFF7FFF7E00750C48750D7880157408FB
:1043E4006E700302447274096E7003024472740A9C
:1043F4006E607B850C82850D8378081215A88C82EB
:104404008D83A909E50AC9F888107418780812146C
:10441400D6E5104508F8C3E098A3E099850C828599
:104424000D8378081215A840188C828D837418782F
:10443400081214D6E5104508F8E0C398F8A3E08004
:104444001C741878081214D6E5104508FAE9FB8C98
:10445400828D83E0F8A3E0F9EAC398F8EB99F9C3F5
:10446400E8950EE9950F5006880E890FEEFF0EE5CC
:104474000C2404F50CE50D3400F50DEEC394135033
:10448400030243E274FF650E700474FF650F60233A
:104494008F08740278081216DD74482508F58274B2
:1044A400783509F58378081215A885128285138357
:1044B400E508F0EC2402FCED3400FD85128285133E
:1044C40083A3858212858313740C12173CE5826CD6
:1044D4007003E5836D60030243D07508017509001C
:1044E4007808121973740212173CAC82AD837AB641
:1044F4007B091211A77402121706740C1217067F97
:104504000C021832C082C0839061AE7468F0A37448
:104514006AF090624574FBF0A304F053F4FD43FE8B
:104524000290053F7401F09061A0E0643A90619AB2
:1045340070237433F0A37455F09061A0743AF0744E
:104544000164017009C2919003A6746780289003E6
:10455400A674618021743FF0A3745AF09061A07432
:104564007FF0740164017009D2919003A674718084
:10457400059003A6746A02436A7F08021832C08257
:10458400C0839004F1E06401700A9004F6E06004D2
:10459400790C8002790002436BC082C08375E1F11B
:1045A4009004F4E0605B14600914605F14605714B5
:1045B400705E120B2F9004EAE0F97AEB7B04120D83
:1045C400037AD67BBE7C897D8E120D397A557B5554
:1045D4007C557D00120D0F9004F5E0F9120D1B7946
:1045E40001120D759004E8E0F8A3E0C82416F582E2
:1045F400E83400F5837447F0A3740BF079000243A8
:104604006B120B3580AF120B3B80AA120B4180A5B5
:10461400791280EA74F012176075D90D9004D5E010
:10462400A2E0E4331313F89004EAE0C4333354C033
:10463400484401F5D978E8790488828983A3A3A33F
:10464400E0F5D988828983A3A882A983E864EE70FF
:1046540003E9640470E378D5790488828983A3E04C
:10466400F5D988828983A3A882A983E864DB7003CF
:10467400E9640470E575E1959004D5E0F97AD67B98
:1046840004120D09900BA374E1F0A3740AF0A3744F
:104694003DF0A3740CF0A3743DF0A3740CF0A37468
:1046A4003DF0A3740CF0A374E7F0A3740AF0A374B0
:1046B4003DF0A3740CF0A374FFF0A3740AF0900B04
:1046C400B1743DF0A3740CF0A3743DF0A3740CF02A
:1046D400A3743DF0A3740CF0A3743DF0A3740CF028
:1046E400A3743DF0A3740CF0A3743DF0A3740CF018
:1046F4009004F4E064019004E87012E0F8A3E0F59B
:10470400838882A3A37508007509088010E0F8A3C4
:10471400E0F5838882A3A3750804750900750A006F
:10472400750B007808121521750CFF750DFF750EB9
:10473400FF750F007808790C12156F9004E8E0F803
:10474400A3E0C8240EF582E83400F5837808121536
:10475400B79004E8E0F8A3E0C82414F582E8340034
:10476400F5837413F09003A27402F002457D74F78C
:104774001217609004FAE02407F5D99004EAE0C423
:10478400333354C0F5D978E8790488828983A3A3A4
:10479400A3E0F5D988828983A3A882A983E864EE7B
:1047A4007003E9640470E39004FAE0601F78E87928
:1047B40004FAE82413F582E93400F583E0F5D98896
:1047C400828983A3A882A9831AEA70E690051AE075
:1047D4002407F5D99004EAE0C4333354C04404F503
:1047E400D978E8790488828983A3A3A3E0F5D988DA
:1047F400828983A3A882A983E864EE7003E9640430
:1048040070E390051AE0601F78E87904FAE824332D
:10481400F582E93400F583E0F5D988828983A3A879
:1048240082A9831AEA70E675E195900BA374EDF002
:10483400A3740AF0A3743DF0A3740CF0A3743DF0C8
:10484400A3740CF0A3743DF0A3740CF0A374E7F00C
:10485400A3740AF0A3743DF0A3740CF0A374FFF0E6
:10486400A3740AF0900BB1743DF0A3740CF0A3741C
:104874003DF0A3740CF0A3743DF0A3740CF0A37486
:104884003DF0A3740CF0A3743DF0A3740CF0A37476
:104894003DF0A3740CF09004E8E0F8A3E0C8240E03
:1048A400F582E83400F58374FFF0A3F0A3F0A3F0DD
:1048B4009004E8E0F8A3E0C82414F582E83400F595
:1048C400837412F09003A27401F0FF02183274F79B
:1048D4001217609004FAE02407F5D99004EAE0C4C2
:1048E400333354C04402F5D978E879048882898343
:1048F400A3A3A3E0F5D988828983A3A882A983E826
:1049040064EE7003E9640470E39004FAE0601F78D5
:10491400E87904FAE82413F582E93400F583E0F534
:10492400D988828983A3A882A9831AEA70E675E1EB
:1049340095900BA374F9F0A3740AF0A374F9F0A38F
:10494400740AF0A374F9F0A3740AF0A374F9F0A341
:10495400740AF0A374F9F0A3740AF0A374F9F0A331
:10496400740AF0A374FFF0A3740AF0900BB1743DC1
:10497400F0A3740CF0A3743DF0A3740CF0A3743D85
:10498400F0A3740CF0A3743DF0A3740CF0A3743D75
:10499400F0A3740CF0A3743DF0A3740CF09004E83D
:1049A400E0F8A3E0C8240EF582E83400F58374FF30
:1049B400F0A3F0A3F0A3F09004E8E0F8A3E0C82487
:1049C40014F582E83400F5837414F09003A274049F
:1049D400F0024C9974F71217609004FAE02407F57A
:1049E400D99004EAE0C4333354C04406F5D978E8D6
:1049F400790488828983A3A3A3E0F5D98882898373
:104A0400A3A882A983E864EE7003E9640470E390C8
:104A140004FAE0601F78E87904FAE82413F582E9DF
:104A24003400F583E0F5D988828983A3A882A98319
:104A34001AEA70E690051AE02407F5D99004EAE032
:104A4400C4333354C04404F5D978E879048882899E
:104A540083A3A3A3E0F5D988828983A3A882A98329
:104A6400E864EE7003E9640470E390051AE0601FE3
:104A740078E87904FAE82433F582E93400F583E030
:104A8400F5D988828983A3A882A9831AEA70E67576
:104A9400E195900BA374F3F0A3740AF0A3743DF0B2
:104AA400A3740CF0A3743DF0A3740CF0A3743DF054
:104AB400A3740CF0A3743DF0A3740CF0A3743DF044
:104AC400A3740CF0A374FFF0A3740AF0900BB174F8
:104AD4003DF0A3740CF0A3743DF0A3740CF0A37424
:104AE4003DF0A3740CF0A3743DF0A3740CF0A37414
:104AF4003DF0A3740CF0A3743DF0A3740CF0900487
:104B0400E8E0F8A3E0C8240EF582E83400F58374E5
:104B1400FFF0A3F0A3F0A3F09004E8E0F8A3E0C84A
:104B24002414F582E83400F5837415F09003A2741C
:104B340003F0024C99C082C0839004E8E0F8A3E03B
:104B4400C82406F582E83400F583E402436874F768
:104B54001217609003D0E0F875F003A4C8AAF02AF5
:104B6400F974D228F8740339F9E82405FAE9340011
:104B7400FB8A828B83E0FCA3E0FD88828983A3A364
:104B8400A3A3A3A3A3A3A3ECF0A3EDF0888289833A
:104B9400A3A3A3A3A3A3A3E024FFF8A3E034FFF9F2
:104BA4008A828B83E8F0A3E9F0024C9974F7121718
:104BB40060EAFEEBFF9061D0E06003024C8D75D992
:104BC4000E75D90375D904EE248BF582EF3400F504
:104BD40083E5822408F8E5833400F9E0F5D9A3E8F5
:104BE40065827003E9658370F2EE2483F582EF3405
:104BF40000F583E5822404F8E5833400F9E0F5D96F
:104C0400A3E865827003E9658370F275E19579081C
:104C1400EE248BFAEF3400FB120BE97904EE2483C3
:104C2400FAEF3400FB120BE97C00EEF8EFF9ECFA32
:104C3400C3E49AFA95E0FBEE2AFAEF3BFBEA248AF6
:104C4400F582EB3400F583E0C0E0E824AAF582E9BC
:104C54003400F583D0E0F00C88828983A3A882A96C
:104C640083ECC3940840C7EE246FF582EF3400F55B
:104C740083E0F8A3E0F9EE2471F582EF3400F583C4
:104C8400E8F0A3E9F07901800279008008F0EEA24F
:104C9400E092AF79007F01021832C082C08375D9D7
:104CA4000275D90375D90575E195EA246FF582EB90
:104CB4003400F583E0F8A3E0F9EA2471F582EB34DB
:104CC40000F583E8F0A3E9F0790102436B74F6126E
:104CD4001760EAFEEBFF9005457406F0750845750C
:104CE400090578081219737C017903120C317402D6
:104CF40012170675D90675D903758245758305E0C3
:104D0400F5D9A3E582644A7004E583640570F075FF
:104D1400E1959003A2E06408701EEE246FF582EF23
:104D24003400F583E0F8A3E0F9EE2471F582EF3462
:104D340000F583E8F0A3E9F07901024F9F74F612BD
:104D44001760EAFEEBFF9061D0E070667801900591
:104D540045740BF09003A2E064077019750845755B
:104D6400090578081219737C017903120C31740255
:104D74001217067805740128F5D975D9037582458B
:104D8400758305E8FAE0F5D9A31AEA70F875E19598
:104D9400EE246FF582EF3400F583E0F8A3E0F9EE3A
:104DA4002471F582EF3400F583E8F0A3E9F079018A
:104DB40080027900024F9F74F7121760EAFEEBFF3E
:104DC40075D90375D90375D90DEE24DDF582EF3459
:104DD40000F583E0F5D975E1957904120D3FEE24D1
:104DE4006FF582EF3400F583E0F8A3E0F9EE247167
:104DF400F582EF3400F583E8F0A3E9F07901024C81
:104E04009974F6121760EAFEEBFF9061D0E0F87433
:104E140080C398FAEE2482F582EF3400F583E060D3
:104E240004780480027800E8240BF8EAC39850035D
:104E3400024ECA7D09900545EDF0EE24E2F8EF3408
:104E440000F97A467B057C0888828983E08A828B14
:104E540083F088828983A3A882A9838A828B83A30F
:104E6400AA82AB831CEC70E0EE2482F582EF34005E
:104E7400F583E0601D7508457509057808121973F6
:104E84007C097903EEFAEFFB120C31740212170657
:104E94007D0D74012DF5D975D9037582457583058A
:104EA4008D08E0F5D9A31508E50870F675E1957944
:104EB40004120D3FEE241DF582EF3400F583E4F077
:104EC400A3F0790180027900024F9F74F6121760F3
:104ED400EAFEEBFF9061D0E0F87480C398FAEE2408
:104EE40082F582EF3400F583E06004780480027870
:104EF40000E82408F8EAC3985003024F9D7806900E
:104F04000545740CF09003BFE0900546F09003C093
:104F1400E0900547F09003C1E0900548F09003C28B
:104F2400E0900549F09003C3E090054AF0EE248236
:104F3400F582EF3400F583E0601B750845750905BB
:104F440078081219737C067903EEFA120C31740294
:104F5400121706780A740128F5D975D903758245A4
:104F64007583058808E0F5D9A31508E50870F6757A
:104F7400E1957904120D3FEE246FF582EF3400F5CC
:104F840083E0F8A3E0F9EE2471F582EF3400F583B1
:104F9400E8F0A3E9F07901800279007F0202183277
:104FA40074F6121760EAFEEBFF9061D0E0F87480AB
:104FB400C398FAEE2482F582EF3400F583E06004AE
:104FC400780480027800E82404F8EAC398500302C5
:104FD400507E7802900545E8F0EE24F4F582EF3433
:104FE40000F583E0900546F0EE2482F582EF34006C
:104FF400F583E0601B750845750905780812197377
:105004007C027903EEFA120C317402121706780648
:10501400740128F5D975D903758245758305880807
:10502400E0F5D9A31508E50870F675E195EE24734B
:10503400F582EF3400F583E4F0EE247FF582EF345B
:1050440000F583E4F0EE241DF582EF3400F583E4EB
:10505400F0A3F07904120D3FEE240DF582EF340035
:10506400F583E0F8A3E0F9EE2471F582EF3400F55E
:1050740083E8F0A3E9F0790180027900024F9F747C
:10508400F61217609061D0E0F87480C398FCEA24AB
:1050940082F582EB3400F583E060047804800278C2
:1050A40000E82404F8ECC398405B79029005457449
:1050B40007F0EA24F5F582EB3400F583E090054629
:1050C400F0EA2482F582EB3400F583E06018750879
:1050D4004575090578081219737C0209120C31749C
:1050E400021217067906740129F5D975D903758258
:1050F40045758305E9F8E0F5D9A318E870F875E17A
:1051040095790180027900024F9F74F5121760E9C6
:10511400FCA2AFE433F50AC2AF7D0080010DEA249E
:105124006EF582EB3400F583E0F8EDC398501A8DE8
:1051340008EA2508F8EB3400F9E8246AF582E93432
:1051440000F583E06C70D68024EA246EF8EB34001A
:10515400F9E0FEEA2EFAEB3400FBEA246AF582EB6E
:105164003400F583ECF088828983E004F0E50AA238
:10517400E092AF7F0302183274F6121760A2AFE414
:1051840033FDC2AFEA246EF582EB3400F583E014FC
:10519400F07C0060368C08EA2508F8EB3400F9E866
:1051A400246BF582E93400F583E0C0E0E8246AF575
:1051B40082E93400F583D0E0F00CEA246EF582EB4A
:1051C4003400F583E0F8ECC39840CAEA246DF58214
:1051D400EB3400F58374FFF0EA2469F582EB3400C4
:1051E400F583E4F0EDA2E092AF024F9FC082C0834A
:1051F400E5A8F8C2AFEA246AF582EB3400F583E946
:10520400F0EA2469F582EB3400F583E4F0E8A2E7E0
:10521400A2E792AF02436B74F3121760EAFEEBFF4E
:10522400ECFAEDFB8A828B83A3A3A3A3E0541FF0C3
:10523400EE2436F582EF3400F583E4F0F50AEEFC53
:10524400EFFD8A828B83E0C0E0EC245DF582ED34CF
:1052540000F583D0E0F0750B00E50A33333354F8DE
:10526400F50C8A828B83E0F508750900E50B780854
:105274001216BEE508A2E0502FEE2436F8EF3400F3
:10528400F988828983E0F508EE2508F508EF3400F3
:10529400F509E5082438F582E5093400F583E50CC1
:1052A400F088828983E004F0050B050CE50BC394B8
:1052B4000840AF050A8A828B83A3AA82AB838C82BF
:1052C4008D83A3AC82AD83E50AC3940550030252D7
:1052D400467F0502183274F71217609003CEE0641B
:1052E4000170030254387A009003D4E0600302543E
:1052F400387401F0A3E4F0A3F090043404F09004B3
:1053040039F09003D7E4F0A3F0A3F0A3F09003E105
:1053140004F0900407E4F09003EAF0A3F0A3F0A3F0
:10532400F0A3F0A3F0A3F0900451F0900445F090A2
:10533400043A7480F0A3E4F0900440F09004BCF0CC
:10534400A3F0A3F0A3F0A3F0A3F0A3F0A3F09004C0
:10535400C5F0900454F09004A4F0A3F0A3F0A3F0DB
:10536400A3F0A3F0A3F0A3F0A3F0A3F09004B0F093
:105374009004B2F09004AEF09004C8F0A3F0A3F04F
:10538400A3F0A3F0A3F0A3F0A3F078CE7903E8246C
:105394006EF582E93400F58374FFF00A888289830C
:1053A400A3A882A983EAC3940440E37ACE7B03785A
:1053B400DC790488828983E0C0E0EA2461F582EB29
:1053C4003400F583D0E0F088828983A3A882A9837E
:1053D4008A828B83A3AA82AB83E864E17003E964C5
:1053E4000470D07ACE7B0378B5790388828983A34D
:1053F400E0C0E0EA24E6F582EB3400F583D0E0F087
:1054040088828983A3A882A9838A828B83A3AA82A0
:10541400AB83E864BD7003E9640370CF9003CEE00E
:1054240004F0640170089003D6E09003D0F07AD2BF
:105434007B0380047A007B00024C99C082C0839075
:1054440003D5E4F09003D4F09003CEF0A3F0A3745A
:10545400FFF075E1F102436BC082C08378007900EC
:105464009003D5E0600478D2790388828983A3A36A
:10547400A3A3E0F902436B74F6121760EAFEEBFF94
:10548400EE2463F582EF3400F583E0F8A3E0F9E855
:10549400497003025520EE2463F8EF3400F97A00D2
:1054A4007B00A2AFE433F508C2AF88828983E0FCB5
:1054B400A3E0FDEC4D603A88828983E0FAA3E0FB27
:1054C4008A828B83E0FCA3E0FD88828983ECF0A3CD
:1054D400EDF08A828B83E4F0A3F088828983E0FC78
:1054E400A3E0FDEC4D700A88828983A3A3E4F0A3B2
:1054F400F0E508A2E092AF12125B9004E2E004F03F
:105504009004E3E004F0EE2463F582EF3400F583C5
:10551400E0F8A3E0F9E849600302549A8E828F838D
:10552400A3A3A3E0600F8E828F83A3A3A3E4F090D0
:1055340003CFE014F09003CEE014F070069003D093
:1055440074FFF08E828F83A3A3E4F09004E1E070F3
:105554000D9003CFE0640170057900120D21EEFA7D
:10556400EFFB120C61024F9F74F7121760EAFEEB17
:10557400FF8E828F83A3A3A3A3E0FA7B0012093DCD
:10558400EEFAEFFB120BB3120C49024C99C082C025
:105594008378B5790388828983A3E4F08882898338
:1055A400A3A882A983E864BD7003E9640370E6904C
:1055B40003B6740102436A74F6121760EAFEEBFF45
:1055C400EC2403F8ED3400F988088909EC2407F881
:1055D400ED3400F9E8FCE9FD8C828D83E0F8A3E06A
:1055E400F9850882850983E0FAA3E0FB121665EECB
:1055F400240DF582EF3400F583E8F0A3E9F08C8202
:105604008D83E0F8A3E0F9850882850983E0FAA395
:10561400E0FB1216658B09EA45096013EE240DF5CB
:1056240082EF3400F583E02401F0A3E03400F002BB
:105634004F9F74F6121760EAFEEBFFEE242EF582FC
:10564400EF3400F583E0FCA3E0FD780079FAECFA8E
:10565400EDFB121665EE246FF582EF3400F583E856
:10566400F0A3E9F0780079FAECFAEDFB1216658BF9
:1056740009EA45096013EE246FF582EF3400F583DF
:10568400E02401F0A3E03400F0024F9F74EC121701
:1056940060EAFEEBFF741412173C78081215A81286
:1056A4000CE58A0C8B0D8C0E8D0F75100275110094
:1056B400751200751300780C791012150E7510FF11
:1056C4007511FF7512FF780C791012156F780C1292
:1056D400196F8E828F83E0F8A3E0F5838882A3A3F9
:1056E4001215C612237D7404121706E960030257CB
:1056F400F48E828F83E02402F8A3E03400F9E8FA00
:10570400E9FB8A828B8378081215348A828B83752D
:1057140008FF7509FF750AFF750B007808121595C7
:10572400EE240BF582EF3400F583C082C0838E82B1
:105734008F83A3A3A3A3A3E02401F8A3E03400F977
:10574400D083D082E0687003A3E069700579010218
:1057540057F68E828F83A3A3A3A3A3A3A3E024015C
:10576400F0A3E03400F0EE2473F582EF3400F58307
:10577400E064017036EE2474F582EF3400F583E0C2
:10578400F8A3E0F98E828F83A3A3A3A3A3A3A3E02A
:10579400687003A3E0697013EE2474F582EF34009B
:1057A400F583E02401F0A3E03400F0EE247FF582D9
:1057B400EF3400F583E064017036EE2480F582EF67
:1057C4003400F583E0F8A3E0F98E828F83A3A3A3CA
:1057D400A3A3A3A3E0687003A3E0697013EE24807D
:1057E400F582EF3400F583E02401F0A3E03400F007
:1057F400790002450374F6121760E9FEECFFEA240F
:1058040062F582EB3400F583E0640160030258A280
:105814009061D0E0F508EA2482F582EB3400F58348
:10582400E060047804800278007480C39508FC95D5
:10583400E0FDEF28F8E43400F9E82402F8E9340044
:10584400F9EC98ED99A2D265D033404E740A121740
:105854003CE0F508A3E0F509EA2482F582EB340084
:10586400F583E060157808121973EFFCEEF9120C59
:1058740031740212170674042FFF74012FF5D98EA8
:10588400D9EF600F850882850983F8E0F5D9A3185C
:10589400E870F875E195790080067907800279FF50
:1058A400024F9F74F7121760A2AFE433FEC2AF8AAF
:1058B400828B83E0F8A3E0F9E8498A828B83600A4B
:1058C400A3A3E0F8A3E0F5838882ECF0A3EDF08ACB
:1058D400828B83A3A3ECF0A3EDF08C828D83E4F0A0
:1058E400A3024C9174F7121760E96021F88C828D41
:1058F40083E08A828B83F08C828D83A3AC82AD8318
:105904008A828B83A3AA82AB8318E870E0ECFAED59
:10591400FB024C9974F4121760907803E0644270AF
:1059240055900544E014F0704DC2AF12593200781E
:105934002AD0E0F618D0E0F6E59F54077005750903
:10594400FF800375097FC4C0E07829E6F50808E6FE
:105954005509F509740B78081216CED0E02508F81D
:10596400906270E0A2E740F8E8C333906272F0906E
:105974006270E0D2E0F09003D0E0F47003025D12B4
:10598400E0F875F003A4C8AAF02AF974D228FE74CA
:105994000339FFEE2401F582EF3401F583E0F8A327
:1059A400E0F9E849601EEE2401F582EF3401F58345
:1059B400E0FAA3E0FBEE2400F582EF3401F583E086
:1059C400F9120FF78E828F83A3A3A3A3A3A3A3E04B
:1059D400F8A3E0F98E828F83A3A3A3A3A3E8F0A383
:1059E400E9F0906054E09003A9F0906055E09003D2
:1059F400AAF0906056E09003ABF0906057E09003FB
:105A0400ACF0906058E09003ADF0906059E09003E2
:105A1400AEF090605AE09003AFF090605BE09003CA
:105A2400B0F090605CE0FC9003B1F090605DE0FB4E
:105A34009003B2F090605EE0FD9003B3F090605F7D
:105A4400E0FA9003B4F09003AFE08C082508F8E482
:105A54003400F98D08E82508F8E93400F98B08E8E2
:105A64002508F8E93400F98A08E82508FAE9340039
:105A7400FBEE24F6F582EF3400F583E02AF0A3E090
:105A84003BF08C08EE24F8F582EF3400F583E02532
:105A940008F0A3E03400F0EE24FAF582EF3400F5C8
:105AA40083E02401F0A3E03400F0EE24FEF582EF5D
:105AB4003400F583E0F8A3E0F9E84960429060001F
:105AC400E0C333FCE433FDE82CF582E93DF583E0E3
:105AD4002AF0A3E03BF0906000E0FA9003B1E0FC10
:105AE400EAC333FAE433FBE82AF8E93BF9E8244A49
:105AF400F582E93400F583E02CF0A3E03400F09063
:105B040003AFE070119003B2E0700BA3E07007A341
:105B1400E07003025C0F8E828F83A3A3A3A3A3E090
:105B2400F8A3E0F9EE240DF582EF3400F583E028C4
