:020000040000FA
:060000000201070221C30A
:03002B0002263B6F
:0300330002261D85
:03003B0002265C3E
:030043000225D1C2
:0300530002223650
:03006B000225F774
:1000830002202FE5C754F84401F5C7790122000087
:100093000080FB120086B900030200F1E4792178A5
:1000A30008B800028004F709D8FCE479297802B87B
:1000B30000028004F709D8FCE490028178427909B0
:1000C3008002F0A3D8FCD9FA7AC27B0A9001377870
:1000D3003D79048015E493A3AD82AE838A828B833A
:1000E300F0A3AA82AB838D828E83D8E9D9E7758288
:1000F300117583A6740312011975829175830074B7
:100103000012011975D00075813F751881751902A8
:10011300759F00020096C09FF59FE473D09F22D085
:1001230083D082C09FE493C0E0740193C0E0740263
:1001330093F59F22FF0000B4000028002800283018
:1001430075A000A000A000A00000080008E001F0D6
:10015300001000100010001000100010005000509C
:1001630000500010001000D0070000000000000F36
:100173000001000500307507001000010081FF0039
:10018300000000FF71068F067706FF0202020802D5
:100193005000A0000000E803026C820100004582C9
:1001A300025082010000190B026882010000B302B1
:1001B3000250820100001A0B025E82010000C90294
:1001C3000250820100001B0B025682010000CB0289
:1001D3000250820100001C0B024882080000CC027E
:1001E3000250820100001D0B024A820100001E0B17
:1001F300FF0100FF20026C820100003F8202508257
:10020300010000820B024C82000000000002848285
:100213000300001903410C410C410C410C410C41FA
:100223000C410C410C410C410C410C410C410CC3E1
:100233000EDB0EBD0EFFFF020202020202020202E9
:10024300010D0000001001026C82010000D981023F
:100253005082010000C50B025A820100005D0702B3
:100263005082010000C60B0252820100005D810230
:100273005082010000C70B0262820100004F81021D
:100283005082010000C80B026682010000DF800279
:100293005082010000C90B026E82010000CD800272
:1002A3005082010000CA0B027082010000A9800283
:1002B3005082010000CB0B02728201000097800282
:1002C3005082010000CC0B027482010000418102C4
:1002D3005082010000CD0B027682010000CE0B019B
:1002E300E803053F100AFF00013075030201060011
:1002F30000000000000000000000000000000000FB
:100303000000000000000000000000FFFF06008066
:100313000CE803140953696D706C65424C455065D4
:10032300726970686572616C051250002003020ADD
:10033300000201060302F0FF07160102030405068B
:1003430053696D706C6520424C452050657269702D
:10035300686572616C371300003D130A436861726C
:100363006163746572697374696320310002436861
:100373006172616374657269737469632032000822
:10038300436861726163746572697374696320336E
:1003930000104368617261637465726973746963A1
:1003A3002034000243686172616374657269737417
:1003B30069632035000A4368617261637465726919
:1003C30073746963204465766963654E616D650086
:1003D300026C820100004282025082010000E90C9B
:1003E300027A820300009F0A024E82010000EA0C97
:1003F300025082010000FB0C027C82010000A00A73
:10040300024E82010000FC0C0250820100000D0D1F
:10041300027E82020000A10A024E820100000E0D3C
:100423000250820100001F0D028082000000A20A18
:10043300028482030000A30A024E82010000200D01
:10044300025082010000310D028282040000A90AD9
:10045300024E82010000320D025082010000430D62
:10046300026A82030000AE0A024E82010000440DBC
:1004730012012235FE021201224CFE021201227DDC
:10048300FE02120122B8FE02120122E2FE02120152
:10049300220CFF0212012223FF021201223AFF0261
:1004A30012012251FF021201227AFF021201228D50
:1004B300FF02120122A3FF02120122B6FF02120160
:1004C30022DDFF02120122B7A702120122BBA802FA
:1004D300120122F3A80212012216A90212012221FB
:1004E300A90212012244A90212012253AA021201F3
:1004F3002228AB02120122A3AB021201222BAC026F
:1005030012012266AC021201229DAC021201222BBF
:10051300AD0212012204AE0212012264AE021201E4
:10052300226FAE02120122EEAE02120122F1AE02DE
:10053300120122F4AE0212012283AF0212012286BB
:10054300AF02120122B6AF02120122E0AF02120182
:1005530022CEB00212012280B10212012299E302DB
:10056300120122C1E302120122EFE3021201222649
:10057300E40212012284E402120122CFE4021201F6
:10058300221AE5021201225AE502120122A0E50213
:10059300120122CEE5021201228BE60212012295FC
:1005A300E602120122A2E602120122D5E60212019C
:1005B30022A1E702120122ADE702120122C5E702DE
:1005C300120122CFE70212012285A1031201229315
:1005D300A103120122ABA103120122C3A103120141
:1005E3002227BA01120122D3BA011201224EBB0102
:1005F3001201226FBC01120122ABBC011201225471
:10060300BD011201223BBE011201229FBF01120153
:1006130022F6BF0112012277C00112012267C10134
:10062300120122B4C1011201223AC2011201226C49
:10063300C20112012280C401120122C2C4011201AB
:1006430022E0C40112012263C50112012237C6014F
:10065300120122FFC601120122BFD102120122920E
:10066300D2021201223BD3021201228ED3021201C3
:10067300223ED402120122CAD402120122B6D502AA
:10068300120122E5D502120122F8D60212012240FC
:10069300D70212012215D80212012251D8021201E7
:1006A300226DD80212012255A403120122008003F5
:1006B3001201221680031201223C800312012258E8
:1006C3008103120122628103120122978203120124
:1006D300228F830312012272DE02120122A2DF02A1
:1006E300120122D5DF021201221FE002120122E6CB
:1006F300E1021201221B6E00120122856E0012011B
:1007030022E46F00120122F46F0012012221700013
:100713001201227870001201222171001201222895
:100723007200120122F272001201225274001201AD
:10073300229574001201223A750012012287750076
:10074300120122AD7500120122BB7700120122C0F3
:100753007700120122C57900120122127A001201D8
:1007630022857A00120122B87A001201225A7B00F4
:10077300120122037C001201223B7C001201223E63
:100783007C00120122867C00120122C67C00120129
:10079300221D7D00120122128D031201222A8D03D4
:1007A300120122728D03120122888D03120122CFBE
:1007B3008D03120122E38E03120122708F031201B3
:1007C30022BB8F03120122D02600120122DC260055
:1007D3001201221727001201225C27001201221C9A
:1007E3002800120122A22800120122072900120167
:1007F300223329001201226C2900120122AA2B00A4
:100803001201228E2D00120122742F00120122B731
:1008130030001201220533001201221734001201A5
:10082300226235001201227236001201228F360035
:10083300120122CA3600120122EC36001201224FA5
:100843003700120122103C00120122A53C001201C4
:1008530022F63C001201221D3D001201226F3D00D1
:100863001201228D3D00120122E73D00120122D028
:100873003E00120122464000120122CA400012012A
:100883002256E80212012260E802120122A3E802C2
:10089300120122BEE8021201224EE902120122765F
:1008A300E902120122B3E902120122EAE90212016A
:1008B3002213EA0212012288EA021201229DEA02AD
:1008C300120122B2EA02120122E3EA02120122F722
:1008D300EA021201221CEB0212012256EB02120160
:1008E3002282EB02120122BAEB0212012239EC023C
:1008F30012012282EC02120122ACEC02120122D775
:10090300EC02120122B5FE01120122E49A02120145
:1009130022129B02120122609C02120122409D02BC
:100923001201225F9D02120122DC9D021201221F8D
:100933009E02120122759F0212012236A0021201A9
:1009430022BDA2021201225EA30212012254A402BA
:1009530012012251A502120122ABA6021201223674
:10096300A702120122359D031201229E9D0312014B
:1009730022F29D03120122199E031201224A9E03B1
:10098300120122FFEC021201226CED02120122B3CA
:10099300ED02120122CBEE02120122C7EF02120175
:1009A30022AAF002120122F1B10212012233B20291
:1009B30012012205B302120122DEB302120122D870
:1009C300B402120122BAB50212012223B6021201A5
:1009D30022D9B6021201224DB702120122B9B7027F
:1009E300120122E2B7021201225CB802120122F5BF
:1009F300B8021201225AB9021201226FB90212017E
:100A030022B5B902120122CEB90212012233BA026F
:100A130012012236BA02120122198A03120122415B
:100A23008A031201227F8A031201223D8B031201E2
:100A330022A48B03120122C08B03120122E88B0331
:100A4300120122188C03120122278C03120122A403
:100A53008C03120122CA8C03120122C5AA011201BE
:100A630022A3AC01120122D5AE0112012211AF0162
:100A73001201223EAF0112012228B001120122739A
:100A8300B001120122BEB001120122D0B001120145
:100A93002210B10112012245B10112012293B101C9
:100AA300120122C2B101120122E5B1011201223267
:100AB300B201120122B7B201120122D1B401120113
:100AC3002210B70112012251B701120122F3B8011A
:100AD30012012234B901120122A7B901120122FD28
:100AE300B901120122CF8D02120122CD8E02120111
:100AF300226695021201228797021201225299025D
:100B0300120122BA9A02120122314100120122E09B
:100B13004100120122264200120122664300120103
:100B230022FC440012012276450012012291450065
:100B33001201220C4600120122664700120122C64E
:100B43004800120122CC49001201222D4B00120150
:100B530022464B00120122A44B00120122924C00A8
:100B6300120122C54C00120122354D00120122AFA1
:100B73004D00120122F94D00120122C34E00120151
:100B830022984F00120122775000120122025100D5
:100B9300120122705100120122E451001201220FAE
:100BA3005200120122CE52001201223354001201CC
:100BB300225054001201226F54001201226055008A
:100BC300120122855500120122AF55001201222A7B
:100BD3005600120122845600120122ED5700120121
:100BE300229B5800120122DC5800120122B3E501B6
:100BF30012012201E6011201220DE601120122EB8C
:100C0300E6011201221CE7011201224DE701120144
:100C130022CDE70112012205E80112012257E80162
:100C230012012294E801120122B1EA01120122D732
:100C3300EC01120122C2EE01120122ACF0011201F9
:100C430022C52600120122B29601120122E2960168
:100C5300120122BB9D01120122409F011201223D7C
:100C6300A50112012225A60112012262A601120189
:100C73002285A601120122B6A601120122BFA601F6
:100C8300120122C9A601120122B7A701120122AD46
:100C9300A8011201220C59001201220B5D0012015E
:100CA30022115D001201224C6400120122656900C9
:100CB3001201229983031201229384031201220752
:100CC3008503120122458503120122B9850312010E
:100CD300223286031201223B860312012247860336
:100CE3001201225C86031201229A8603120122B0AA
:100CF3008603120122D4F502120122E1F502120148
:100D030022FBF5021201223AF60212012278F602C0
:100D1300120122DDF602120122F2F602120122FD75
:100D2300F6021201220AF70212012221F70212012E
:100D3300222FF7021201223AF70212012246F7028A
:100D430012012255F70212012260F70212012283D7
:100D5300F7021201222AF8021201223AF8021201C2
:100D63002254F80212012271F8021201228DF802B4
:100D7300120122B2F802120122BDF802120122D29C
:100D8300F802120122E6F80212012247F9021201C7
:100D9300224DF90212012253F90212012259F902DA
:100DA30012012271F902120122A4F902120122890D
:100DB300D7011201220DD801120122BCD801120160
:100DC300221BDA011201223CDC0112012228DD017F
:100DD3001201225DDD011201227FDD011201222EAB
:100DE300DE0112012226E0011201224FE00112016D
:100DF30022E1E00112012213E10112012220E101AB
:100E030012012277E1011201229DE1011201220A5E
:100E1300E4011201220DE50112012265E50112012F
:100E23002218C90112012222CA0112012209CB018F
:100E330012012213CB0112012235CB0112012241EF
:100E4300CB01120122DACC0112012209CD011201D8
:100E53002225CE011201227ECE01120122E4CF010E
:100E6300120122C3D0011201221FD1011201228CCF
:100E7300D101120122C7D10112012206D2011201AE
:100E830022BFD401120122D9D40112012265D50156
:100E930012012273D501120122CCD501120122DAEB
:100EA300D5011201224DD601120122B1D601120140
:100EB30022FBD60112012287F301120122A9F301B9
:100EC300120122CFF501120122E4F801120122FCE2
:100ED300F901120122AFFA0112012291FB01120161
:100EE300220797031201222C97031201229E9703D4
:100EF30012012245CA021201224ECA0212012257CE
:100F0300CA021201222ECB02120122DFCC021201ED
:100F13002215CD021201224FCD0212012285CD02EC
:100F2300120122BFCD02120122F3CD021201221FB0
:100F3300CE0212012268CE02120122A2CE021201B7
:100F430022EBCE0212012243CF0212012278CF02FA
:100F5300120122D3CF021201220DD0021201225E0E
:100F6300D00212012294D002120122CED002120129
:100F730022FCD0021201221FD10212012212A3036A
:100F83001201223EA30312012299A303120122A3F9
:100F9300A303120122B3A30312012250C2021201BE
:100FA300225AC20212012298C202120122E1C20293
:100FB3001201221BC30212012271C30212012292E7
:100FC300C30212012217C60212012220C602120115
:100FD300226BC60212012294C6021201229EC6028D
:100FE3001201220AC702120122A0C702120122EA39
:100FF300C7021201221AC802120122A3C802120157
:1010030022E3C8021201221BC9021201222DC902C6
:101013001201224CC90212012255C9021201221BDC
:10102300CA021201228EA0031201220A7E001201BB
:1010330022407E00120122767E00120122BF7F0031
:1010430012012248A5031201225EA50312012268A0
:10105300A503120122B2A50312012221FA021201F1
:101063002236FA02120122E9FA0212012229FB02B4
:1010730012012242FB0212012276FB02120122C359
:10108300FB02120122F7FB0212012239FC021201B8
:1010930022C19B03120122EA9B03120122139C0328
:1010A300120122AE9C03120122F09C03120122D9E9
:1010B300A403120122E58F031201220A90031201F5
:1010C30022349003120122ADA60312012288820169
:1010D300120122EC84011201229D86011201229F3A
:1010E3008701120122288801120122AC8801120112
:1010F30022D188011201220A8C011201227E8C0165
:101103001201226F8D01120122A98D01120122E920
:101113008D011201229C8F01120122EF8F01120116
:1011230022389001120122A69001120122D89001C7
:10113300120122F0900112012205920112012215DF
:1011430092011201223093011201225293011201E2
:10115300228893011201222C95011201226B950121
:101163001201228D96011201225CA2031201226D4B
:10117300A20312012264A603120122A3A6031201F1
:101183002270A703120122BDA303120122CDA303E0
:10119300120122E5A3031201224BA40312012290A0
:1011A3009E03120122159F031201227B9F0312014A
:1011B30022499A03120122729A03120122DD9A0331
:1011C3001201222E9B03120122879B03120122E0AC
:1011D3008603120122F586031201220B88031201F2
:1011E300228D88031201220189031201221B890324
:1011F3001201223289031201224589031201225D61
:1012030089031201227289031201229389031201B5
:1012130022E48903120122EFFF02120122EE94035A
:101223001201227E9503120122FC950312012286EC
:101233009603120122909603120122A4960312012F
:1012430022049703120122AC9803120122FC980393
:10125300120122859903120122EB9903120122B193
:101263009203120122DB9203120122A193031201C2
:10127300227C94031201225ABA0212012217BB02E2
:1012830012012252BB021201227ABB02120122DC9A
:10129300BB0212012228BC0212012288BC021201E5
:1012A300221BBD021201221ABE02120122A9BF0291
:1012B3001201222CC00212012293C002120122AA9F
:1012C300C002120122B4C102120122F2C1021201B0
:1012D30022008002120122608302120122E88402AA
:1012E3001201223F85021201225E8502120122DCD5
:1012F30085021201226C8702120122508802120118
:10130300225C8C021201222C8D02120122949F0373
:10131300120122A39F03120122C69F03120122FE80
:101323009F0312012230A003120122E2D80212010C
:101333002232DB0212012261DC02120122DDDD0214
:101343001201226CF102120122B1F102120122CE2A
:10135300F102120122CCF20212012241F302120124
:101363002242F4021201229BF502120122CEFF0156
:10137300120122F4A6031201222AA7031201225208
:10138300A703E066701008A3E066700A08A3E0668E
:10139300700408A3E06622C3E7960809E7960809E4
:1013A300E7960809E79622C3E09608A3E09608A308
:1013B300E09608A3E09622C008C3E096F50808A3C8
:1013C300E096420808A3E096420808A3E096450881
:1013D3007001D3D00822080808EAC0E0EBC0E08619
:1013E300F0E7A4FA180986F0E7A42AFA180986F0A8
:1013F300E7A42AFA180986F0E7A42AFA1986F0E77F
:10140300A4FBE5F02AFA190886F0E7A42BFBE5F024
:101413003AFA190886F0E7A42BFBE5F03AFA181814
:101423000986F0E7A4C5F02BFBE43AFA1908E7C5EF
:10143300F0C6A426F6E5F03BFBE43AFA1886F0E79B
:10144300A4F6E5F00826F6E43B08F6E43A08F6D0FD
:10145300E0FBD0E0FA22E4CFC0E0E4CEC0E0E4CD8C
:10146300C0E0E4CCC0E075F020E626F608E633F6EB
:1014730008E633F608E633F6181818EC33FCED33B8
:10148300FDEE33FEEF33FFC3EC9709ED9709EE97BB
:1014930009EF97191919400FFFEC97FC09ED97FD18
:1014A30009EE97FE191906D5F0BFECF709EDF70918
:1014B300EEF709EFF7191919D0E0FCD0E0FDD0E001
:1014C300FED0E0FF226016080808C6C313C618C67C
:1014D30013C618C613C618C613C6D5E0EA22700988
:1014E300080808226016181818C6C333C608C6337E
:1014F300C608C633C608C633C6D5E0EA22E627F6D1
:101503000809E637F60809E637F60809E637F6224A
:10151300E026F608A3E036F608A3E036F608A3E0D3
:1015230036F622E026F008A3E036F008A3E036F012
:1015330008A3E036F022C3E697F60809E697F60813
:1015430009E697F60809E697F622C3E096F008A3A2
:10155300E096F008A3E096F008A3E096F022E657A1
:10156300F60809E657F60809E657F60809E657F6B6
:1015730022E056F608A3E056F608A3E056F608A3C1
:10158300E056F622E056F008A3E056F008A3E05632
:10159300F008A3E056F022E0F608A3E0F608A3E083
:1015A300F608A3E0F622E6F008A3E6F008A3E6F0C7
:1015B30008A3E6F022E0FAA3E0FBA3E0FCA3E0FD2E
:1015C30022EAF0A3EBF0A3ECF0A3EDF022E0F8A302
:1015D300E0F9A3E0FAA3E0FB22E8F0A3E9F0A3EA31
:1015E300F0A3EBF022CAC0E0E6F0A308DAFAD0E0F9
:1015F300FA22CAC0E0E0A3C582CCC582C583CDC5AB
:1016030083F0A3C582CCC582C583CDC583DAE6D07A
:10161300E0CA22C3E498F8E499F91216578026C366
:10162300E49AFAE49BFBE920E7E9121657E498F8F9
:10163300E499F922C3E498F8E499F9121657E49867
:10164300F8E499F9C3E49AFAE49BFB22EB20E7CF91
:10165300E920E7E0B90010BB0008E88AF084F8AAA3
:10166300F022E4FBC8FA22EB70227B10C833C8C90E
:1016730033C9335007C39AC3DBF280069A50012A59
:10168300DBEAC833F4C8C933F4C9FA2275F008E4B5
:10169300C833C8C933C933C99AC99B5004C92AC9B5
:1016A3003BD5F0ECFBC833F4C8E4C9FA22600D085B
:1016B300C6A2E713C618C613C6D5E0F322600C080A
:1016C300C6C313C618C613C6D5E0F422700422603D
:1016D3000D18C6C333C608C633C6D5E0F418222591
:1016E3001810AF08F518400C15198008F5184002BA
:1016F3001519D2AF2200C0D0251810AF08F5185025
:101703000C05198008F51850020519D2AFD0D02264
:101713002518F58210AF08F518400C15198008F547
:101723001840021519D2AF851983222518F582E4D2
:101733003519F583222518F8E43519F9222518FA05
:10174300E43519FB222518FCE43519FD22E4732541
:1017530018C582C0E0E51934FFC583C0E0E518C3AE
:10176300958224F810AF088583198582188008852F
:101773008319858218D2AFCEF0A3E520F0A37808B1
:10178300E608F0A3DEFAEFF0A3E58124FAF8E60811
:10179300F0A3E608F0A3E608F0A30808E608F0A320
:1017A300E608F0A315811581D0E0FED0E0F815819D
:1017B30015811581E8C0E0EEC0E0222518C582C07E
:1017C300E0E51934FFC583C0E0E518C3958224F929
:1017D30010AF08858319858218800885831985824F
:1017E30018D2AFCEF0A3E520F0A37808E608F0A363
:1017F300DEFAEFF0A3E58124FBF8E608F0A3E608A0
:10180300F0A30808E608F0A3E608F0A31581158104
:10181300D0E0FED0E0F815811581E8C0E0EEC0E02D
:1018230022851983851882E0A3FEE0A3F5207808BA
:10183300E0A3F608DFFAE0A3FFE0A3C0E0E0A3C063
:10184300E0E0A3C0E0E0A3C0E0E0A3C0E010AF0885
:101853008582188583198008858218858319D2AFFC
:10186300D083D08202011F851983851882E0A3FEED
:10187300E0A3F5207808E0A3F608DFFAE0A3FFE091
:10188300A3C0E0E0A3C0E0E0A3C0E0E0A3C0E01099
:10189300AF08858218858319800885821885831986
:1018A300D2AFD083D08222C0D02518C582C0E0E554
:1018B3001934FFC583C0E0E518C3958224F310AF44
:1018C300088583198582188008858319858218D233
:1018D300AFC8F0A3E9F0A3EAF0A3EBF0A37908E71C
:1018E30009F0A3D8FAECF0A3EDF0A3EEF0A3EFF028
:1018F300A3D0E0F0A3D0E0F0A3D0E0F0A3E520F084
:10190300A3E5F0F0A322851983851882E0C0E0A344
:10191300E0F9A3E0FAA3E0FBA37808E0F608A3DF6D
:10192300FAE0FCA3E0FDA3E0FEA3E0FFA3E0C0E038
:10193300A3E0C0E0A3E0F5D0A3E0F520A3E0A3F586
:10194300F010AF088583198582188008858319856F
:101953008218D2AFD082D083D0E0F8D0E0327404C2
:101963008006740280027401C0E0F404121713D0DD
:10197300E01215E8227404800474028000CCC0E0F5
:10198300EDC0E0E518C39CCCAD1950011D10AF06A6
:101993008C188D1980068C188D19D2AF1215F5D0BD
:1019A300E0FDD0E0FC22D083D082E9C0E0E493A341
:1019B300C386F0C5F095F0F908E493A386F0C5F06B
:1019C30095F0700BE493A3C3994005E9048002A347
:1019D300E475F002A42582F582E5F03583F583D022
:1019E300E0F9E493A3C0E0E493C0E022D083D08283
:1019F300ECC0E0EDC0E0E493A3FCE493A3FDED4C65
:101A0300600D121A3BEC24FFFCED34FFFD80EFE484
:101A130093A3FCE493A3FDED4C600D121A7AEC241E
:101A2300FFFCED34FFFD80EFD0E0FDD0E0FCE4935C
:101A3300A3C0E0E493C0E022C0E0C3E4939608743B
:101A430001939618400FE493667008087401936637
:101A53001870007019A3A3C3E493960874019396B6
:101A630018A3A3400DD0E0D0E0D0E0021A2BA3A32B
:101A7300A3A3A3A3D0E022C0E0C0F088F0E4936660
:101A830070080874019366187000A8F0A3A3700B84
:101A9300D0F0D0E0D0E0D0E0021A2BA3A3D0F0D056
:021AA300E0223F
:101AA80074F51217BEEAFEEBFFEE2434F8EF3400AB
:101AB800F988088909EE2435F582EF3400F583E0CA
:101AC800F8EE2437F582EF3400F583E0F50AEC856B
:101AD8000AF0A4FCAAF0850AF0EDA42AFDE82CF887
:101AE800E43DF97A257B00121657EA8508828509B4
:101AF80083F0F8740758F97401B900028004C333FD
:101B0800D9FCFAE8131313541FF8EE28F8EF340041
:101B1800F9E8245DF582E93400F583E05A6008EEBF
:101B28002434F582EF802CEE2434F582EF3400F56E
:101B380083E0C0E0EE2436F582EF3400F583E0F56B
:101B4800F0D0E084A8F0EE28F8EF3400F9E8243863
:101B5800F582E93400F583E0F97F0402186A74F528
:101B68001217BEEAFEEBFFEE2434F582EF3400F5DF
:101B780083E0C0E0EE2435F582EF3400F583D0E051
:101B8800F08E828F83A3A3A3A3A3A3A3C082C08341
:101B98008E828F83A3A3A3A3A3E0F8A3E0F9D08345
:101BA800D082E0C398F508A3E099F509EE247FF503
:101BB80082EF3400F583E064017069EE2480F582D9
:101BC800EF3400F583E0F8A3E0F98E828F83A3A3B6
:101BD800A3A3A3A3A3E0FCA3E0FD8E828F83A3A30A
:101BE800A3A3A3E0FAA3E0FBC3EA9CEB9D5010C3B8
:101BF800EC98ED99402EC3EA98EB995027800EC3D4
:101C0800EA98EB994007C3EC98ED9940177CDC7D86
:101C180004EEFAEFFB120B9FEE247FF582EF3400FF
:101C2800F583E4F0EE2434F8EF3400F9E8FCE9FD3C
:101C3800EE2435F582EF3400F583E0F8EE2437F52D
:101C480082EF3400F583E0F50AE508850AF0A4F58B
:101C580008AAF0850AF0E509A42AF509E82508F894
:101C6800E43509F97A257B00121657EA8C828D83B0
:101C7800F0F8740758F97401B900028004C333D925
:101C8800FCFAE8131313541FF8EE28F8EF3400F9A0
:101C9800E8245DF582E93400F583E05A6008EE2413
:101CA80034F582EF802CEE2434F582EF3400F5838E
:101CB800E0C0E0EE2436F582EF3400F583E0F5F07D
:101CC800D0E084A8F0EE28F8EF3400F9E82438F5DD
:101CD80082E93400F583E0F91225BD021B61C08258
:101CE800C083851882851983E0F8A3E0F9C3EA9CCC
:101CF800EB9D5010C3EC98ED99401BC3EA98EB9903
:101D08005014800EC3EA98EB994007C3EC98ED99FC
:101D18004004790180027900D083D08222EAC39CF2
:101D2800FAEB9DFB2274EF1217BE9003A2E0640841
:101D38006005E06407702A9061C8E060249003D0D1
:101D4800E0F4601DE0F875F003A4C8AAF02AF9745D
:101D5800D228FE740339FF8E828F83A3A3A3E07079
:101D680003021E5D906060E0C0E0EE2468F582EF3B
:101D78003400F583D0E0F0750C45750D0575080045
:101D8800750900E5D914F50AE5D95403F50E60176D
:101D98007403650E605CE50A6010EE2467F582EF57
:101DA8003400F583E07003021E42900540E06401B0
:101DB800602AEE2482F582EF3400F583E06004782F
:101DC8000480027800850A08E508C398FA95E0FBC4
:101DD800120A6D8A088B09EA45097005120D91806F
:101DE80074EE2482F582EF3400F583E070048A0CE7
:101DF8008B0DE50A6012850C82850D83F50BE5D9FC
:101E0800F0A3150BE50B70F6EE2482F582EF340093
:101E1800F583E0604474FC250AF50A780C1219650C
:101E2800AC0AA90EEEFAEFFB120C3B74021216F87C
:101E3800E97026AA08AB0912124D793D8E828F836C
:101E4800A3A3A3A3E0FA7B00120941EEFAEFFB1269
:101E58000BB7120C4D790080747403650E605685BB
:101E68000A107511007810121965AC0CAD0DAA088E
:101E7800AB09120C1774021216F8EE2468F582EFFB
:101E88003400F583E064807004747F8001E0F50C11
:101E9800780C121969E50EF50C780C121969A90A63
:101EA800AC08AD099003D0E0FA7B00120905740272
:101EB8001216F880139003A2E06408600BAC0CAD16
:101EC8000DEEFAEFFB120CA7120D9D79017F0A02A5
:101ED800186A74F51217BE74FC1216E2EAFEEBFFDC
:101EE8008908A2AFE433F509C2AF806AEE2463F82B
:101EF800EF3400F97A007B00A2AFE433F50AC2AFF1
:101F080088828983E0FCA3E0FDEC4D603A888289F1
:101F180083E0FAA3E0FB8A828B83E0FCA3E0FD88E0
:101F2800828983ECF0A3EDF08A828B83E4F0A3F03E
:101F380088828983E0FCA3E0FDEC4D700A888289E1
:101F480083A3A3E4F0A3F0E50AA2E092AF12124D36
:101F58009004E3E004F0EE2463F582EF3400F583A7
:101F6800E0F8A3E0F9E849603DEE2463F582EF3438
:101F780000F583E02402FAA3E03400FBEA2402F52A
:101F88000AEB3400F50B780A1219658A828B83E014
:101F9800FCA3E0F9EEFAEFFB120BDB74021216F861
:101FA800E97003021EF49004E3E060639004E4E047
:101FB800F89004E3E0C398500C74026508705090E0
:101FC80004E5E0604A8E828F83A3A3A3A3E085186B
:101FD80082851983F0A3E4F09004E3E0F874021218
:101FE800172EE8F0A3E4F09004E3E0F89004E2E0B0
:101FF80028F0740212172EAC82AD838518828519D9
:1020080083AA82AB8379011209119004E3E4F0E515
:1020180009A2E092AF74041216F8021B61000000D6
:102028008521878522C622C0E0C0D0E8C0E0E9C08B
:10203800E0EAC0E0EBC0E0ECC0E0EDC0E0EEC0E0FC
:10204800C008C009C00AC00BC082C083C0F0A2AFDC
:10205800E433FEC2AF759B00906182E0A2E05012AB
:10206800E591A2E0500C7591FE7401652170031290
:102078001D2DE0A2E55051E591A2E5504B7591DF89
:102088009003A2E064076005E064087023740165AA
:1020980021703579019003D0E0FA75F003A4CAA83D
:1020A800F028FB74D22AFA74033BFB121EDA80185C
:1020B800E0640D70139003C4E004F064287002E437
:1020C800F07A00E0F9120DA3906182E0A2E64003E5
:1020D800022176E591A2E640030221767591BF9030
:1020E80003A2E064057008120CD1120CDD80031203
:1020F8000CD7752100120D31E99003A3F079001275
:102108000D25120B157A017B009003A1E0F9120F3F
:10211800FB907803E064427055900544E014F07039
:102128004DC2AF12212E00782AD0E0F618D0E0F682
:10213800E59F540770057509FF800375097FC4C0C2
:10214800E07829E6F50808E65509F509740B7808DA
:102158001216C0D0E02508F8906270E0A2E740F8B7
:10216800E8C333906272F0906270E0D2E0F0906160
:1021780081E0A2E35009E5E9A2E3500375E9F7A37A
:10218800E0A2E75009E591A2E7500375917FEEA21E
:10219800E092AFD0F0D083D082D00BD00AD009D053
:1021A80008D0E0FED0E0FDD0E0FCD0E0FBD0E0FAC3
:1021B800D0E0F9D0E0F8D0D0D0E032C0E0C0D0C054
:1021C80082C083906183E0A2E05009E5BFA2E0509D
:1021D8000375BFFEE0A2E15009E5BFA2E150037517
:1021E800BFFDE0A2E25009E5BFA2E2500375BFFBC4
:1021F800E0A2E35009E5BFA2E3500375BFF7E0A2F0
:10220800E45009E5BFA2E4500375BFEFE0A2E55032
:1022180009E5BFA2E5500375BFDFE0A2E65009E576
:10222800BFA2E6500375BFBFD083D0828088C0E0CC
:10223800C0D0E8C0E0E9C0E0EAC0E0EBC0E0ECC034
:10224800E0EDC0E0C0F0E5A7A2E6500FE5A1A2E6E8
:10225800500953A7BF75A1BF12229BE5A7A2E5505D
:102268000CE5A1A2E5500653A7DF75A1DFE5A7A2FB
:10227800E15009E5A1A2E1500375A1FDE5A7A2E29D
:10228800500CE5A1A2E2500653A7FB75A1FBD0F0C4
:102298000221AC74F81217BE7521019003A2E06404
:1022A800067015120C6B8A828B83A3A3A3A3A3A326
:1022B800E0FAA3E0FB120CBFA2AFE433FED2AF906A
:1022C80003A8E0640170187A207B009003A1E0F96C
:1022D80012107F7A207B009003A1E0F91210019080
:1022E8006182E0D2E6F0900541E0602185C6228057
:1022F800169003A7E064017008E5C654F84405F594
:10230800C653BEFC1220287401652160E4EEA2E0E9
:1023180092AF7F0102186A008E238F248582288558
:102328008327851882851983E0CEA3E0CF8528828C
:10233800852783EBC9EAC8EDCBECCA75F010C3E872
:1023480033C8E933C9EA33CAEB33CBC3EA9EF5266F
:10235800EB9FF525B35004AB25AA26EC33CCED331F
:10236800CDD5F0DAAE23AF242274ED1217BE8A0859
:102378008B098C0A8D0B741312172E780C12159A70
:102388007808790C12139A7510017511C875120026
:1023980075130050127808790C12153978107908DD
:1023A80012139A50168010780C7908121539781083
:1023B800790C12139A40047901800279007F0C028B
:1023C800186A74ED1217BE8A088B098C0A8D0B7473
:1023D8001312172E780C12159A780C790812139A82
:1023E80040117808790C121539AA08AB09AC0AAD66
:1023F8000B80227510007511007512007513017895
:1024080010790C12153978107908121500AA10AB3A
:1024180011AC12AD1380A68A828B837508FF7509EB
:10242800FF750AFF750B0078081215877F040218DC
:102438006A74F51217BE8C828D83780812159A8AF1
:10244800828B83780812154DEA2404F8EB3400F9DE
:102458008C828D83A3A3A3A3E0FCA3E0FD888289DB
:1024680083C3E09CF0A3E09DF088828983C3E09455
:1024780020A3E0944E40268A828B837508FF750955
:10248800FF750AFF750BFF78081215268A828B8361
:10249800A3A3A3A3E02420F0A3E0344EF002241F5A
:1024A80074F51217BEE9FE9004F7E0FAA3E0FBEE1C
:1024B800C333F8E433F9742228F582748139F5833B
:1024C800E02AF508A3E03BF50978081219657A4077
:1024D8007B427C0F7D0012232074021216F88A08B2
:1024E8008B098C0A8D0B741078081214C8AA08ABD3
:1024F800097F0402186A74F11217BE8A0C8B0D8CBE
:102508000E8D0F740F12172EE0FAA3E0FB74111250
:10251800172EE0F508A3E0F5097808121965EA24F2
:1025280001F508EB3400F509E4F50AF50B780C79A8
:10253800081213D9750871750902780C79081213F5
:10254800D9AA0CAB0DAC0EAD0F12232074021216D3
:10255800F88B09EA450960047A0180027A00EC2ABE
:10256800FCED3400FD741312172EE0F8A3E0F9E82F
:10257800FEE9FFECF8EDF97A717B0212165788082C
:1025880089098E828F8378081215A9ECF8EDF97AFB
:10259800717B021216578A088B097405780812167F
:1025A800CF8E828F83A3A3A3A3E508F0A3E509F048
:1025B8007F0802186AC082C083E9906000F0D08367
:1025C800D08222C2AF02000022C0E074F21218AA20
:1025D800A2AFE433FED2AFC2C0E5D1A2E4500653A5
:1025E800D1EF121241EEA2E092AF7F01021909C0A9
:1025F800E074F21218AAA2AFE433FED2AFE589A2C2
:10260800E150031211C9758900C2C5EEA2E092AF6C
:102618007F01021909C0E074F21218AAA2AFE433CC
:10262800FED2AFE58BA2E050031211C9758B00C230
:10263800E880D8C0E0C0D0E8C0E0E9C0E0E5A8D2B2
:10264800AFC2C7A2E7A2E792AFD0E0F9D0E0F8D0D6
:10265800D0D0E032C0E0C0D0E8C0E0E9C0E0C008B7
:10266800C009C082C083A2AFE433F9D2AF9009D3C6
:10267800E0F8A3E0687008539AFBA374018025C2B0
:10268800E99009D3E0F50874012508F0745325088A
:10269800F582E43409F583E0F5C19009D3E0C394E9
:1026A800804002E4F0E9A2E092AFD083D082D00962
:1026B800D008D0E0F9D0E0F8D0D0D0E03202011F45
:1026C800FFFFFFFFFFFFFFFFC082C083E9900B8180
:1026D800F002295F74F7121752E99002E1F07C19B1
:1026E8007D037AFF7BFF1208579002E274FFF0A384
:1026F800F0A3E4F0A3F079051207DF9002E1E0F916
:102708001207017A757B08120A1F7F0102182474C8
:10271800F41217528A088B09EB548060309002E15A
:10272800E0F9120FE38A0A8B0BAE0AAF0BEE4F608B
:10273800138E828F83E064B070031207F7EEFAEF0E
:10274800FB120FD1AA08E5096480FB80047A007B9C
:102758000002292E74F212175274FC1216E2EAFED5
:10276800EBFFEE4F6038740212172EEEF0A3EF1253
:102778002B93ECF0A3ED122B93AA82AB831206FBEA
:10278800E9F5087073741212172E123747E50A45D7
:102798000B60658E828F8312280AEE4F70057508CC
:1027A8000280557A067B001210378A0C8B0DA80C14
:1027B800A90DE8497005750813803D88828983E46E
:1027C800122814A3A3EEF0A3EF123BE0E50AF0A34E
:1027D800E50BF09002E712289C9002E76017E0FCF6
:1027E800A3E08003EAFCEBFD8C828D8312289C70A9
:1027F800F38C828D8312366CA90874041216F802C1
:102808003DE2A3A3A3A3E0FEA3E0FF22F0A3F08888
:102818008289832274F2121752890AE975F017A483
:10282800FEAFF09002E6E4F09002E412289C600A01
:1028380012103D9002E4E4F0A3F0EEFAEFFB121060
:10284800378A088B09EA4509602FEEFCEFFD79000D
:10285800120FB99002E4E508F0A3E509F07B0080C7
:1028680008122886E4F0A3F00BEBC3950A40F2E5C2
:102878000A9002E6F0790080027913023DE2EB75D6
:10288800F017A4F8A9F09002E4E028FAA3E0398A46
:1028980082F58322123402EA4B2274F4121752751D
:1028A8000800750900740C12172E123BB4FEE9FFDC
:1028B800800CE5082401F508E5093400F509C3E5AD
:1028C800089CE5099D503285080A85090B74037830
:1028D8000A1216CFEA250AF8EB350BF988828983A4
:1028E800A3A3A3A3A3A3123747EE650A7003EF655A
:1028F8000B70BFE8FAE9FB80047A007B008027743C
:10290800F41217527900EAA2E0501B7508FA75090B
:102918008178081219657C047D007A837B0B120785
:10292800D974021216F87F04021824C082C083905A
:1029380002E7122966601C88828983A3A3E06A7073
:1029480003A3E06B8882898370E8A3A3A3A312334F
:10295800FE80047A007B00D083D08202011F123EE1
:10296800B5E8492274EE12175274FC1216E2EAFE18
:10297800EBFF851882851983E4F0A3F0EE24021298
:102988003650EE2405122B81EE2404F50EEF122F9B
:1029980066E024FE603924FC604624FE605224FE72
:1029A800605E24FE7003022A8624FE7003022AFE5B
:1029B80024FE7003022B0D24FE7003022B1C24FC42
:1029C8007003022B2B24FE7003022B3A022B779004
:1029D80003007417F0A3E4122B9B120479022B77DF
:1029E800851882851983AC82AD831207FD022B47B7
:1029F800851882851983AC82AD83120803022B47A0
:102A0800850C08850D09740212172EAC82AD8385DA
:102A180008828509831233FE12071F8A0C8B0DACBE
:102A28000CAD0DEC4D6042E4F50CF50D780C121967
:102A380065750C00750D03780C121965750C017518
:102A48000D03780C121965740812172E12197C7967
:102A5800161233F812083F74081216F8E9F50C70CC
:102A68000B1233F4120491800F750C0185088285CE
:102A78000983122B8912366C850C08022B4A7402C2
:102A880012172EAC82AD83850C82850D831233FE1E
:102A980012071F8A108B11AC10AD11EC4D604385E5
:102AA8000C82850D83A3A312197C75100075110380
:102AB80078101219657510017511037810121965CF
:102AC800740812172E12197C79161233F812083F5F
:102AD80074081216F8E9F509700B1233F41204970A
:102AE800800F750901850C82850D83122B8912369A
:102AF8006C850908804C851882851983AC82AD8362
:102B0800120809803A851882851983AC82AD831230
:102B1800080F802B851882851983AC82AD83120833
:102B280015801C851882851983AC82AD8312081B19
:102B3800800D851882851983AC82AD83120821E93E
:102B4800F508E50860298E828F83A3E06414601F6E
:102B5800850E82850F83E0900300122B93123EB1FD
:102B680090030112366CE508A3122B9B120473EE36
:102B7800FAEFFB12079D023558F50CEF3400F50DFE
:102B880022123EB585188285198322F08518828520
:102B9800198322F07C007D03850A82850B83123419
:102BA800022274EE12175274FC1216E28A0A8B0B78
:102BB8008C0E8D0FEA2405F508EB3400F5097C1519
:102BC8007D0079007A007B03120FB9E5082402F52D
:102BD8000CE509122B848518828519838582108556
:102BE80083117810121965850882850983A3A3A328
:102BF800A31230AE121965E5082405F510E509346D
:102C080000F5117810121965850C82850D83123430
:102C18000812071974061216F88A108B11AE10AF35
:102C280011E50A2402F50AE50B123653EE4F70033C
:102C3800022D708017740212172E1233FE888289B3
:102C480083EAF0A3EBF0900300E004F0900300E0C7
:102C5800C394054003022D70E4F510F511781012A5
:102C680019657510E975110278101219657510EA61
:102C78007511027810121965740612172E12197C34
:102C88007910EEFCEFFD1233F812083F74081216A3
:102C9800F8E9705E850882850983A3A3A3A3A3A38B
:102CA800A3E0F89002E9E06870481230AE121965A6
:102CB8007CEA7D02E5082408FAE5093400FB120FD6
:102CC800B374021216F8E960298E828F83A3A3A336
:102CD800A31233FE900300E0F51074027810121668
:102CE800CF74012510F58274033511F583EAF0A33A
:102CF800EBF0740212172E8582108583117810125A
:102D08001965740212172E12197C850C82850D83A1
:102D1800123EC612072574041216F88A108B11AEDB
:102D280010AF11900300E0F51075110074027810CF
:102D38001216CF74002510F874033511F9888289AA
:102D480083A312289C7003022C34E82403F8E93486
:102D580000F9EE4F6003022C3D8882898374FFF0EE
:102D6800A3F0900300E004F0900300E0600A12333F
:102D7800F41204857900800B850882850983123650
:102D880063790A02355874EA12175274FE1216E271
:102D98008C128D13EA2405F50CEB12403012280E24
:102DA800750800750900EA2402F510EB3400F511E6
:102DB80085188285198385820A85830B780A1219FA
:102DC80065850C82850D83A3A3A3A3122F70121906
:102DD80065E50C2405F50AE50D123653780A121933
:102DE80065850C82850D83123EC41207197406127C
:102DF80016F88A0A8B0BEA450B7003022F21EA2486
:102E080004F50EEB122F6612280E8A828B83A3A379
:102E1800A3E0F98510828511831233FE120707E9B2
:102E2800F5096003022F21E4F514F5157814121939
:102E3800657514E975150278141219657514EA7523
:102E480015027814121965740612172E12197C7956
:102E580013AC0AAD0B8510828511831233FE12085C
:102E68003F74081216F8E9F5096003022F21900251
:102E7800E9E0F8E5087009E02402900301F0801702
:102E8800900301E0FCE82402FAE43400FBEA6C70E9
:102E980001EB6003022F25850882AA821230A594CF
:102EA8001412309D5073850E82850F83E0C0E07444
:102EB800022A122F5DD0E0F00508850E82850F8367
:102EC800A3E0C0E085080A7402250A122F5DD0E04D
:102ED800F005089002E9122F701219657CEA7D024C
:102EE80085080A7402250AFA74033400FB120FA13C
:102EF80074021216F89002E9E02508F50874FF6ECE
:102F0800700374FF6F6012EE24010EEF3400FFE5CA
:102F180008C394145003022DB8E50860131232E96F
:102F28008510828511831233FE12048B7900801478
:102F3800E509700375090A851282851383EEF0A3EB
:102F4800EFF0A90974021216F87F0E0218248508FA
:102F58000C7402250CF58274033400F583223400C6
:102F6800F50F850E82F58322123BF32274EE1217B9
:102F78005274FE1216E28C0E8D0FEA2405F50CEB46
:102F8800122B84750B00900300E4F0F50AEA240282
:102F9800F508EB3400F5098049900300E0FA900247
:102FA800E9E0F81230A5941712309D400D90030007
:102FB800E0F87416C3989002E9F01230AE12196561
:102FC8007CEA7D0274012AFA74033400FB120FA113
:102FD80074021216F89002E9E0F8900300E028F075
:102FE800050AE50C2416F582E50D122F61E0F8E5D7
:102FF8000AC3984003023086900300E0C394165039
:103008007DE50AC333F8E433F9E50C28FEE50D390C
:10301800FF851882851983AC82AD838E828F8312D7
:1030280033FE12071F8A108B11AC10AD11EC4D70D6
:1030380005750B018043E4F510F511781012196538
:103048007510E975110278101219657510EA751175
:10305800027810121965740612172E12197C791647
:103068008508828509831233FE12083F74081216F8
:10307800F8E9F50B7003022FA112365F80107C006F
:103088007D038508828509831233FE12049DA90BEE
:10309800740202355AE99400C365D03322EA28F84D
:1030A800E43400F9E822E0F5107511007810227474
:1030B800EA12175274FC1216E28A0C8B0D8C128DD0
:1030C80013EA2405F50AEB12365375080075090052
:1030D800E50A2402F510E50B3400F5117402121705
:1030E8002E85820E85830F780E121965850A8285D2
:1030F8000B83A3A3A3A3123B9F121965E50A24051A
:10310800F50EE50B3400F50F780E1219658510825F
:103118008511831236591233F812071974061216DC
:10312800F88A0E8B0FAE0EAF0FE50C2402F50EE5F4
:103138000D3400F50F80408882898374FFF00508FC
:10314800122F5674FFF005089002E9E0F50C750D92
:1031580000780C1219657CEA7D0285080C7402253A
:103168000CFA74033400FB120FA174021216F890C3
:1031780002E9E02508F508EE4F60718E828F83A37F
:10318800A3A3E0F9850E82850F831233FE12070789
:10319800E9F509EE2404122B81E97044E4F514F5ED
:1031A8001578141219657514E97515027814121931
:1031B800657514EA751502781412196574081217E2
:1031C8002E12197C7911EEFCEFFD850E82850F8396
:1031D8001233FE12083F74081216F8E9F509602741
:1031E800850C82850D831232DF12366CE508700378
:1031F8000232C51232E9850E82850F831233FE1220
:1032080004A379000232DA850882AA82EA9002E9E8
:103218007009E02404900301F08022E0F890030193
:10322800E0F514E82404FCE43400FDEC65147001B6
:10323800ED70C01230A5941212309D50B6850C82E4
:10324800850D83E0C0E074022A122F5DD0E0F005FE
:1032580008850C82850D83A3E0C0E0122F56D0E0CC
:103268001232FB85820C85830D780C121965740463
:1032780012172E12197C851082851183123EC612F0
:10328800072574041216F88A0C8B0DAE0CAF0D8549
:10329800080C7402250CF874033400F9EE4F70031F
:1032A80002313F851882851983E08882898312322A
:1032B800FBA3E0C0E0122F56D0E002314DE50970C3
:1032C8000375090A850A82850B831232DF12366C70
:1032D800A9097404022F4E123EB585128285138304
:1032E80022900301E0F5F0E50884900300F07C00EB
:1032F8007D0322F005088518828519832274EC1253
:10330800175274FE1216E28A088B098C0E8D0FEA8A
:103318002405FEEB3400FF851882851983AC82AD45
:10332800838E828F831233FE12071F8A0A8B0BEE5D
:103338002418122B81EA450B70030233CF12354152
:1033480050328518828519831233FE1208338A1089
:103358008B11EA4511606B7912AC0AAD0B850882B6
:103368008509831233FE851082851183121750E96F
:10337800F50A7058E4F50AF50B780A1219658E8279
:103388008F83A3A3E0F50A780A121965EE240312C5
:103398003650780A1219658E828F83123408120803
:1033A8004574061216F8E9F50A7021850C82850D18
:1033B80083E0701F8508828509831233FE1204A9F1
:1033C8008011750A0E8009750A018004E50A6003F8
:1033D80012365F850C82850D83E0600479008002D7
:1033E800A90A74021216F87F0C0218247C007D03C7
:1033F800850A82850B8312340222E0FAA3E0FB22BD
:10340800E0FCA3E0FD85088285098312340222745A
:10341800EE12175274FE1216E28A088B098C0C8D74
:103428000DEA2405FEEB3400FF750E008518828531
:103438001983AC82AD838E828F831233FE12071FED
:103448008A0A8B0BEA450B700302352D1235415061
:10345800358518828519831233FE1208338A0E8B3C
:103468000FEA450F605E7912AC0AAD0B85088285BC
:1034780009831233FE850E82850F83121750E9F5F2
:103488000E6003023530850882850983123747AA02
:103498000AFB1208278A108B11A810A911E8497095
:1034A8001E7AFF7BFF1208278A108B11A810A9111A
:1034B800E849606C88828983E50AF0A3E50BF0751A
:1034C8000A008007750E0E805F050A9002E6E0FA92
:1034D800E50AC39A504AE50A75F017A4FAABF088D2
:1034E800828983A3A3E02AFAA3E03BFB8A828B8329
:1034F800123659EC4D70D2750A17750B00780A12FE
:103508001965EEFCEFFD120FA174021216F8EEFC1D
:10351800EFFD8508828509831233FE1204AF8014FB
:10352800750E098003750E01123EAD850C82850D5E
:103538008312366CA90E023098E5082402F508E5D6
:10354800093400F5098A828B83A3A3A3E0A2E522AC
:1035580074041216F87F0A02182474EC1217528C9D
:10356800108D11EA2405F50CEB122B84750F00EA77
:103578002402F50AEB123653850A82F5831233FECC
:103588001208278A088B09EA45097003023645752F
:103598000E008071850C82850D83E06401704F8E6A
:1035A800828F83A3A312197C8E828F83A3A3A3A3E4
:1035B800E0F5127513007812121965EE2405F5125C
:1035C800EF3400F51378121219651233F812084512
:1035D80074061216F8E9F50F6014850C82850D83C0
:1035E800E4F0123EAD85108285118312366C7C178B
:1035F8007D007900EEFAEFFB120FB98E828F83E41B
:10360800F0A3F0050E9002E6E0F8E50EC398501E10
:10361800E50E75F017A4F8A9F0850882850983A33B
:10362800A312403A123659EC4D600302359C8508C6
:103638008285098374FFF0A3F0E50F70061233F852
:103648001204B5A90F0233EFF50AEF3400F50B2287
:10365800A3E0FCA3E0FD228E828F83123EB5850E87
:1036680082850F83E8F0A3E9F022C082C08390022C
:10367800E2E06A7003A3E06B70067AE27B028004E2
:103688007A007B0002295FC082C08378008C828D1B
:1036980083E06A7003A3E06B7010E875F003A4F888
:1036A800A9F0EC28FAED39FB8015088C828D83A3EC
:1036B800A3A3E06A7003A3E06B60DF7A007B0002DB
:1036C800295F74F61217521207F18A828B83E582FA
:1036D800458370067A007B008007A3A3A3A3123357
:1036E800FE023D5E74F2121752E9FE740E12172E96
:1036F800123747741012172E123BBF8C828D83E04D
:1037080064027036A3123EBBF50CA3E0F9A80C7452
:10371800026870037429697021750C02750D0078B0
:103728000C1219657808121965780A121965EEF9EC
:1037380012086974061216F880027901023DE2E067
:10374800F50AA3E0F50B2274E812175274FB12165F
:10375800E2E9851882851983F08A168B17ECFEED4D
:10376800FF751000741D12172E123EB1741D12172A
:103778002E12366C8E828F83A3A3A3E0A2E4502D71
:10378800741D12172E1233FE1208338A828B83E5BA
:103798008245837003023B90790AEEFCEFFDAA167E
:1037A800AB17121750E9F5106003023B93741F1210
:1037B800172E123BBF742112172E1237477423128B
:1037C800172EE0F50EA3E0F50F8E828F83E06402DA
:1037D8006003023B3EA3123EB1850882850983A39C
:1037E800858212858313EE2406122B8188828983B1
:1037F800E0FAA3E0F9EA2400F514E439F5157814A1
:103808001219EF010000280128333807000228F8B0
:10381800380328653800292F3A01295A3A0229FB2A
:103828003903292F3A0429D93A3E3BE50E450F6062
:1038380003023B39850C82850D83123BB4FAE9FB00
:103848008A828B83E0850A82850B83123BEA1219F0
:10385800658A828B83A3E0FCA3E0023AC3E50E45A8
:103868000F6003023B39850A82850B837401F012CD
:103878003BC7850882850983F07C007D008E828F96
:1038880083A3A3A3A3E02401FAA3E03400FB120757
:103898001FEA4B60418A828B83E02402F8850A8202
:1038A800850B83E028F0EA2404F8EB3400F98882D9
:1038B8008983E0851282851383123BFC123BEA124E
:1038C80019658A828B83123658E5082403FAE509BC
:1038D8003400FB023AC8850A82850B83E02404F091
:1038E8007C047D007900AA12AB13120FB9023B9336
:1038F800E50E450F6003023B39123BC7FEA3E0FF0C
:10390800850A82850B837404F0EE85088285098315
:10391800F0EF851282851383F0740312172EAC82A0
:10392800AD83EEFAEFFB12071F8A0C8B0DEA450DEB
:1039380070030239DC8A828B83A3A312280A7401DC
:1039480012172E85820E85830F780E12196574055D
:1039580012172E12197C7CFF7DFF120725740412A2
:1039680016F88B0FEA450F7033850C82850D83128C
:103978003B9F121965850C82850D83A312197C7CE7
:10398800027D007A547B8212055174041216F8E9FC
:10399800700A740112172E74FFF0A3F08E828F83C1
:1039A800E064027039750C02750D00780C12196507
:1039B8008E828F83123658E5082404FAE50934000C
:1039C800FB120FA174021216F8850A82850B83E098
:1039D80024028009740112172EEEF0A3EFF074018F
:1039E80012172E123BB0F0740112172EA3123BA827
:1039F800023B33E50E450F6003023B39850C828597
:103A08000D83123659AA16AB1712085D850A8285EE
:103A18000B837402F0EA850882850983F085128297
:103A2800851383EB023B36E50E450F6003023B39F5
:103A3800123BC7F8A3E0F9850A82850B837402F06C
:103A4800E8850882850983F0E98512828513830257
:103A58003B36850C82850D831233FE120F9BEAFCE0
:103A68008C82A882C3950EE4950F405FE8650E70BE
:103A780002E50F70047C008022851882851983E096
:103A8800FAE50E2AFAE50F3400FBC3EA98EB940036
:103A98005003E08005E50ECCC39CFCEC850A8285CA
:103AA8000B83F08C0A750B00780A121965850C8255
:103AB800850D83E0250EFCA3E0350FFDAA08AB09B0
:103AC800120FA174021216F8023B93751007023BFD
:103AD80093E50E450F705A850C82850D83123EB111
:103AE800850A82850B837407122816123BA81228B0
:103AF80016A3E0851282851383F0E82402FAE934DC
:103B080000FB8A828B83123BA8123BD7123BB0A3DF
:103B1800123BE0123BB9F0E82405F8E93400F988D3
:103B2800828983123BB9A3123BFCA3A3A3A3F08011
:103B38005A75100B8055741D12172E1233FE12077A
:103B4800F18A828B83E5824583603D123EB1880C01
:103B5800890DE8450D6031780E121965780A121939
:103B6800657808121965740612172EE0F9EEFCEF55
:103B7800FDAA16AB17850C82850D831217507406A3
:103B88001216F8E9F510800375100EA910740512C5
:103B980016F87F10021824E0F50E750F00780E2233
:103BA800E085088285098322123C0622123EB5E888
:103BB80022123C06A3A322E0F508A3E0F50922851A
:103BC8000C82850D83E0F8A3E0F5838882E022A3C8
:103BD800A3F08A828B83A322F088828983A3A3A37C
:103BE800A322F08A828B83123BF322E0F50A750B3D
:103BF80000780A22F088828983A3123C0622E08595
:103C08000882850983A3A32274EE12175274FE1248
:103C180016E28A0A8B0BECFAEDFB741412172EE0ED
:103C2800F510A3E0F511741612172EE0FE741812A1
:103C3800172EE0F50EA3E0F50F851882851983ACE1
:103C480082AD8312071F8A0C8B0DEA450D604985EA
:103C580018828519831233FE1207F18A828B83E555
:103C6800824583602FA3A3123BBFE5084509602462
:103C7800780E1219657810121965EEF9AC0CAD0DB5
:103C8800AA0AAB0B8508828509831217507404129F
:103C980016F88006790E8002790102309874F612BF
:103CA800175274FE1216E2740C12172E123BB485CA
:103CB8001882851983F0740112172EE9F0E4F508CB
:103CC800F5097808121965750802780812196574DB
:103CD8000412172E8582088583097808121965123F
:103CE800084574061216F874021216F8806874F7FC
:103CF800121752EAFEEBFF89087C197D0312085D52
:103D0800EA5402600BA908EEFAEFFB1207138002CF
:103D1800790102271274F612175274FF6A7003743D
:103D2800FF6B70168C828D83123D63E4F08C828D5C
:103D380083A3A3A3123D63A3801812082D8A088BBE
:103D480009A808A909E849600D8882898374FF12C7
:103D58002814A3A3E4F07F0202182474FFF0A3F050
:103D68008C828D83A3A32274F612175212082D8A0F
:103D7800828B83E58245836006A3A3E0FA80027AFA
:103D8800007B0080D174F21217528A088B09ECFE6E
:103D9800EDFF740E12172EE0F50A12082D8A0C8B0F
:103DA8000DA80CA90DE8497026EEFCEFFD7AFF7B03
:103DB800FF12082D8A0C8B0DA80CA90DE849700478
:103DC8007911801688828983E508F0A3E509F088CF
:103DD800828983A3A3E50AF079007F060218247478
:103DE800EE121752EAFEEBFF8C088D09890C741449
:103DF80012172E123EB1741612172E1233FE750DBD
:103E080000E8496003023EA57402650C6003023EA7
:103E1800A0741212172E123EBBFCA3E0F9EC24008A
:103E2800F50EE439F50FEAF4F8EBF4F9EC58F8E597
:103E38000F59F9E849705CE5082406F8ED3400F9F3
:103E4800880A890B8882F583123EC612085D8A109B
:103E58008B11E50E65107004E50F65116042780E50
:103E6800121965850A82850B83123EC6120863748F
:103E7800021216F8E9F50D7027780E1219658508F3
:103E880082850983A3A3123EC412087B740212160A
:103E9800F8800D750D808008750D0D8003750D0B6C
:103EA800A90D02355D8E828F83123EB522E0F8A3FC
:103EB800E0F922123EB588828983E022A3A3E0FCC0
:103EC800A3E0FDEEFAEFFB2274E812175274E71232
:103ED80016E2851882851983EAF0A3EBF08C168D1B
:103EE80017890E750800750900743112172EE0F550
:103EF80012A3E0F513743312172EE0F514A3E0F5BE
:103F080015743512172EE0F50FE50975F003A4F8BE
:103F1800A9F085188285198312403AE0F47003A34A
:103F2800E0F4700302401DEE2402F50CEF1240305D
:103F3800E0700302401D85160A85170B780A1219CE
:103F480065AC14AD15AA12AB131207E5740212166C
:103F5800F88A0A8B0BEA450B700302401DE4F51042
:103F6800F5117810121965740612172E85821085BE
:103F780083117810121965740912172E858210851D
:103F880083117810121965851282851383A3A3A360
:103F9800A312197C7914AC0AAD0B8E828F8312336D
:103FA800FE12083F74081216F8E97069850A8285BE
:103FB8000B83A3A3A3A3123EB1740212172E1236C9
:103FC8006C850C82850D83E0A2E05018A90E74025E
:103FD80012172EAC82AD838E828F831233FE1207A6
:103FE80037E94208850C82850D83E0A2E15026E579
:103FF8000FF50A780A121969A90E740312172EAC64
:1040080082AD838E828F831233FE120731740112C0
:1040180016F8E942080509E509C394025003023F6E
:1040280011A9087419023B973400F50D850C82F527
:104038008322E028FEA3E039FF8E828F832274F268
:10404800121752EAFEEBFF890B7401650B600E74C0
:1040580002650B706A7901120A3DE97062EEFAEFA7
:10406800FB1208278A088B09EA45096047750A0088
:10407800800B7C177D007900120FB9050A9002E6C3
:10408800E0F8E50AC3985021E50A75F017A4F8A9E5
:10409800F0850882850983A3A3E028FAA3E039FB09
:1040A8008A828B8312296670C98508828509837480
:1040B800FFF0A3F07C197D03EEFAEFFB120857021C
:1040C8003DE274F21217528A088B09ECFEEDFF7478
:1040D8000E12172E123747900B81E0F4603D7A09D3
:1040E8007B00120FCBEA4B60328A828B8374B1F06B
:1040F800A3E4123BD9A3123BD7A3E508F0A3E50933
:10410800124126EEF0A3EF124126A3A3E50AF0A37D
:10411800E50BF0900B81E0F9120FD7023DE2F08A2F
:10412800828B83A3A3A3A3A322C082C083906190A0
:104138007404F0A37448F0A37402F0906180744092
:10414800F09061BC7403F09061877419F090626517
:10415800741BF0906249E0C3941390619C400A7408
:1041680009F090606674018007740DF0906066E451
:10417800F090619A7433F0A37455F09061A0743A8A
:10418800F090053FE064017009C2919003A674673E
:1041980080059003A67461F09026CEE49390618622
:1041A800F09026C8E493F46027E493540FF89061E4
:1041B80085E0686012E5C654804449F5C6E59E541A
:1041C8007F644970F8E8F053C680E59E547F70FA22
:1041D8007905120D8502435FC082C083E5A8F853B4
:1041E800A87E906181E4F0A3F0A3F0C2BA539AFECE
:1041F800C289759B00C2C275E90075910075BF0040
:1042080075A91175B905906181F0A374C0F0A3E494
:10421800F0D2BA439A0174805842A802435FC08220
:10422800C08374F81216E29003A4E0F8A3E0F9E85A
:104238004970030243549003A4E054406023790872
:10424800851882851983AA82AB83120BF985188297
:10425800851983AA82AB831208ED9003A4E054BFAA
:10426800F0E054806010790C7A657B05120BF990A8
:1042780003A4E0547FF0E0A2E0503190619A7433D7
:10428800F0A37455F09061A0743AF090053FE06493
:10429800017009C2919003A6746780059003A67403
:1042A80061F01208F39003A4E054FEF0E0540260B9
:1042B8003190619A743FF0A3745AF09061A0747FB2
:1042C800F090053FE064017009D2919003A67471E3
:1042D80080059003A6746AF01208F39003A4E054D2
:1042E800FDF0E0540460139026CCE493906186F0CE
:1042F8001208F99003A4E054FBF0E054086013900E
:1043080026CDE493906186F01208F99003A4E05456
:10431800F7F0E0541060139026CEE493906186F095
:104328001208F99003A4E054EFF0E05420600A1258
:1043380008F99003A4E054DFF0A3E05401600D12E3
:104348000B211208FF9003A5E054FEF07408121622
:10435800F802435FF0A3F0D083D08202011F74EC0F
:1043680012175274F41216E2851882851983AC82EA
:10437800AD8375838275821F74041215F59026CC5F
:1043880093F460030244F2907808E0C39402500367
:104398000244D2740412172EAC82AD8375838175E2
:1043A80082C174081215F5851882851983858212D1
:1043B800858313740412172EAC82AD83750EFF75B6
:1043C8000FFF7FFF7E00750C48750D788015740807
:1043D8006E700302446674096E7003024466740AC0
:1043E8006E607B850C82850D83780812159A8C8205
:1043F8008D83A909E50AC9F8881074187808121479
:10440800C8E5104508F8C3E098A3E099850C8285B3
:104418000D83780812159A40188C828D8374187849
:10442800081214C8E5104508F8E0C398F8A3E0801E
:104438001C741878081214C8E5104508FAE9FB8CB2
:10444800828D83E0F8A3E0F9EAC398F8EB99F9C301
:10445800E8950EE9950F5006880E890FEEFF0EE5D8
:104468000C2404F50CE50D3400F50DEEC39413503F
:10447800030243D674FF650E700474FF650F602352
:104488008F08740278081216CF74482508F58274CC
:10449800783509F583780812159A85128285138371
:1044A800E508F0EC2402FCED3400FD85128285134A
:1044B80083A3858212858313740C12172EE5826CF0
:1044C8007003E5836D60030243C475080175090034
:1044D8007808121965740212172EAC82AD837AB36C
:1044E8007B091211A574021216F8740C1216F87FC3
:1044F8000C021824C082C0839061AE7468F0A37463
:104508006AF090624574FBF0A304F053F4FD43FE97
:104518000290053F7401F09061A0E0643A90619ABE
:1045280070237433F0A37455F09061A0743AF0745A
:104538000164017009C2919003A6746780289003F2
:10454800A674618021743FF0A3745AF09061A0743E
:104558007FF0740164017009D2919003A674718090
:10456800059003A6746A02435E7F08021824C0827D
:10457800C0839004F1E06401700A9004F6E06004DE
:10458800790C8002790002435FC082C08375E1F133
:104598009004F4E0605B14600914605F14605714C1
:1045A800705E120B339004EAE0F97AEB7B04120D8B
:1045B800077AD67BBE7C897D8E120D3D7A557B5558
:1045C8007C557D00120D139004F5E0F9120D1F794A
:1045D80001120D799004E8E0F8A3E0C82416F582EA
:1045E800E83400F583744BF0A3740BF079000243B0
:1045F8005F120B3980AF120B3F80AA120B4580A5C2
:10460800791280EA74F012175275D90D9004D5E02A
:10461800A2E0E4331313F89004EAE0C4333354C03F
:10462800484401F5D978E8790488828983A3A3A34B
:10463800E0F5D988828983A3A882A983E864EE700B
:1046480003E9640470E378D5790488828983A3E058
:10465800F5D988828983A3A882A983E864DB7003DB
:10466800E9640470E575E1959004D5E0F97AD67BA4
:1046780004120D0D900BA374E5F0A3740AF0A37453
:1046880041F0A3740CF0A37441F0A3740CF0A3746C
:1046980041F0A3740CF0A374EBF0A3740AF0A374B4
:1046A80041F0A3740CF0A37403F0A3740BF0900B07
:1046B800B17441F0A3740CF0A37441F0A3740CF02E
:1046C800A37441F0A3740CF0A37441F0A3740CF02C
:1046D800A37441F0A3740CF0A37441F0A3740CF01C
:1046E8009004F4E064019004E87012E0F8A3E0F5A7
:1046F800838882A3A37508007509088010E0F8A3D1
:10470800E0F5838882A3A3750804750900750A007B
:10471800750B007808121513750CFF750DFF750ED3
:10472800FF750F007808790C1215619004E8E0F81D
:10473800A3E0C8240EF582E83400F5837808121542
:10474800A99004E8E0F8A3E0C82414F582E834004E
:10475800F5837413F09003A27402F002457174F7A4
:104768001217529004FAE02407F5D99004EAE0C43D
:10477800333354C0F5D978E8790488828983A3A3B0
:10478800A3E0F5D988828983A3A882A983E864EE87
:104798007003E9640470E39004FAE0601F78E87934
:1047A80004FAE82413F582E93400F583E0F5D988A2
:1047B800828983A3A882A9831AEA70E690051AE081
:1047C8002407F5D99004EAE0C4333354C04404F50F
:1047D800D978E8790488828983A3A3A3E0F5D988E6
:1047E800828983A3A882A983E864EE7003E964043C
:1047F80070E390051AE0601F78E87904FAE824333A
:10480800F582E93400F583E0F5D988828983A3A885
:1048180082A9831AEA70E675E195900BA374F1F00A
:10482800A3740AF0A37441F0A3740CF0A37441F0CC
:10483800A3740CF0A37441F0A3740CF0A374EBF010
:10484800A3740AF0A37441F0A3740CF0A37403F0EA
:10485800A3740BF0900BB17441F0A3740CF0A37423
:1048680041F0A3740CF0A37441F0A3740CF0A3748A
:1048780041F0A3740CF0A37441F0A3740CF0A3747A
:1048880041F0A3740CF09004E8E0F8A3E0C8240E0B
:10489800F582E83400F58374FFF0A3F0A3F0A3F0E9
:1048A8009004E8E0F8A3E0C82414F582E83400F5A1
:1048B800837412F09003A27401F0FF02182474F7B5
:1048C8001217529004FAE02407F5D99004EAE0C4DC
:1048D800333354C04402F5D978E87904888289834F
:1048E800A3A3A3E0F5D988828983A3A882A983E832
:1048F80064EE7003E9640470E39004FAE0601F78E2
:10490800E87904FAE82413F582E93400F583E0F540
:10491800D988828983A3A882A9831AEA70E675E1F7
:1049280095900BA374FDF0A3740AF0A374FDF0A393
:10493800740AF0A374FDF0A3740AF0A374FDF0A345
:10494800740AF0A374FDF0A3740AF0A374FDF0A335
:10495800740AF0A37403F0A3740BF0900BB17441C4
:10496800F0A3740CF0A37441F0A3740CF0A3744189
:10497800F0A3740CF0A37441F0A3740CF0A3744179
:10498800F0A3740CF0A37441F0A3740CF09004E845
:10499800E0F8A3E0C8240EF582E83400F58374FF3C
:1049A800F0A3F0A3F0A3F09004E8E0F8A3E0C82493
:1049B80014F582E83400F5837414F09003A27404AB
:1049C800F0024C8D74F71217529004FAE02407F5A0
:1049D800D99004EAE0C4333354C04406F5D978E8E2
:1049E800790488828983A3A3A3E0F5D9888289837F
:1049F800A3A882A983E864EE7003E9640470E390D5
:104A080004FAE0601F78E87904FAE82413F582E9EB
:104A18003400F583E0F5D988828983A3A882A98325
:104A28001AEA70E690051AE02407F5D99004EAE03E
:104A3800C4333354C04404F5D978E87904888289AA
:104A480083A3A3A3E0F5D988828983A3A882A98335
:104A5800E864EE7003E9640470E390051AE0601FEF
:104A680078E87904FAE82433F582E93400F583E03C
:104A7800F5D988828983A3A882A9831AEA70E67582
:104A8800E195900BA374F7F0A3740AF0A37441F0B6
:104A9800A3740CF0A37441F0A3740CF0A37441F058
:104AA800A3740CF0A37441F0A3740CF0A37441F048
:104AB800A3740CF0A37403F0A3740BF0900BB174FF
:104AC80041F0A3740CF0A37441F0A3740CF0A37428
:104AD80041F0A3740CF0A37441F0A3740CF0A37418
:104AE80041F0A3740CF0A37441F0A3740CF090048B
:104AF800E8E0F8A3E0C8240EF582E83400F58374F2
:104B0800FFF0A3F0A3F0A3F09004E8E0F8A3E0C856
:104B18002414F582E83400F5837415F09003A27428
:104B280003F0024C8DC082C0839004E8E0F8A3E053
:104B3800C82406F582E83400F583E402435C74F780
:104B48001217529003D0E0F875F003A4C8AAF02A0F
:104B5800F974D228F8740339F9E82405FAE934001D
:104B6800FB8A828B83E0FCA3E0FD88828983A3A370
:104B7800A3A3A3A3A3A3A3ECF0A3EDF08882898346
:104B8800A3A3A3A3A3A3A3E024FFF8A3E034FFF9FE
:104B98008A828B83E8F0A3E9F0024C8D74F7121730
:104BA80052EAFEEBFF9061D0E06003024C8175D9B8
:104BB8000E75D90375D904EE248BF582EF3400F510
:104BC80083E5822408F8E5833400F9E0F5D9A3E801
:104BD80065827003E9658370F2EE2483F582EF3411
:104BE80000F583E5822404F8E5833400F9E0F5D97B
:104BF800A3E865827003E9658370F275E195790829
:104C0800EE248BFAEF3400FB120BED7904EE2483CB
:104C1800FAEF3400FB120BED7C00EEF8EFF9ECFA3A
:104C2800C3E49AFA95E0FBEE2AFAEF3BFBEA248A02
:104C3800F582EB3400F583E0C0E0E824AAF582E9C8
:104C48003400F583D0E0F00C88828983A3A882A978
:104C580083ECC3940840C7EE246FF582EF3400F567
:104C680083E0F8A3E0F9EE2471F582EF3400F583D0
:104C7800E8F0A3E9F07901800279008008F0EEA25B
:104C8800E092AF79007F01021824C082C08375D9F1
:104C98000275D90375D90575E195EA246FF582EB9C
:104CA8003400F583E0F8A3E0F9EA2471F582EB34E7
:104CB80000F583E8F0A3E9F0790102435F74F61286
:104CC8001752EAFEEBFF9005457406F07508457526
:104CD800090578081219657C017903120C357402EC
:104CE8001216F875D90675D903758245758305E0DE
:104CF800F5D9A3E582644A7004E583640570F0750C
:104D0800E1959003A2E06408701EEE246FF582EF2F
:104D18003400F583E0F8A3E0F9EE2471F582EF346E
:104D280000F583E8F0A3E9F07901024F9374F612D5
:104D38001752EAFEEBFF9061D0E0706678019005AB
:104D480045740BF09003A2E0640770197508457567
:104D5800090578081219657C017903120C3574026B
:104D68001216F87805740128F5D975D903758245A6
:104D7800758305E8FAE0F5D9A31AEA70F875E195A4
:104D8800EE246FF582EF3400F583E0F8A3E0F9EE46
:104D98002471F582EF3400F583E8F0A3E9F0790196
:104DA80080027900024F9374F7121752EAFEEBFF64
:104DB80075D90375D90375D90DEE24DDF582EF3465
:104DC80000F583E0F5D975E1957904120D43EE24D9
:104DD8006FF582EF3400F583E0F8A3E0F9EE247173
:104DE800F582EF3400F583E8F0A3E9F07901024C8D
:104DF8008D74F6121752EAFEEBFF9061D0E0F8745A
:104E080080C398FAEE2482F582EF3400F583E060DF
:104E180004780480027800E8240BF8EAC398500369
:104E2800024EBE7D09900545EDF0EE24E2F8EF3420
:104E380000F97A467B057C0888828983E08A828B20
:104E480083F088828983A3A882A9838A828B83A31B
:104E5800AA82AB831CEC70E0EE2482F582EF34006A
:104E6800F583E0601D750845750905780812196510
:104E78007C097903EEFAEFFB120C3574021216F86E
:104E88007D0D74012DF5D975D90375824575830596
:104E98008D08E0F5D9A31508E50870F675E1957950
:104EA80004120D43EE241DF582EF3400F583E4F07F
:104EB800A3F0790180027900024F9374F612175219
:104EC800EAFEEBFF9061D0E0F87480C398FAEE2414
:104ED80082F582EF3400F583E0600478048002787C
:104EE80000E82408F8EAC3985003024F9178069026
:104EF8000545740CF09003BFE0900546F09003C0A0
:104F0800E0900547F09003C1E0900548F09003C297
:104F1800E0900549F09003C3E090054AF0EE248242
:104F2800F582EF3400F583E0601B750845750905C7
:104F380078081219657C067903EEFA120C357402AA
:104F48001216F8780A740128F5D975D903758245BF
:104F58007583058808E0F5D9A31508E50870F67586
:104F6800E1957904120D43EE246FF582EF3400F5D4
:104F780083E0F8A3E0F9EE2471F582EF3400F583BD
:104F8800E8F0A3E9F07901800279007F0202182491
:104F980074F6121752EAFEEBFF9061D0E0F87480C5
:104FA800C398FAEE2482F582EF3400F583E06004BA
:104FB800780480027800E82404F8EAC398500302D1
:104FC80050727802900545E8F0EE24F4F582EF344B
:104FD80000F583E0900546F0EE2482F582EF340078
:104FE800F583E0601B750845750905780812196591
:104FF8007C027903EEFA120C3574021216F8780660
:10500800740128F5D975D903758245758305880813
:10501800E0F5D9A31508E50870F675E195EE247357
:10502800F582EF3400F583E4F0EE247FF582EF3467
:1050380000F583E4F0EE241DF582EF3400F583E4F7
:10504800F0A3F07904120D43EE240DF582EF34003D
:10505800F583E0F8A3E0F9EE2471F582EF3400F56A
:1050680083E8F0A3E9F0790180027900024F937494
:10507800F61217529061D0E0F87480C398FCEA24C5
:1050880082F582EB3400F583E060047804800278CE
:1050980000E82404F8ECC398405B79029005457455
:1050A80007F0EA24F5F582EB3400F583E090054635
:1050B800F0EA2482F582EB3400F583E06018750885
:1050C8004575090578081219657C0209120C3574B2
:1050D800021216F87906740129F5D975D903758273
:1050E80045758305E9F8E0F5D9A318E870F875E186
:1050F80095790180027900024F9374F5121752E9ED
:10510800FCA2AFE433F50AC2AF7D0080010DEA24AA
:105118006EF582EB3400F583E0F8EDC398501A8DF4
:1051280008EA2508F8EB3400F9E8246AF582E9343E
:1051380000F583E06C70D68024EA246EF8EB340026
:10514800F9E0FEEA2EFAEB3400FBEA246AF582EB7A
:105158003400F583ECF088828983E004F0E50AA244
:10516800E092AF7F0302182474F6121752A2AFE43C
:1051780033FDC2AFEA246EF582EB3400F583E01408
:10518800F07C0060368C08EA2508F8EB3400F9E872
:10519800246BF582E93400F583E0C0E0E8246AF581
:1051A80082E93400F583D0E0F00CEA246EF582EB56
:1051B8003400F583E0F8ECC39840CAEA246DF58220
:1051C800EB3400F58374FFF0EA2469F582EB3400D0
:1051D800F583E4F0EDA2E092AF024F93C082C08362
:1051E800E5A8F8C2AFEA246AF582EB3400F583E952
:1051F800F0EA2469F582EB3400F583E4F0E8A2E7ED
:10520800A2E792AF02435F74F3121752EAFEEBFF74
:10521800ECFAEDFB8A828B83A3A3A3A3E0541FF0CF
:10522800EE2436F582EF3400F583E4F0F50AEEFC5F
:10523800EFFD8A828B83E0C0E0EC245DF582ED34DB
:1052480000F583D0E0F0750B00E50A33333354F8EA
:10525800F50C8A828B83E0F508750900E50B780860
:105268001216B0E508A2E0502FEE2436F8EF34000D
:10527800F988828983E0F508EE2508F508EF3400FF
:10528800F509E5082438F582E5093400F583E50CCD
:10529800F088828983E004F0050B050CE50BC394C4
:1052A8000840AF050A8A828B83A3AA82AB838C82CB
:1052B8008D83A3AC82AD83E50AC3940550030252E3
:1052C8003A7F0502182474F71217529003CEE0644F
:1052D80001700302542C7A009003D4E06003025456
:1052E8002C7401F0A3E4F0A3F090043404F09004CB
:1052F80039F09003D7E4F0A3F0A3F0A3F09003E112
:1053080004F0900407E4F09003EAF0A3F0A3F0A3FC
:10531800F0A3F0A3F0A3F0900451F0900445F090AE
:10532800043A7480F0A3E4F0900440F09004BCF0D8
:10533800A3F0A3F0A3F0A3F0A3F0A3F0A3F09004CC
:10534800C5F0900454F09004A4F0A3F0A3F0A3F0E7
:10535800A3F0A3F0A3F0A3F0A3F0A3F09004B0F09F
:105368009004B2F09004AEF09004C8F0A3F0A3F05B
:10537800A3F0A3F0A3F0A3F0A3F078CE7903E82478
:105388006EF582E93400F58374FFF00A8882898318
:10539800A3A882A983EAC3940440E37ACE7B037866
:1053A800DC790488828983E0C0E0EA2461F582EB35
:1053B8003400F583D0E0F088828983A3A882A9838A
:1053C8008A828B83A3AA82AB83E864E17003E964D1
:1053D8000470D07ACE7B0378B5790388828983A359
:1053E800E0C0E0EA24E6F582EB3400F583D0E0F093
:1053F80088828983A3A882A9838A828B83A3AA82AD
:10540800AB83E864BD7003E9640370CF9003CEE01A
:1054180004F0640170089003D6E09003D0F07AD2CB
:105428007B0380047A007B00024C8DC082C083908D
:1054380003D5E4F09003D4F09003CEF0A3F0A37466
:10544800FFF075E1F102435FC082C0837800790004
:105458009003D5E0600478D2790388828983A3A376
:10546800A3A3E0F902435F74F6121752EAFEEBFFBA
:10547800EE2463F582EF3400F583E0F8A3E0F9E861
:10548800497003025514EE2463F8EF3400F97A00EA
:105498007B00A2AFE433F508C2AF88828983E0FCC1
:1054A800A3E0FDEC4D603A88828983E0FAA3E0FB33
:1054B8008A828B83E0FCA3E0FD88828983ECF0A3D9
:1054C800EDF08A828B83E4F0A3F088828983E0FC84
:1054D800A3E0FDEC4D700A88828983A3A3E4F0A3BE
:1054E800F0E508A2E092AF12124D9004E2E004F059
:1054F8009004E3E004F0EE2463F582EF3400F583D2
:10550800E0F8A3E0F9E849600302548E8E828F83A5
:10551800A3A3A3E0600F8E828F83A3A3A3E4F090DC
:1055280003CFE014F09003CEE014F070069003D09F
:1055380074FFF08E828F83A3A3E4F09004E1E070FF
:105548000D9003CFE0640170057900120D25EEFA85
:10555800EFFB120C65024F9374F7121752EAFEEB39
:10556800FF8E828F83A3A3A3A3E0FA7B00120941D5
:10557800EEFAEFFB120BB7120C4D024C8DC082C035
:105588008378B5790388828983A3E4F08882898344
:10559800A3A882A983E864BD7003E9640370E69058
:1055A80003B6740102435E74F6121752EAFEEBFF6B
:1055B800EC2403F8ED3400F988088909EC2407F88D
:1055C800ED3400F9E8FCE9FD8C828D83E0F8A3E076
:1055D800F9850882850983E0FAA3E0FB121657EEE5
:1055E800240DF582EF3400F583E8F0A3E9F08C820E
:1055F8008D83E0F8A3E0F9850882850983E0FAA3A2
:10560800E0FB1216578B09EA45096013EE240DF5E5
:1056180082EF3400F583E02401F0A3E03400F002C7
:105628004F9374F6121752EAFEEBFFEE242EF58222
:10563800EF3400F583E0FCA3E0FD780079FAECFA9A
:10564800EDFB121657EE246FF582EF3400F583E870
:10565800F0A3E9F0780079FAECFAEDFB1216578B13
:1056680009EA45096013EE246FF582EF3400F583EB
:10567800E02401F0A3E03400F0024F9374EC121719
:1056880052EAFEEBFF741412172E780812159A12BC
:105698000CE98A0C8B0D8C0E8D0F7510027511009C
:1056A800751200751300780C79101215007510FF2B
:1056B8007511FF7512FF780C7910121561780C12AC
:1056C80019618E828F83E0F8A3E0F5838882A3A313
:1056D8001215B812237174041216F8E96003025700
:1056E800E88E828F83E02402F8A3E03400F9E8FA18
:1056F800E9FB8A828B8378081215268A828B837548
:1057080008FF7509FF750AFF750B007808121587E1
:10571800EE240BF582EF3400F583C082C0838E82BD
:105728008F83A3A3A3A3A3E02401F8A3E03400F983
:10573800D083D082E0687003A3E069700579010224
:1057480057EA8E828F83A3A3A3A3A3A3A3E0240174
:10575800F0A3E03400F0EE2473F582EF3400F58313
:10576800E064017036EE2474F582EF3400F583E0CE
:10577800F8A3E0F98E828F83A3A3A3A3A3A3A3E036
:10578800687003A3E0697013EE2474F582EF3400A7
:10579800F583E02401F0A3E03400F0EE247FF582E5
:1057A800EF3400F583E064017036EE2480F582EF73
:1057B8003400F583E0F8A3E0F98E828F83A3A3A3D6
:1057C800A3A3A3A3E0687003A3E0697013EE248089
:1057D800F582EF3400F583E02401F0A3E03400F013
:1057E80079000244F774F6121752E9FEECFFEA2436
:1057F80062F582EB3400F583E06401600302589699
:105808009061D0E0F508EA2482F582EB3400F58354
:10581800E060047804800278007480C39508FC95E1
:10582800E0FDEF28F8E43400F9E82402F8E9340050
:10583800F9EC98ED99A2D265D033404E740A12174C
:105848002EE0F508A3E0F509EA2482F582EB34009E
:10585800F583E060157808121965EFFCEEF9120C73
:105868003574021216F874042FFF74012FF5D98EBF
:10587800D9EF600F850882850983F8E0F5D9A31868
:10588800E870F875E195790080067907800279FF5C
:10589800024F9374F7121752A2AFE433FEC2AF8AD5
:1058A800828B83E0F8A3E0F9E8498A828B83600A57
:1058B800A3A3E0F8A3E0F5838882ECF0A3EDF08AD7
:1058C800828B83A3A3ECF0A3EDF08C828D83E4F0AC
:1058D800A3024C8574F7121752E96021F88C828D67
:1058E80083E08A828B83F08C828D83A3AC82AD8324
:1058F8008A828B83A3AA82AB8318E870E0ECFAED66
:10590800FB024C8D74F4121752907803E0644270D5
:1059180055900544E014F0704DC2AF125926007836
:105928002AD0E0F618D0E0F6E59F5407700575090F
:10593800FF800375097FC4C0E07829E6F50808E60A
:105948005509F509740B78081216C0D0E02508F837
:10595800906270E0A2E740F8E8C333906272F0907A
:105968006270E0D2E0F09003D0E0F47003025D06CC
:10597800E0F875F003A4C8AAF02AF974D228FE74D6
:105988000339FFEE2401F582EF3401F583E0F8A333
:10599800E0F9E849601EEE2401F582EF3401F58351
:1059A800E0FAA3E0FBEE2400F582EF3401F583E092
:1059B800F9120FFB8E828F83A3A3A3A3A3A3A3E053
:1059C800F8A3E0F98E828F83A3A3A3A3A3E8F0A38F
:1059D800E9F0906054E09003A9F0906055E09003DE
:1059E800AAF0906056E09003ABF0906057E0900307
:1059F800ACF0906058E09003ADF0906059E09003EF
:105A0800AEF090605AE09003AFF090605BE09003D6
:105A1800B0F090605CE0FC9003B1F090605DE0FB5A
:105A28009003B2F090605EE0FD9003B3F090605F89
:105A3800E0FA9003B4F09003AFE08C082508F8E48E
:105A48003400F98D08E82508F8E93400F98B08E8EE
:105A58002508F8E93400F98A08E82508FAE9340045
:105A6800FBEE24F6F582EF3400F583E02AF0A3E09C
:105A78003BF08C08EE24F8F582EF3400F583E0253E
:105A880008F0A3E03400F0EE24FAF582EF3400F5D4
:105A980083E02401F0A3E03400F0EE24FEF582EF69
:105AA8003400F583E0F8A3E0F9E84960429060002B
:105AB800E0C333FCE433FDE82CF582E93DF583E0EF
:105AC8002AF0A3E03BF0906000E0FA9003B1E0FC1C
:105AD800EAC333FAE433FBE82AF8E93BF9E8244A55
:105AE800F582E93400F583E02CF0A3E03400F0906F
:105AF80003AFE070119003B2E0700BA3E07007A34E
:105B0800E07003025C038E828F83A3A3A3A3A3E0A8
:105B1800F8A3E0F9EE240DF582EF3400F583E028D0
