:020000040000FA
:060000000201070221AB22
:03002B0002262387
:030033000226059D
:03003B0002264456
:030043000225B9DA
:0300530002221E68
:03006B000225DF8C
:10008300022017E5C754F84401F5C779012200009F
:100093000080FB120086B900030200F1E4792178A5
:1000A30008B800028004F709D8FCE479297802B87B
:1000B30000028004F709D8FCE490028178427909B0
:1000C3008002F0A3D8FCD9FA7AC27B0A9001377870
:1000D3003D79048015E493A3AD82AE838A828B833A
:1000E300F0A3AA82AB838D828E83D8E9D9E7758288
:1000F300B87583A474031201197582917583007412
:100103000012011975D00075813F751881751902A8
:10011300759F00020096C09FF59FE473D09F22D085
:1001230083D082C09FE493C0E0740193C0E0740263
:1001330093F59F22FF0000B4000028002800283018
:1001430075A000A000A000A00000080008E001F0D6
:10015300001000100010001000100010005000509C
:1001630000500010001000D0070000000000000F36
:100173000001000500307507001000010081FF0039
:10018300000000FF71068F067706FF0202020802D5
:100193005000A0000000E803026C820100004582C9
:1001A300025082010000190B026882010000B302B1
:1001B3000250820100001A0B025E82010000C90294
:1001C3000250820100001B0B025682010000CB0289
:1001D3000250820100001C0B024882080000CC027E
:1001E3000250820100001D0B024A820100001E0B17
:1001F300FF0100FF20026C820100003F8202508257
:10020300010000820B024C82000000000002848285
:100213000300001903410C410C410C410C410C41FA
:100223000C410C410C410C410C410C410C410CC3E1
:100233000EDB0EBD0EFFFF020202020202020202E9
:10024300010D0000001001026C82010000D981023F
:100253005082010000C50B025A820100005D0702B3
:100263005082010000C60B0252820100005D810230
:100273005082010000C70B0262820100004F81021D
:100283005082010000C80B026682010000DF800279
:100293005082010000C90B026E82010000CD800272
:1002A3005082010000CA0B027082010000A9800283
:1002B3005082010000CB0B02728201000097800282
:1002C3005082010000CC0B027482010000418102C4
:1002D3005082010000CD0B027682010000CE0B019B
:1002E300E803053F100AFF00013075030201060011
:1002F30000000000000000000000000000000000FB
:100303000000000000000000000000FFFF06008066
:100313000CE803140953696D706C65424C455065D4
:10032300726970686572616C051250002003020ADD
:10033300000201060302F0FF07160102030405068B
:1003430053696D706C6520424C452050657269702D
:10035300686572616C1F13000025130A436861729C
:100363006163746572697374696320310002436861
:100373006172616374657269737469632032000822
:10038300436861726163746572697374696320336E
:1003930000104368617261637465726973746963A1
:1003A3002034000243686172616374657269737417
:1003B30069632035000A4368617261637465726919
:1003C30073746963204465766963654E616D650086
:1003D300026C820100004282025082010000E90C9B
:1003E300027A820300009F0A024E82010000EA0C97
:1003F300025082010000FB0C027C82010000A00A73
:10040300024E82010000FC0C0250820100000D0D1F
:10041300027E82020000A10A024E820100000E0D3C
:100423000250820100001F0D028082000000A20A18
:10043300028482030000A30A024E82010000200D01
:10044300025082010000310D028282040000A90AD9
:10045300024E82010000320D025082010000430D62
:10046300026A82030000AE0A024E82010000440DBC
:10047300120122EE94031201220595031201223682
:1004830095031201227195031201229B9503120118
:1004930022C59503120122DC9503120122F3950371
:1004A3001201220A960312012233960312012246F5
:1004B30096031201225C96031201226F9603120126
:1004C30022969603120122B7A702120122BBA802A9
:1004D300120122F3A80212012216A90212012221FB
:1004E300A90212012244A90212012253AA021201F3
:1004F3002228AB02120122A3AB021201222BAC026F
:1005030012012266AC021201229DAC021201222BBF
:10051300AD0212012204AE0212012264AE021201E4
:10052300226FAE02120122EEAE02120122F1AE02DE
:10053300120122F4AE0212012283AF0212012286BB
:10054300AF02120122B6AF02120122E0AF02120182
:1005530022CEB00212012280B10212012246E3022E
:100563001201226EE3021201229CE302120122D342
:10057300E30212012231E4021201227CE40212019D
:1005830022C7E40212012207E5021201224DE5020D
:100593001201227BE50212012238E60212012242F5
:1005A300E6021201224FE60212012282E602120142
:1005B300224EE7021201225AE70212012272E702D7
:1005C3001201227CE7021201222CA0031201223A1B
:1005D300A00312012252A0031201226AA0031201F6
:1005E3002227BA01120122D3BA011201224EBB0102
:1005F3001201226FBC01120122ABBC011201225471
:10060300BD011201223BBE011201229FBF01120153
:1006130022F6BF0112012277C00112012267C10134
:10062300120122B4C1011201223AC2011201226C49
:10063300C20112012280C401120122C2C4011201AB
:1006430022E0C40112012263C50112012237C6014F
:10065300120122FFC601120122BFD102120122920E
:10066300D2021201223BD3021201228ED3021201C3
:10067300223ED402120122CAD402120122B6D502AA
:10068300120122E5D502120122F8D60212012240FC
:10069300D70212012215D80212012251D8021201E7
:1006A300226DD802120122FCA20312012200800350
:1006B3001201221680031201223C800312012258E8
:1006C3008103120122628103120122978203120124
:1006D300228F83031201221FDE021201224FDF0247
:1006E30012012282DF02120122CCDF0212012293C5
:1006F300E102120122036E001201226D6E0012014B
:1007030022CC6F00120122DC6F001201220970005B
:1007130012012260700012012209710012012210DD
:100723007200120122DA72001201223A74001201DD
:10073300227D74001201222275001201226F7500BE
:10074300120122957500120122A37700120122A83B
:100753007700120122AD7900120122FA7900120109
:10076300226D7A00120122A07A00120122427B003C
:10077300120122EB7B00120122237C0012012226AC
:100783007C001201226E7C00120122AE7C00120159
:1007930022057D00120122128D031201222A8D03EC
:1007A300120122728D03120122888D03120122CFBE
:1007B3008D03120122E38E03120122708F031201B3
:1007C30022BB8F03120122B82600120122C4260085
:1007D300120122FF260012012244270012012204E3
:1007E30028001201228A2800120122EF2800120198
:1007F300221B2900120122542900120122922B00EC
:10080300120122762D001201225C2F001201229F79
:100813003000120122ED3200120122FF33001201D7
:10082300224A35001201225A36001201227736007D
:10083300120122B23600120122D4360012012237ED
:100843003700120122F83B001201228D3C001201F5
:1008530022DE3C00120122053D00120122573D0019
:10086300120122753D00120122CF3D00120122B870
:100873003E001201222E4000120122B2400012015A
:100883002203E8021201220DE80212012250E802BB
:100893001201226BE802120122FBE8021201222359
:1008A300E90212012260E90212012297E902120110
:1008B30022C0E90212012235EA021201224AEA02A7
:1008C3001201225FEA0212012290EA02120122A41B
:1008D300EA02120122C9EA0212012203EB02120107
:1008E300222FEB0212012267EB02120122E6EB0236
:1008F3001201222FEC0212012259EC02120122846E
:10090300EC02120122B5FE01120122E49A02120145
:1009130022129B02120122609C02120122409D02BC
:100923001201225F9D02120122DC9D021201221F8D
:100933009E02120122759F0212012236A0021201A9
:1009430022BDA2021201225EA30212012254A402BA
:1009530012012251A502120122ABA6021201223674
:10096300A702120122D69C031201223F9D0312010A
:1009730022939D03120122BA9D03120122EB9D03D0
:10098300120122ACEC0212012219ED0212012260C3
:10099300ED0212012278EE0212012274EF0212011B
:1009A3002257F002120122F1B10212012233B202E4
:1009B30012012205B302120122DEB302120122D870
:1009C300B402120122BAB50212012223B6021201A5
:1009D30022D9B6021201224DB702120122B9B7027F
:1009E300120122E2B7021201225CB802120122F5BF
:1009F300B8021201225AB9021201226FB90212017E
:100A030022B5B902120122CEB90212012233BA026F
:100A130012012236BA02120122198A03120122415B
:100A23008A031201227F8A031201223D8B031201E2
:100A330022A48B03120122C08B03120122E88B0331
:100A4300120122188C03120122278C03120122A403
:100A53008C03120122CA8C03120122C5AA011201BE
:100A630022A3AC01120122D5AE0112012211AF0162
:100A73001201223EAF0112012228B001120122739A
:100A8300B001120122BEB001120122D0B001120145
:100A93002210B10112012245B10112012293B101C9
:100AA300120122C2B101120122E5B1011201223267
:100AB300B201120122B7B201120122D1B401120113
:100AC3002210B70112012251B701120122F3B8011A
:100AD30012012234B901120122A7B901120122FD28
:100AE300B901120122CF8D02120122CD8E02120111
:100AF300226695021201228797021201225299025D
:100B0300120122BA9A02120122194100120122C8CB
:100B130041001201220E42001201224E4300120133
:100B230022E444001201225E4500120122794500AD
:100B3300120122F445001201224E4700120122AE97
:100B43004800120122B44900120122154B00120180
:100B5300222E4B001201228C4B001201227A4C00F0
:100B6300120122AD4C001201221D4D0012012297E9
:100B73004D00120122E14D00120122AB4E00120181
:100B830022804F001201225F5000120122EA50001E
:100B9300120122585100120122CC5100120122F7F6
:100BA3005100120122B652001201221B54001201FD
:100BB30022385400120122575400120122485500D2
:100BC3001201226D550012012297550012012212C3
:100BD30056001201226C5600120122D55700120151
:100BE30022835800120122C45800120122B3E501E6
:100BF30012012201E6011201220DE601120122EB8C
:100C0300E6011201221CE7011201224DE701120144
:100C130022CDE70112012205E80112012257E80162
:100C230012012294E801120122B1EA01120122D732
:100C3300EC01120122C2EE01120122ACF0011201F9
:100C430022AD2600120122B29601120122E2960180
:100C5300120122BB9D01120122409F011201223D7C
:100C6300A50112012225A60112012262A601120189
:100C73002285A601120122B6A601120122BFA601F6
:100C8300120122C9A601120122B7A701120122AD46
:100C9300A801120122F45800120122F35C00120190
:100CA30022F95C001201223464001201224D690012
:100CB3001201229983031201229384031201220752
:100CC3008503120122458503120122B9850312010E
:100CD300223286031201223B860312012247860336
:100CE3001201225C86031201229A8603120122B0AA
:100CF300860312012281F5021201228EF5021201EE
:100D030022A8F502120122E7F50212012225F602BA
:100D13001201228AF6021201229FF602120122AA6E
:100D2300F602120122B7F602120122CEF6021201D6
:100D330022DCF602120122E7F602120122F3F60286
:100D430012012202F7021201220DF70212012230D0
:100D5300F702120122D7F702120122E7F70212016A
:100D63002201F8021201221EF8021201223AF802AD
:100D73001201225FF8021201226AF8021201227F95
:100D8300F80212012293F802120122F4F80212016E
:100D930022FAF80212012200F90212012206F902D4
:100DA3001201221EF90212012251F90212012289B3
:100DB300D7011201220DD801120122BCD801120160
:100DC300221BDA011201223CDC0112012228DD017F
:100DD3001201225DDD011201227FDD011201222EAB
:100DE300DE0112012226E0011201224FE00112016D
:100DF30022E1E00112012213E10112012220E101AB
:100E030012012277E1011201229DE1011201220A5E
:100E1300E4011201220DE50112012265E50112012F
:100E23002218C90112012222CA0112012209CB018F
:100E330012012213CB0112012235CB0112012241EF
:100E4300CB01120122DACC0112012209CD011201D8
:100E53002225CE011201227ECE01120122E4CF010E
:100E6300120122C3D0011201221FD1011201228CCF
:100E7300D101120122C7D10112012206D2011201AE
:100E830022BFD401120122D9D40112012265D50156
:100E930012012273D501120122CCD501120122DAEB
:100EA300D5011201224DD601120122B1D601120140
:100EB30022FBD60112012287F301120122A9F301B9
:100EC300120122CFF501120122E4F801120122FCE2
:100ED300F901120122AFFA0112012291FB01120161
:100EE30022A89603120122CD96031201223F9703F3
:100EF30012012245CA021201224ECA0212012257CE
:100F0300CA021201222ECB02120122DFCC021201ED
:100F13002215CD021201224FCD0212012285CD02EC
:100F2300120122BFCD02120122F3CD021201221FB0
:100F3300CE0212012268CE02120122A2CE021201B7
:100F430022EBCE0212012243CF0212012278CF02FA
:100F5300120122D3CF021201220DD0021201225E0E
:100F6300D00212012294D002120122CED002120129
:100F730022FCD0021201221FD102120122B9A103C5
:100F8300120122E5A10312012240A2031201224A07
:100F9300A2031201225AA20312012250C202120119
:100FA300225AC20212012298C202120122E1C20293
:100FB3001201221BC30212012271C30212012292E7
:100FC300C30212012217C60212012220C602120115
:100FD300226BC60212012294C6021201229EC6028D
:100FE3001201220AC702120122A0C702120122EA39
:100FF300C7021201221AC802120122A3C802120157
:1010030022E3C8021201221BC9021201222DC902C6
:101013001201224CC90212012255C9021201221BDC
:10102300CA02120122359F03120122F27D0012012E
:1010330022287E001201225E7E00120122A77F0079
:10104300120122EFA30312012205A4031201220FAE
:10105300A40312012259A403120122CEF9021201A0
:1010630022E3F90212012296FA02120122D6FA02AF
:10107300120122EFFA0212012223FB021201227053
:10108300FB02120122A4FB02120122E6FB0212015F
:1010930022629B031201228B9B03120122B49B0346
:1010A3001201224F9C03120122919C031201228000
:1010B300A303120122E58F031201220A90031201F6
:1010C3002234900312012254A503120122888201C3
:1010D300120122EC84011201229D86011201229F3A
:1010E3008701120122288801120122AC8801120112
:1010F30022D188011201220A8C011201227E8C0165
:101103001201226F8D01120122A98D01120122E920
:101113008D011201229C8F01120122EF8F01120116
:1011230022389001120122A69001120122D89001C7
:10113300120122F0900112012205920112012215DF
:1011430092011201223093011201225293011201E2
:10115300228893011201222C95011201226B950121
:101163001201228D960112012203A10312012214FE
:10117300A1031201220BA5031201224AA5031201A6
:1011830022F9A50312012264A20312012274A2030D
:101193001201228CA203120122F2A20312012231B4
:1011A3009E03120122B69E031201221C9F03120109
:1011B30022EA9903120122139A031201227E9A034F
:1011C300120122CF9A03120122289B03120122E06B
:1011D3008603120122F586031201220B88031201F2
:1011E300228D88031201220189031201221B890324
:1011F3001201223289031201224589031201225D61
:1012030089031201227289031201229389031201B5
:1012130022E489031201220CA603120122E2FD0239
:1012230012012272FE02120122F0FE021201227A40
:10123300FF0212012284FF0212012298FF0212010F
:1012430022F8FF021201224D98031201229D9803F6
:101253001201222699031201228C9903120122B151
:101263009203120122DB9203120122A193031201C2
:10127300227C94031201225ABA0212012217BB02E2
:1012830012012252BB021201227ABB02120122DC9A
:10129300BB0212012228BC0212012288BC021201E5
:1012A300221BBD021201221ABE02120122A9BF0291
:1012B3001201222CC00212012293C002120122AA9F
:1012C300C002120122B4C102120122F2C1021201B0
:1012D30022008002120122608302120122E88402AA
:1012E3001201223F85021201225E8502120122DCD5
:1012F30085021201226C8702120122508802120118
:10130300225C8C021201222C8D021201221CA603E4
:10131300120122E2D80212012232DB02120122154B
:10132300DC0212012291DD0212012219F1021201E3
:10133300225EF1021201227BF10212012279F202F2
:10134300120122EEF202120122EFF30212012248ED
:10135300F502120122CEFF011201229BA503120105
:1013630022D1A503120122E17F00E066701008A3D9
:10137300E066700A08A3E066700408A3E06622C36F
:10138300E7960809E7960809E7960809E79622C34E
:10139300E09608A3E09608A3E09608A3E09622C08F
:1013A30008C3E096F50808A3E096420808A3E09670
:1013B300420808A3E09645087001D3D00822080824
:1013C30008EAC0E0EBC0E086F0E7A4FA180986F06B
:1013D300E7A42AFA180986F0E7A42AFA180986F07E
:1013E300E7A42AFA1986F0E7A4FBE5F02AFA19081C
:1013F30086F0E7A42BFBE5F03AFA190886F0E7A498
:101403002BFBE5F03AFA18180986F0E7A4C5F02B90
:10141300FBE43AFA1908E7C5F0C6A426F6E5F03B63
:10142300FBE43AFA1886F0E7A4F6E5F00826F6E4BA
:101433003B08F6E43A08F6D0E0FBD0E0FA22E4CF2A
:10144300C0E0E4CEC0E0E4CDC0E0E4CCC0E075F0A1
:1014530020E626F608E633F608E633F608E633F622
:10146300181818EC33FCED33FDEE33FEEF33FFC3F6
:10147300EC9709ED9709EE9709EF97191919400FA2
:10148300FFEC97FC09ED97FD09EE97FE191906D5B8
:10149300F0BFECF709EDF709EEF709EFF7191919A2
:1014A300D0E0FCD0E0FDD0E0FED0E0FF22601608E3
:1014B3000808C6C313C618C613C618C613C618C66B
:1014C30013C6D5E0EA227009080808226016181826
:1014D30018C6C333C608C633C608C633C608C633E0
:1014E300C6D5E0EA22E627F60809E637F60809E654
:1014F30037F60809E637F622E026F608A3E036F6C3
:1015030008A3E036F608A3E036F622E026F008A3A7
:10151300E036F008A3E036F008A3E036F022C3E695
:1015230097F60809E697F60809E697F60809E69795
:10153300F622C3E096F008A3E096F008A3E096F045
:1015430008A3E096F022E657F60809E657F60809DD
:10155300E657F60809E657F622E056F608A3E056E2
:10156300F608A3E056F608A3E056F622E056F00884
:10157300A3E056F008A3E056F008A3E056F022E0FB
:10158300F608A3E0F608A3E0F608A3E0F622E6F0E7
:1015930008A3E6F008A3E6F008A3E6F022E0FAA326
:1015A300E0FBA3E0FCA3E0FD22EAF0A3EBF0A3EC55
:1015B300F0A3EDF022E0F8A3E0F9A3E0FAA3E0FB47
:1015C30022E8F0A3E9F0A3EAF0A3EBF022CAC0E01B
:1015D300E6F0A308DAFAD0E0FA22CAC0E0E0A3C535
:1015E30082CCC582C583CDC583F0A3C582CCC58219
:1015F300C583CDC583DAE6D0E0CA22C3E498F8E414
:1016030099F912163F8026C3E49AFAE49BFBE9207A
:10161300E7E912163FE498F8E499F922C3E498F84D
:10162300E499F912163FE498F8E499F9C3E49AFAB5
:10163300E49BFB22EB20E7CFE920E7E0B90010BBF6
:101643000008E88AF084F8AAF022E4FBC8FA22EB47
:1016530070227B10C833C8C933C9335007C39AC338
:10166300DBF280069A50012ADBEAC833F4C8C93397
:10167300F4C9FA2275F008E4C833C8C933C933C9B9
:101683009AC99B5004C92AC93BD5F0ECFBC833F473
:10169300C8E4C9FA22600D08C6A2E713C618C61328
:1016A300C6D5E0F322600C08C6C313C618C613C61A
:1016B300D5E0F422700422600D18C6C333C608C6F1
:1016C30033C6D5E0F41822251810AF08F518400CDE
:1016D30015198008F51840021519D2AF2200C0D0A1
:1016E300251810AF08F518500C05198008F5185087
:1016F300020519D2AFD0D0222518F58210AF08F514
:1017030018400C15198008F51840021519D2AF8539
:101713001983222518F582E43519F583222518F853
:10172300E43519F9222518FAE43519FB222518FCAA
:10173300E43519FD22E4732518C582C0E0E51934A8
:10174300FFC583C0E0E518C3958224F810AF088570
:1017530083198582188008858319858218D2AFCEB4
:10176300F0A3E520F0A37808E608F0A3DEFAEFF093
:10177300A3E58124FAF8E608F0A3E608F0A3E60857
:10178300F0A30808E608F0A3E608F0A31581158185
:10179300D0E0FED0E0F8158115811581E8C0E0EEB8
:1017A300C0E0222518C582C0E0E51934FFC583C017
:1017B300E0E518C3958224F910AF08858319858263
:1017C300188008858319858218D2AFCEF0A3E5204F
:1017D300F0A37808E608F0A3DEFAEFF0A3E581248E
:1017E300FBF8E608F0A3E608F0A30808E608F0A370
:1017F300E608F0A315811581D0E0FED0E0F815814D
:101803001581E8C0E0EEC0E022851983851882E0E7
:10181300A3FEE0A3F5207808E0A3F608DFFAE0A32F
:10182300FFE0A3C0E0E0A3C0E0E0A3C0E0E0A3C00A
:10183300E0E0A3C0E010AF08858218858319800813
:10184300858218858319D2AFD083D08202011F8588
:101853001983851882E0A3FEE0A3F5207808E0A3AE
:10186300F608DFFAE0A3FFE0A3C0E0E0A3C0E0E0F6
:10187300A3C0E0E0A3C0E010AF08858218858319F8
:101883008008858218858319D2AFD083D08222C085
:10189300D02518C582C0E0E51934FFC583C0E0E553
:1018A30018C3958224F310AF0885831985821880A5
:1018B30008858319858218D2AFC8F0A3E9F0A3EA9B
:1018C300F0A3EBF0A37908E709F0A3D8FAECF0A3AF
:1018D300EDF0A3EEF0A3EFF0A3D0E0F0A3D0E0F09F
:1018E300A3D0E0F0A3E520F0A3E5F0F0A32285194F
:1018F30083851882E0C0E0A3E0F9A3E0FAA3E0FB4C
:10190300A37808E0F608A3DFFAE0FCA3E0FDA3E078
:10191300FEA3E0FFA3E0C0E0A3E0C0E0A3E0F5D0B6
:10192300A3E0F520A3E0A3F5F010AF0885831985A4
:1019330082188008858319858218D2AFD082D0831C
:10194300D0E0F8D0E032740480067402800274019F
:10195300C0E0F4041216FBD0E01215D02274048008
:101963000474028000CCC0E0EDC0E0E518C39CCC59
:10197300AD1950011D10AF068C188D1980068C18F7
:101983008D19D2AF1215DDD0E0FDD0E0FC22D0835B
:10199300D082E9C0E0E493A3C386F0C5F095F0F9E3
:1019A30008E493A386F0C5F095F0700BE493A3C30A
:1019B300994005E9048002A3E475F002A42582F5A9
:1019C30082E5F03583F583D0E0F9E493A3C0E0E446
:1019D30093C0E022D083D082ECC0E0EDC0E0E4937A
:1019E300A3FCE493A3FDED4C600D121A23EC24FF3A
:1019F300FCED34FFFD80EFE493A3FCE493A3FDED42
:101A03004C600D121A62EC24FFFCED34FFFD80EFF5
:101A1300D0E0FDD0E0FCE493A3C0E0E493C0E02277
:101A2300C0E0C3E49396087401939618400FE493BF
:101A330066700808740193661870007019A3A3C335
:101A4300E49396087401939618A3A3400DD0E0D0B5
:101A5300E0D0E0021A13A3A3A3A3A3A3D0E022C060
:101A6300E0C0F088F0E49366700808740193661888
:101A73007000A8F0A3A3700BD0F0D0E0D0E0D0E0CA
:0A1A8300021A13A3A3D0F0D0E02252
:101A900074F51217A6EAFEEBFFEE2434F8EF3400DB
:101AA000F988088909EE2435F582EF3400F583E0E2
:101AB000F8EE2437F582EF3400F583E0F50AEC8583
:101AC0000AF0A4FCAAF0850AF0EDA42AFDE82CF89F
:101AD000E43DF97A257B0012163FEA8508828509E4
:101AE00083F0F8740758F97401B900028004C33315
:101AF000D9FCFAE8131313541FF8EE28F8EF34005A
:101B0000F9E8245DF582E93400F583E05A6008EED7
:101B10002434F582EF802CEE2434F582EF3400F586
:101B200083E0C0E0EE2436F582EF3400F583E0F583
:101B3000F0D0E084A8F0EE28F8EF3400F9E824387B
:101B4000F582E93400F583E0F97F0402185274F558
:101B50001217A6EAFEEBFFEE2434F582EF3400F50F
:101B600083E0C0E0EE2435F582EF3400F583D0E069
:101B7000F08E828F83A3A3A3A3A3A3A3C082C08359
:101B80008E828F83A3A3A3A3A3E0F8A3E0F9D0835D
:101B9000D082E0C398F508A3E099F509EE247FF51B
:101BA00082EF3400F583E064017069EE2480F582F1
:101BB000EF3400F583E0F8A3E0F98E828F83A3A3CE
:101BC000A3A3A3A3A3E0FCA3E0FD8E828F83A3A322
:101BD000A3A3A3E0FAA3E0FBC3EA9CEB9D5010C3D0
:101BE000EC98ED99402EC3EA98EB995027800EC3EC
:101BF000EA98EB994007C3EC98ED9940177CDC7D9F
:101C000004EEFAEFFB120B9FEE247FF582EF340017
:101C1000F583E4F0EE2434F8EF3400F9E8FCE9FD54
:101C2000EE2435F582EF3400F583E0F8EE2437F545
:101C300082EF3400F583E0F50AE508850AF0A4F5A3
:101C400008AAF0850AF0E509A42AF509E82508F8AC
:101C5000E43509F97A257B0012163FEA8C828D83E0
:101C6000F0F8740758F97401B900028004C333D93D
:101C7000FCFAE8131313541FF8EE28F8EF3400F9B8
:101C8000E8245DF582E93400F583E05A6008EE242B
:101C900034F582EF802CEE2434F582EF3400F583A6
:101CA000E0C0E0EE2436F582EF3400F583E0F5F095
:101CB000D0E084A8F0EE28F8EF3400F9E82438F5F5
:101CC00082E93400F583E0F91225A5021B49C082A0
:101CD000C083851882851983E0F8A3E0F9C3EA9CE4
:101CE000EB9D5010C3EC98ED99401BC3EA98EB991B
:101CF0005014800EC3EA98EB994007C3EC98ED9915
:101D00004004790180027900D083D08222EAC39C0A
:101D1000FAEB9DFB2274EF1217A69003A2E0640871
:101D20006005E06407702A9061C8E060249003D0E9
:101D3000E0F4601DE0F875F003A4C8AAF02AF97475
:101D4000D228FE740339FF8E828F83A3A3A3E07091
:101D500003021E45906060E0C0E0EE2468F582EF6B
:101D60003400F583D0E0F0750C45750D057508005D
:101D7000750900E5D914F50AE5D95403F50E601785
:101D80007403650E605CE50A6010EE2467F582EF6F
:101D90003400F583E07003021E2A900540E06401E0
:101DA000602AEE2482F582EF3400F583E060047847
:101DB0000480027800850A08E508C398FA95E0FBDC
:101DC000120A6D8A088B09EA45097005120D918087
:101DD00074EE2482F582EF3400F583E070048A0CFF
:101DE0008B0DE50A6012850C82850D83F50BE5D914
:101DF000F0A3150BE50B70F6EE2482F582EF3400AC
:101E0000F583E0604474FC250AF50A780C12194D3C
:101E1000AC0AA90EEEFAEFFB120C3B74021216E0AC
:101E2000E97026AA08AB0912124D793D8E828F8384
:101E3000A3A3A3A3E0FA7B00120941EEFAEFFB1281
:101E40000BB7120C4D790080747403650E605685D3
:101E50000A10751100781012194DAC0CAD0DAA08BE
:101E6000AB09120C1774021216E0EE2468F582EF2B
:101E70003400F583E064807004747F8001E0F50C29
:101E8000780C121951E50EF50C780C121951A90AAB
:101E9000AC08AD099003D0E0FA7B0012090574028A
:101EA0001216E080139003A2E06408600BAC0CAD46
:101EB0000DEEFAEFFB120CA7120D9D79017F0A02BD
:101EC000185274F51217A674FC1216CAEAFEEBFF3C
:101ED0008908A2AFE433F509C2AF806AEE2463F843
:101EE000EF3400F97A007B00A2AFE433F50AC2AF09
:101EF00088828983E0FCA3E0FDEC4D603A8882890A
:101F000083E0FAA3E0FB8A828B83E0FCA3E0FD88F8
:101F1000828983ECF0A3EDF08A828B83E4F0A3F056
:101F200088828983E0FCA3E0FDEC4D700A888289F9
:101F300083A3A3E4F0A3F0E50AA2E092AF12124D4E
:101F40009004E3E004F0EE2463F582EF3400F583BF
:101F5000E0F8A3E0F9E849603DEE2463F582EF3450
:101F600000F583E02402FAA3E03400FBEA2402F542
:101F70000AEB3400F50B780A12194D8A828B83E044
:101F8000FCA3E0F9EEFAEFFB120BDB74021216E091
:101F9000E97003021EDC9004E3E060639004E4E077
:101FA000F89004E3E0C398500C74026508705090F8
:101FB00004E5E0604A8E828F83A3A3A3A3E0851883
:101FC00082851983F0A3E4F09004E3E0F874021230
:101FD0001716E8F0A3E4F09004E3E0F89004E2E0E0
:101FE00028F07402121716AC82AD83851882851909
:101FF00083AA82AB8379011209119004E3E4F0E52E
:1020000009A2E092AF74041216E0021B490000001E
:102010008521878522C622C0E0C0D0E8C0E0E9C0A3
:10202000E0EAC0E0EBC0E0ECC0E0EDC0E0EEC0E014
:10203000C008C009C00AC00BC082C083C0F0A2AFF4
:10204000E433FEC2AF759B00906182E0A2E05012C3
:10205000E591A2E0500C7591FE74016521700312A8
:102060001D15E0A2E55051E591A2E5504B7591DFB9
:102070009003A2E064076005E064087023740165C2
:1020800021703579019003D0E0FA75F003A4CAA855
:10209000F028FB74D22AFA74033BFB121EC280188C
:1020A000E0640D70139003C4E004F064287002E44F
:1020B000F07A00E0F9120DA3906182E0A2E64003FD
:1020C00002215EE591A2E6400302215E7591BF9078
:1020D00003A2E064057008120CD1120CDD8003121B
:1020E0000CD7752100120D31E99003A3F07900128D
:1020F0000D25120B157A017B009003A1E0F9120F58
:10210000FB907803E064427055900544E014F07051
:102110004DC2AF12211600782AD0E0F618D0E0F6B2
:10212000E59F540770057509FF800375097FC4C0DA
:10213000E07829E6F50808E65509F509740B7808F2
:102140001216A8D0E02508F8906270E0A2E740F8E7
:10215000E8C333906272F0906270E0D2E0F0906178
:1021600081E0A2E35009E5E9A2E3500375E9F7A392
:10217000E0A2E75009E591A2E7500375917FEEA236
:10218000E092AFD0F0D083D082D00BD00AD009D06B
:1021900008D0E0FED0E0FDD0E0FCD0E0FBD0E0FADB
:1021A000D0E0F9D0E0F8D0D0D0E032C0E0C0D0C06C
:1021B00082C083906183E0A2E05009E5BFA2E050B5
:1021C0000375BFFEE0A2E15009E5BFA2E15003752F
:1021D000BFFDE0A2E25009E5BFA2E2500375BFFBDC
:1021E000E0A2E35009E5BFA2E3500375BFF7E0A208
:1021F000E45009E5BFA2E4500375BFEFE0A2E5504B
:1022000009E5BFA2E5500375BFDFE0A2E65009E58E
:10221000BFA2E6500375BFBFD083D0828088C0E0E4
:10222000C0D0E8C0E0E9C0E0EAC0E0EBC0E0ECC04C
:10223000E0EDC0E0C0F0E5A7A2E6500FE5A1A2E600
:10224000500953A7BF75A1BF122283E5A7A2E5508D
:102250000CE5A1A2E5500653A7DF75A1DFE5A7A213
:10226000E15009E5A1A2E1500375A1FDE5A7A2E2B5
:10227000500CE5A1A2E2500653A7FB75A1FBD0F0DC
:1022800002219474F81217A67521019003A2E0644C
:10229000067015120C6B8A828B83A3A3A3A3A3A33E
:1022A000E0FAA3E0FB120CBFA2AFE433FED2AF9082
:1022B00003A8E0640170187A207B009003A1E0F984
:1022C00012107F7A207B009003A1E0F91210019098
:1022D0006182E0D2E6F0900541E0602185C622806F
:1022E000169003A7E064017008E5C654F84405F5AC
:1022F000C653BEFC1220107401652160E4EEA2E01A
:1023000092AF7F01021852008E238F248582288588
:102310008327851882851983E0CEA3E0CF852882A4
:10232000852783EBC9EAC8EDCBECCA75F010C3E88A
:1023300033C8E933C9EA33CAEB33CBC3EA9EF52687
:10234000EB9FF525B35004AB25AA26EC33CCED3337
:10235000CDD5F0DAAE23AF242274ED1217A68A0889
:102360008B098C0A8D0B7413121716780C121582B8
:102370007808790C1213827510017511C875120056
:1023800075130050127808790C121521781079080D
:1023900012138250168010780C79081215217810CB
:1023A000790C12138240047901800279007F0C02BB
:1023B000185274ED1217A68A088B098C0A8D0B74BB
:1023C00013121716780C121582780C7908121382E2
:1023D00040117808790C121521AA08AB09AC0AAD96
:1023E0000B802275100075110075120075130178AD
:1023F00010790C121521781079081214E8AA10AB84
:1024000011AC12AD1380A68A828B837508FF750903
:10241000FF750AFF750B00780812156F7F0402180C
:102420005274F51217A68C828D8378081215828A51
:10243000828B837808121535EA2404F8EB3400F90E
:102440008C828D83A3A3A3A3E0FCA3E0FD888289F3
:1024500083C3E09CF0A3E09DF088828983C3E0946D
:1024600020A3E0944E40268A828B837508FF75096D
:10247000FF750AFF750BFF780812150E8A828B8391
:10248000A3A3A3A3E02420F0A3E0344EF00224078A
:1024900074F51217A6E9FE9004F7E0FAA3E0FBEE4C
:1024A000C333F8E433F9742228F582748139F58353
:1024B000E02AF508A3E03BF509780812194D7A40A7
:1024C0007B427C0F7D0012230874021216E08A08FA
:1024D0008B098C0A8D0B741078081214B0AA08AB03
:1024E000097F0402185274F11217A68A0C8B0D8C06
:1024F0000E8D0F740F121716E0FAA3E0FB74111281
:102500001716E0F508A3E0F509780812194DEA243A
:1025100001F508EB3400F509E4F50AF50B780C79C0
:10252000081213C1750871750902780C7908121325
:10253000C1AA0CAB0DAC0EAD0F122308740212161B
:10254000E08B09EA450960047A0180027A00EC2AEE
:10255000FCED3400FD7413121716E0F8A3E0F9E85F
:10256000FEE9FFECF8EDF97A717B0212163F88085C
:1025700089098E828F837808121591ECF8EDF97A2B
:10258000717B0212163F8A088B09740578081216AF
:10259000B78E828F83A3A3A3A3E508F0A3E509F078
:1025A0007F08021852C082C083E9906000F0D08397
:1025B000D08222C2AF02000022C0E074F212189250
:1025C000A2AFE433FED2AFC2C0E5D1A2E4500653BD
:1025D000D1EF121241EEA2E092AF7F010218F1C0DA
:1025E000E074F2121892A2AFE433FED2AFE589A2F2
:1025F000E150031211C9758900C2C5EEA2E092AF85
:102600007F010218F1C0E074F2121892A2AFE43315
:10261000FED2AFE58BA2E050031211C9758B00C248
:10262000E880D8C0E0C0D0E8C0E0E9C0E0E5A8D2CA
:10263000AFC2C7A2E7A2E792AFD0E0F9D0E0F8D0EE
:10264000D0D0E032C0E0C0D0E8C0E0E9C0E0C008CF
:10265000C009C082C083A2AFE433F9D2AF9009D3DE
:10266000E0F8A3E0687008539AFBA374018025C2C8
:10267000E99009D3E0F50874012508F074532508A2
:10268000F582E43409F583E0F5C19009D3E0C39401
:10269000804002E4F0E9A2E092AFD083D082D0097A
:1026A000D008D0E0F9D0E0F8D0D0D0E03202011F5D
:1026B000FFFFFFFFFFFFFFFFC082C083E9900B8198
:1026C000F002294774F712173AE99002E1F07C19F9
:1026D0007D037AFF7BFF1208579002E274FFF0A39C
:1026E000F0A3E4F0A3F079051207DF9002E1E0F92E
:1026F0001207017A757B08120A1F7F0102180C74F9
:10270000F412173A8A088B09EB548060309002E18A
:10271000E0F9120FE38A0A8B0BAE0AAF0BEE4F60A3
:10272000138E828F83E064B070031207F7EEFAEF26
:10273000FB120FD1AA08E5096480FB80047A007BB4
:102740000002291674F212173A74FC1216CAEAFE35
:10275000EBFFEE4F60387402121716EEF0A3EF1283
:102760002B7BECF0A3ED122B7BAA82AB831206FB32
:10277000E9F5087073741212171612372FE50A451F
:102780000B60658E828F831227F2EE4F70057508FD
:102790000280557A067B001210378A0C8B0DA80C2C
:1027A000A90DE8497005750813803D88828983E486
:1027B0001227FCA3A3EEF0A3EF123BC8E50AF0A397
:1027C000E50BF09002E71228849002E76017E0FC26
:1027D000A3E08003EAFCEBFD8C828D8312288470D9
:1027E000F38C828D83123654A90874041216E00209
:1027F0003DCAA3A3A3A3E0FEA3E0FF22F0A3F088B9
:102800008289832274F212173A890AE975F017A4B3
:10281000FEAFF09002E6E4F09002E4122884600A31
:1028200012103D9002E4E4F0A3F0EEFAEFFB121078
:10283000378A088B09EA4509602FEEFCEFFD790025
:10284000120FB99002E4E508F0A3E509F07B0080DF
:102850000812286EE4F0A3F00BEBC3950A40F2E5F2
:102860000A9002E6F0790080027913023DCAEB7506
:10287000F017A4F8A9F09002E4E028FAA3E0398A5E
:1028800082F583221233EAEA4B2274F412173A7566
:102890000800750900740C121716123B9CFEE9FF24
:1028A000800CE5082401F508E5093400F509C3E5C5
:1028B000089CE5099D503285080A85090B74037848
:1028C0000A1216B7EA250AF8EB350BF988828983D4
:1028D000A3A3A3A3A3A312372FEE650A7003EF658A
:1028E0000B70BFE8FAE9FB80047A007B0080277454
:1028F000F412173A7900EAA2E0501B7508FA75093C
:1029000081780812194D7C047D007A837B0B1207B5
:10291000D974021216E07F0402180CC082C08390A2
:1029200002E712294E601C88828983A3A3E06A70A3
:1029300003A3E06B8882898370E8A3A3A3A3123367
:10294000E680047A007B00D083D08202011F123E11
:102950009DE8492274EE12173A74FC1216CAEAFE78
:10296000EBFF851882851983E4F0A3F0EE240212B0
:102970003638EE2405122B69EE2404F50EEF122FE3
:102980004EE024FE603924FC604624FE605224FEA2
:10299000605E24FE7003022A6E24FE7003022AE6A3
:1029A00024FE7003022AF524FE7003022B0424FC8B
:1029B0007003022B1324FE7003022B22022B5F9064
:1029C00003007417F0A3E4122B83120479022B5F27
:1029D000851882851983AC82AD831207FD022B2FE7
:1029E000851882851983AC82AD83120803022B2FD0
:1029F000850C08850D097402121716AC82AD83850B
:102A000008828509831233E612071F8A0C8B0DACEE
:102A10000CAD0DEC4D6042E4F50CF50D780C12197F
:102A20004D750C00750D03780C12194D750C017560
:102A30000D03780C12194D740812171612196479C7
:102A4000161233E012083F74081216E0E9F50C7014
:102A50000B1233DC120491800F750C0185088285FE
:102A60000983122B71123654850C08022B32740222
:102A7000121716AC82AD83850C82850D831233E666
:102A800012071F8A108B11AC10AD11EC4D604385FD
:102A90000C82850D83A3A3121964751000751103B0
:102AA000781012194D751001751103781012194D17
:102AB000740812171612196479161233E012083FBF
:102AC00074081216E0E9F509700B1233DC12049752
:102AD000800F750901850C82850D83122B711236CA
:102AE00054850908804C851882851983AC82AD8392
:102AF000120809803A851882851983AC82AD831249
:102B0000080F802B851882851983AC82AD8312084B
:102B100015801C851882851983AC82AD8312081B31
:102B2000800D851882851983AC82AD83120821E956
:102B3000F508E50860298E828F83A3E06414601F86
:102B4000850E82850F83E0900300122B7B123E9945
:102B5000900301123654E508A3122B83120473EE7E
:102B6000FAEFFB12079D023540F50CEF3400F50D2E
:102B700022123E9D85188285198322F08518828550
:102B8000198322F07C007D03850A82850B83123332
:102B9000EA2274EE12173A74FC1216CA8A0A8B0BD8
:102BA0008C0E8D0FEA2405F508EB3400F5097C1531
:102BB0007D0079007A007B03120FB9E5082402F545
:102BC0000CE509122B6C8518828519838582108586
:102BD0008311781012194D850882850983A3A3A358
:102BE000A312309612194DE5082405F510E50934B5
:102BF00000F511781012194D850C82850D83123362
:102C0000F012071974061216E08A108B11AE10AF7D
:102C100011E50A2402F50AE50B12363BEE4F70036C
:102C2000022D58801774021217161233E688828913
:102C300083EAF0A3EBF0900300E004F0900300E0DF
:102C4000C394054003022D58E4F510F511781012D5
:102C5000194D7510E9751102781012194D7510EAA9
:102C6000751102781012194D740612171612196494
:102C70007910EEFCEFFD1233E012083F74081216D3
:102C8000E0E9705E850882850983A3A3A3A3A3A3BB
:102C9000A3E0F89002E9E068704812309612194DEE
:102CA0007CEA7D02E5082408FAE5093400FB120FEE
:102CB000B374021216E0E960298E828F83A3A3A366
:102CC000A31233E6900300E0F51074027810121698
:102CD000B774012510F58274033511F583EAF0A36A
:102CE000EBF074021217168582108583117810128A
:102CF000194D7402121716121964850C82850D8302
:102D0000123EAE12072574041216E08A108B11AE23
:102D100010AF11900300E0F51075110074027810E7
:102D20001216B774002510F874033511F9888289DA
:102D300083A31228847003022C1CE82403F8E934CE
:102D400000F9EE4F6003022C258882898374FFF01E
:102D5000A3F0900300E004F0900300E0600A123357
:102D6000DC1204857900800B850882850983123680
:102D70004B790A02354074EA12173A74FE1216CAE9
:102D80008C128D13EA2405F50CEB1240181227F66D
:102D9000750800750900EA2402F510EB3400F511FE
:102DA00085188285198385820A85830B780A121912
:102DB0004D850C82850D83A3A3A3A3122F5812194E
:102DC0004DE50C2405F50AE50D12363B780A12197B
:102DD0004D850C82850D83123EAC120719740612C4
:102DE00016E08A0A8B0BEA450B7003022F09EA24CE
:102DF00004F50EEB122F4E1227F68A828B83A3A3C3
:102E0000A3E0F98510828511831233E6120707E9E2
:102E1000F5096003022F09E4F514F5157814121969
:102E20004D7514E9751502781412194D7514EA756B
:102E30001502781412194D740612171612196479B6
:102E400013AC0AAD0B8510828511831233E612088C
:102E50003F74081216E0E9F5096003022F09900299
:102E6000E9E0F8E5087009E02402900301F080171A
:102E7000900301E0FCE82402FAE43400FBEA6C7001
:102E800001EB6003022F0D850882AA8212308D9417
:102E9000141230855073850E82850F83E0C0E07474
:102EA000022A122F45D0E0F00508850E82850F8397
:102EB000A3E0C0E085080A7402250A122F45D0E07D
:102EC000F005089002E9122F5812194D7CEA7D0294
:102ED00085080A7402250AFA74033400FB120FA154
:102EE00074021216E09002E9E02508F50874FF6EFE
:102EF000700374FF6F6012EE24010EEF3400FFE5E3
:102F000008C394145003022DA0E50860131232D1B7
:102F10008510828511831233E612048B79008014A8
:102F2000E509700375090A851282851383EEF0A303
:102F3000EFF0A90974021216E07F0E02180C850842
:102F40000C7402250CF58274033400F583223400DE
:102F5000F50F850E82F58322123BDB2274EE1217E9
:102F60003A74FE1216CA8C0E8D0FEA2405F50CEB8E
:102F7000122B6C750B00900300E4F0F50AEA2402B2
:102F8000F508EB3400F5098049900300E0FA90025F
:102F9000E9E0F812308D9417123085400D9003004F
:102FA000E0F87416C3989002E9F012309612194DA9
:102FB0007CEA7D0274012AFA74033400FB120FA12B
:102FC00074021216E09002E9E0F8900300E028F0A5
:102FD000050AE50C2416F582E50D122F49E0F8E507
:102FE0000AC398400302306E900300E0C394165069
:102FF0007DE50AC333F8E433F9E50C28FEE50D3925
:10300000FF851882851983AC82AD838E828F8312EF
:1030100033E612071F8A108B11AC10AD11EC4D7006
:1030200005750B018043E4F510F511781012194D68
:103030007510E9751102781012194D7510EA7511A5
:1030400002781012194D74061217161219647916A7
:103050008508828509831233E612083F7408121628
:10306000E0E9F50B7003022F8912364780107C00CF
:103070007D038508828509831233E612049DA90B1E
:103080007402023542E99400C365D03322EA28F87D
:10309000E43400F9E822E0F510751100781022748C
:1030A000EA12173A74FC1216CA8A0C8B0D8C128D18
:1030B00013EA2405F50AEB12363B75080075090082
:1030C000E50A2402F510E50B3400F511740212171D
:1030D0001685820E85830F780E12194D850A82851A
:1030E0000B83A3A3A3A3123B8712194DE50A240562
:1030F000F50EE50B3400F50F780E12194D85108290
:103100008511831236411233E01207197406121624
:10311000E08A0E8B0FAE0EAF0FE50C2402F50EE524
:103120000D3400F50F80408882898374FFF0050814
:10313000122F3E74FFF005089002E9E0F50C750DC2
:1031400000780C12194D7CEA7D0285080C7402256A
:103150000CFA74033400FB120FA174021216E090F3
:1031600002E9E02508F508EE4F60718E828F83A397
:10317000A3A3E0F9850E82850F831233E6120707B9
:10318000E9F509EE2404122B69E97044E4F514F51D
:1031900015781412194D7514E97515027814121961
:1031A0004D7514EA751502781412194D740812172A
:1031B000161219647911EEFCEFFD850E82850F83DE
:1031C0001233E612083F74081216E0E9F509602789
:1031D000850C82850D831232C7123654E5087003C0
:1031E0000232AD1232D1850E82850F831233E61280
:1031F00004A379000232C2850882AA82EA9002E919
:103200007009E02404900301F08022E0F8900301AB
:10321000E0F514E82404FCE43400FDEC65147001CE
:10322000ED70C012308D941212308550B6850C822C
:10323000850D83E0C0E074022A122F45D0E0F0052E
:1032400008850C82850D83A3E0C0E0122F3ED0E0FC
:103250001232E385820C85830D780C12194D7404AB
:10326000121716121964851082851183123EAE1250
:10327000072574041216E08A0C8B0DAE0CAF0D8579
:10328000080C7402250CF874033400F9EE4F700337
:10329000023127851882851983E08882898312325A
:1032A000E3A3E0C0E0122F3ED0E0023135E5097023
:1032B0000375090A850A82850B831232C7123654B8
:1032C000A9097404022F36123E9D8512828513834C
:1032D00022900301E0F5F0E50884900300F07C0003
:1032E0007D0322F005088518828519832274EC126B
:1032F000173A74FE1216CA8A088B098C0E8D0FEAD3
:103300002405FEEB3400FF851882851983AC82AD5D
:10331000838E828F831233E612071F8A0A8B0BEE8D
:103320002418122B69EA450B70030233B7123529B2
:1033300050328518828519831233E61208338A10B9
:103340008B11EA4511606B7912AC0AAD0B850882CE
:103350008509831233E6851082851183121738E9B7
:10336000F50A7058E4F50AF50B780A12194D8E82A9
:103370008F83A3A3E0F50A780A12194DEE240312F5
:103380003638780A12194D8E828F831233F0120864
:103390004574061216E0E9F50A7021850C82850D48
:1033A00083E0701F8508828509831233E61204A921
:1033B0008011750A0E8009750A018004E50A600310
:1033C000123647850C82850D83E060047900800207
:1033D000A90A74021216E07F0C02180C7C007D030F
:1033E000850A82850B831233EA22E0FAA3E0FB22EE
:1033F000E0FCA3E0FD8508828509831233EA22748C
:10340000EE12173A74FE1216CA8A088B098C0C8DBC
:103410000DEA2405FEEB3400FF750E008518828549
:103420001983AC82AD838E828F831233E612071F1D
:103430008A0A8B0BEA450B700302351512352950A9
:10344000358518828519831233E61208338A0E8B6C
:103450000FEA450F605E7912AC0AAD0B85088285D4
:1034600009831233E6850E82850F83121738E9F53A
:103470000E600302351885088285098312372FAA4A
:103480000AFB1208278A108B11A810A911E84970AD
:103490001E7AFF7BFF1208278A108B11A810A91132
:1034A000E849606C88828983E50AF0A3E50BF07532
:1034B0000A008007750E0E805F050A9002E6E0FAAA
:1034C000E50AC39A504AE50A75F017A4FAABF088EA
:1034D000828983A3A3E02AFAA3E03BFB8A828B8341
:1034E000123641EC4D70D2750A17750B00780A122E
:1034F000194DEEFCEFFD120FA174021216E0EEFC66
:10350000EFFD8508828509831233E61204AF80142B
:10351000750E098003750E01123E95850C82850D8E
:1035200083123654A90E023080E5082402F508E51E
:10353000093400F5098A828B83A3A3A3E0A2E522C4
:1035400074041216E07F0A02180C74EC12173A8CFD
:10355000108D11EA2405F50CEB122B6C750F00EAA7
:103560002402F50AEB12363B850A82F5831233E614
:103570001208278A088B09EA4509700302362D755F
:103580000E008071850C82850D83E06401704F8E82
:10359000828F83A3A31219648E828F83A3A3A3A314
:1035A000E0F512751300781212194DEE2405F5128C
:1035B000EF3400F513781212194D1233E01208455A
:1035C00074061216E0E9F50F6014850C82850D83F0
:1035D000E4F0123E958510828511831236547C17D3
:1035E0007D007900EEFAEFFB120FB98E828F83E433
:1035F000F0A3F0050E9002E6E0F8E50EC398501E29
:10360000E50E75F017A4F8A9F0850882850983A353
:10361000A3124022123641EC4D6003023584850826
:103620008285098374FFF0A3F0E50F70061233E082
:103630001204B5A90F0233D7F50AEF3400F50B22B7
:10364000A3E0FCA3E0FD228E828F83123E9D850EB7
:1036500082850F83E8F0A3E9F022C082C083900244
:10366000E2E06A7003A3E06B70067AE27B028004FA
:103670007A007B00022947C082C08378008C828D4B
:1036800083E06A7003A3E06B7010E875F003A4F8A0
:10369000A9F0EC28FAED39FB8015088C828D83A304
:1036A000A3A3E06A7003A3E06B60DF7A007B0002F3
:1036B000294774F612173A1207F18A828B83E58242
:1036C000458370067A007B008007A3A3A3A312336F
:1036D000E6023D4674F212173AE9FE740E1217160E
:1036E00012372F7410121716123BA78C828D83E0AD
:1036F00064027036A3123EA3F50CA3E0F9A80C7483
:10370000026870037429697021750C02750D0078C8
:103710000C12194D780812194D780A12194DEEF94C
:1037200012086974061216E080027901023DCAE0AF
:10373000F50AA3E0F50B2274E812173A74FB12168F
:10374000CAE9851882851983F08A168B17ECFEED7D
:10375000FF751000741D121716123E99741D121772
:10376000161236548E828F83A3A3A3E0A2E4502DB9
:10377000741D1217161233E61208338A828B83E502
:103780008245837003023B78790AEEFCEFFDAA16AE
:10379000AB17121738E9F5106003023B7B741F1258
:1037A0001716123BA7742112171612372F74231203
:1037B0001716E0F50EA3E0F50F8E828F83E064020A
:1037C0006003023B26A3123E99850882850983A3E4
:1037D000858212858313EE2406122B6988828983E1
:1037E000E0FAA3E0F9EA2400F514E439F5157814B9
:1037F0001219D70100002801281B3807000228E011
:103800003803284D380029173A0129423A0229E3A2
:10381000390329173A0429C13A263BE50E450F60C2
:1038200003023B21850C82850D83123B9CFAE9FB48
:103830008A828B83E0850A82850B83123BD2121920
:103840004D8A828B83A3E0FCA3E0023AABE50E45F0
:103850000F6003023B21850A82850B837401F012FD
:103860003BAF850882850983F07C007D008E828FC6
:1038700083A3A3A3A3E02401FAA3E03400FB12076F
:103880001FEA4B60418A828B83E02402F8850A821A
:10389000850B83E028F0EA2404F8EB3400F98882F1
:1038A0008983E0851282851383123BE4123BD21296
:1038B000194D8A828B83123640E5082403FAE50904
:1038C0003400FB023AB0850A82850B83E02404F0C1
:1038D0007C047D007900AA12AB13120FB9023B7B66
:1038E000E50E450F6003023B21123BAFFEA3E0FF54
:1038F000850A82850B837404F0EE8508828509832E
:10390000F0EF851282851383F07403121716AC82D0
:10391000AD83EEFAEFFB12071F8A0C8B0DEA450D03
:1039200070030239C48A828B83A3A31227F2740125
:1039300012171685820E85830F780E12194D7405A5
:103940001217161219647CFF7DFF120725740412EA
:1039500016E08B0FEA450F7033850C82850D8312BC
:103960003B8712194D850C82850D83A31219647C47
:10397000027D007A547B8212055174041216E0E92C
:10398000700A740112171674FFF0A3F08E828F83F1
:10399000E064027039750C02750D00780C12194D37
:1039A0008E828F83123640E5082404FAE50934003C
:1039B000FB120FA174021216E0850A82850B83E0C8
:1039C000240280097401121716EEF0A3EFF07401BF
:1039D000121716123B98F07401121716A3123B909F
:1039E000023B1BE50E450F6003023B21850C8285DF
:1039F0000D83123641AA16AB1712085D850A82851F
:103A00000B837402F0EA850882850983F0851282AF
:103A1000851383EB023B1EE50E450F6003023B213D
:103A2000123BAFF8A3E0F9850A82850B837402F09C
:103A3000E8850882850983F0E9851282851383026F
:103A40003B1E850C82850D831233E6120F9BEAFC28
:103A50008C82A882C3950EE4950F405FE8650E70D6
:103A600002E50F70047C008022851882851983E0AE
:103A7000FAE50E2AFAE50F3400FBC3EA98EB94004E
:103A80005003E08005E50ECCC39CFCEC850A8285E2
:103A90000B83F08C0A750B00780A12194D850C8285
:103AA000850D83E0250EFCA3E0350FFDAA08AB09C8
:103AB000120FA174021216E0023B7B751007023B45
:103AC0007BE50E450F705A850C82850D83123E9959
:103AD000850A82850B8374071227FE123B901227FA
:103AE000FEA3E0851282851383F0E82402FAE9340C
:103AF00000FB8A828B83123B90123BBF123B98A340
:103B0000123BC8123BA1F0E82405F8E93400F9881B
:103B1000828983123BA1A3123BE4A3A3A3A3F08059
:103B20005A75100B8055741D1217161233E61207C2
:103B3000F18A828B83E5824583603D123E99880C31
:103B4000890DE8450D6031780E12194D780A121969
:103B50004D780812194D7406121716E0F9EEFCEFB5
:103B6000FDAA16AB17850C82850D831217387406D3
:103B70001216E0E9F510800375100EA910740512F5
:103B800016E07F1002180CE0F50E750F00780E227B
:103B9000E085088285098322123BEE22123E9DE8D1
:103BA00022123BEEA3A322E0F508A3E0F50922854B
:103BB0000C82850D83E0F8A3E0F5838882E022A3E0
:103BC000A3F08A828B83A322F088828983A3A3A394
:103BD000A322F08A828B83123BDB22E0F50A750B6D
:103BE00000780A22F088828983A3123BEE22E085C6
:103BF0000882850983A3A32274EE12173A74FE1279
:103C000016CA8A0A8B0BECFAEDFB7414121716E035
:103C1000F510A3E0F5117416121716E0FE741812D1
:103C20001716E0F50EA3E0F50F851882851983AC11
:103C300082AD8312071F8A0C8B0DEA450D60498502
:103C400018828519831233E61207F18A828B83E585
:103C5000824583602FA3A3123BA7E5084509602492
:103C6000780E12194D781012194DEEF9AC0CAD0DFD
:103C7000AA0AAB0B850882850983121738740412CF
:103C800016E08006790E8002790102308074F61207
:103C9000173A74FE1216CA740C121716123B9C8542
:103CA0001882851983F07401121716E9F0E4F508FB
:103CB000F509780812194D750802780812194D7423
:103CC00004121716858208858309780812194D1287
:103CD000084574061216E074021216E0806874F744
:103CE00012173AEAFEEBFF89087C197D0312085D82
:103CF000EA5402600BA908EEFAEFFB1207138002E8
:103D000079010226FA74F612173A74FF6A70037486
:103D1000FF6B70168C828D83123D4BE4F08C828D8C
:103D200083A3A3A3123D4BA3801812082D8A088BEE
:103D300009A808A909E849600D8882898374FF12DF
:103D400027FCA3A3E4F07F0202180C74FFF0A3F099
:103D50008C828D83A3A32274F612173A12082D8A3F
:103D6000828B83E58245836006A3A3E0FA80027A12
:103D7000007B0080D174F212173A8A088B09ECFE9E
:103D8000EDFF740E121716E0F50A12082D8A0C8B3F
:103D90000DA80CA90DE8497026EEFCEFFD7AFF7B1B
:103DA000FF12082D8A0C8B0DA80CA90DE849700490
:103DB0007911801688828983E508F0A3E509F088E7
:103DC000828983A3A3E50AF079007F0602180C74A8
:103DD000EE12173AEAFEEBFF8C088D09890C741479
:103DE000121716123E9974161217161233E6750D35
:103DF00000E8496003023E8D7402650C6003023ED8
:103E0000887412121716123EA3FCA3E0F9EC2400EA
:103E1000F50EE439F50FEAF4F8EBF4F9EC58F8E5AF
:103E20000F59F9E849705CE5082406F8ED3400F90B
:103E3000880A890B8882F583123EAE12085D8A10CB
:103E40008B11E50E65107004E50F65116042780E68
:103E500012194D850A82850B83123EAE12086374D7
:103E6000021216E0E9F50D7027780E12194D85083B
:103E700082850983A3A3123EAC12087B740212163A
:103E8000E0800D750D808008750D0D8003750D0B9C
:103E9000A90D0235458E828F83123E9D22E0F8A344
:103EA000E0F922123E9D88828983E022A3A3E0FCF0
:103EB000A3E0FDEEFAEFFB2274E812173A74E71262
:103EC00016CA851882851983EAF0A3EBF08C168D4B
:103ED00017890E7508007509007431121716E0F580
:103EE00012A3E0F5137433121716E0F514A3E0F5EE
:103EF000157435121716E0F50FE50975F003A4F8EF
:103F0000A9F0851882851983124022E0F47003A37A
:103F1000E0F47003024005EE2402F50CEF124018A5
:103F2000E0700302400585160A85170B780A1219FE
:103F30004DAC14AD15AA12AB131207E5740212169C
:103F4000E08A0A8B0BEA450B7003024005E4F5108A
:103F5000F511781012194D74061217168582108506
:103F60008311781012194D74091217168582108565
:103F70008311781012194D851282851383A3A3A390
:103F8000A31219647914AC0AAD0B8E828F8312339D
:103F9000E612083F74081216E0E97069850A828506
:103FA0000B83A3A3A3A3123E997402121716123611
:103FB00054850C82850D83E0A2E05018A90E74028E
:103FC000121716AC82AD838E828F831233E61207EE
:103FD00037E94208850C82850D83E0A2E15026E591
:103FE0000FF50A780A121951A90E7403121716ACAC
:103FF00082AD838E828F831233E6120731740112F1
:1040000016E0E942080509E509C394025003023E9F
:10401000F9A9087419023B7F3400F50D850C82F56F
:104020008322E028FEA3E039FF8E828F832274F280
:1040300012173AEAFEEBFF890B7401650B600E74F0
:1040400002650B706A7901120A3DE97062EEFAEFBF
:10405000FB1208278A088B09EA45096047750A00A0
:10406000800B7C177D007900120FB9050A9002E6DB
:10407000E0F8E50AC3985021E50A75F017A4F8A9FD
:10408000F0850882850983A3A3E028FAA3E039FB21
:104090008A828B8312294E70C985088285098374B0
:1040A000FFF0A3F07C197D03EEFAEFFB1208570234
:1040B0003DCA74F212173A8A088B09ECFEEDFF74C0
:1040C0000E12171612372F900B81E0F4603D7A091B
:1040D0007B00120FCBEA4B60328A828B8374B1F083
:1040E000A3E4123BC1A3123BBFA3E508F0A3E5097B
:1040F00012410EEEF0A3EF12410EA3A3E50AF0A3C6
:10410000E50BF0900B81E0F9120FD7023DCAF08A5F
:10411000828B83A3A3A3A3A322C082C083906190B8
:104120007404F0A37448F0A37402F09061807440AA
:10413000F09061BC7403F09061877419F09062652F
:10414000741BF0906249E0C3941390619C400A7420
:1041500009F090606674018007740DF0906066E469
:10416000F090619A7433F0A37455F09061A0743AA2
:10417000F090053FE064017009C2919003A6746756
:1041800080059003A67461F09026B6E49390618652
:10419000F09026B0E493F46027E493540FF8906114
:1041A00085E0686012E5C654804449F5C6E59E5432
:1041B0007F644970F8E8F053C680E59E547F70FA3A
:1041C0007905120D85024347C082C083E5A8F853E4
:1041D000A87E906181E4F0A3F0A3F0C2BA539AFEE6
:1041E000C289759B00C2C275E90075910075BF0058
:1041F00075A91175B905906181F0A374C0F0A3E4AD
:10420000F0D2BA439A0174805842A8024347C08250
:10421000C08374F81216CA9003A4E0F8A3E0F9E88A
:1042200049700302433C9003A4E0544060237908A2
:10423000851882851983AA82AB83120BF9851882AF
:10424000851983AA82AB831208ED9003A4E054BFC2
:10425000F0E054806010790C7A657B05120BF990C0
:1042600003A4E0547FF0E0A2E0503190619A7433EF
:10427000F0A37455F09061A0743AF090053FE064AB
:10428000017009C2919003A6746780059003A6741B
:1042900061F01208F39003A4E054FEF0E0540260D1
:1042A0003190619A743FF0A3745AF09061A0747FCA
:1042B000F090053FE064017009D2919003A67471FB
:1042C00080059003A6746AF01208F39003A4E054EA
:1042D000FDF0E0540460139026B4E493906186F0FE
:1042E0001208F99003A4E054FBF0E0540860139026
:1042F00026B5E493906186F01208F99003A4E05487
:10430000F7F0E0541060139026B6E493906186F0C5
:104310001208F99003A4E054EFF0E05420600A1270
:1043200008F99003A4E054DFF0A3E05401600D12FB
:104330000B211208FF9003A5E054FEF0740812163A
:10434000E0024347F0A3F0D083D08202011F74EC57
:1043500012173A74F41216CA851882851983AC8232
:10436000AD8375838275821F74041215DD9026B4A7
:1043700093F460030244DA907808E0C39402500397
:104380000244BA7404121716AC82AD83758381752A
:1043900082C174081215DD85188285198385821201
:1043A0008583137404121716AC82AD83750EFF75E6
:1043B0000FFF7FFF7E00750C48750D78801574081F
:1043C0006E700302444E74096E700302444E740A08
:1043D0006E607B850C82850D8378081215828C8235
:1043E0008D83A909E50AC9F8881074187808121491
:1043F000B0E5104508F8C3E098A3E099850C8285E4
:104400000D83780812158240188C828D8374187879
:10441000081214B0E5104508F8E0C398F8A3E0804E
:104420001C741878081214B0E5104508FAE9FB8CE2
:10443000828D83E0F8A3E0F9EAC398F8EB99F9C319
:10444000E8950EE9950F5006880E890FEEFF0EE5F0
:104450000C2404F50CE50D3400F50DEEC394135057
:10446000030243BE74FF650E700474FF650F602382
:104470008F08740278081216B774482508F58274FC
:10448000783509F5837808121582851282851383A1
:10449000E508F0EC2402FCED3400FD851282851362
:1044A00083A3858212858313740C121716E5826C20
:1044B0007003E5836D60030243AC75080175090064
:1044C000780812194D7402121716AC82AD837AADBA
:1044D0007B091211A574021216E0740C1216E07F0B
:1044E0000C02180CC082C0839061AE7468F0A37493
:1044F0006AF090624574FBF0A304F053F4FD43FEB0
:104500000290053F7401F09061A0E0643A90619AD6
:1045100070237433F0A37455F09061A0743AF07472
:104520000164017009C2919003A67467802890030A
:10453000A674618021743FF0A3745AF09061A07456
:104540007FF0740164017009D2919003A6747180A8
:10455000059003A6746A0243467F0802180CC082C5
:10456000C0839004F1E06401700A9004F6E06004F6
:10457000790C80027900024347C082C08375E1F163
:104580009004F4E0605B14600914605F14605714D9
:10459000705E120B339004EAE0F97AEB7B04120DA3
:1045A000077AD67BBE7C897D8E120D3D7A557B5570
:1045B0007C557D00120D139004F5E0F9120D1F7962
:1045C00001120D799004E8E0F8A3E0C82416F58202
:1045D000E83400F583744BF0A3740BF079000243C8
:1045E00047120B3980AF120B3F80AA120B4580A5F2
:1045F000791280EA74F012173A75D90D9004D5E05B
:10460000A2E0E4331313F89004EAE0C4333354C057
:10461000484401F5D978E8790488828983A3A3A363
:10462000E0F5D988828983A3A882A983E864EE7023
:1046300003E9640470E378D5790488828983A3E070
:10464000F5D988828983A3A882A983E864DB7003F3
:10465000E9640470E575E1959004D5E0F97AD67BBC
:1046600004120D0D900BA374E5F0A3740AF0A3746B
:1046700041F0A3740CF0A37441F0A3740CF0A37484
:1046800041F0A3740CF0A374EBF0A3740AF0A374CC
:1046900041F0A3740CF0A37403F0A3740BF0900B1F
:1046A000B17441F0A3740CF0A37441F0A3740CF046
:1046B000A37441F0A3740CF0A37441F0A3740CF044
:1046C000A37441F0A3740CF0A37441F0A3740CF034
:1046D0009004F4E064019004E87012E0F8A3E0F5BF
:1046E000838882A3A37508007509088010E0F8A3E9
:1046F000E0F5838882A3A3750804750900750A0094
:10470000750B0078081214FB750CFF750DFF750E04
:10471000FF750F007808790C1215499004E8E0F84D
:10472000A3E0C8240EF582E83400F583780812155A
:10473000919004E8E0F8A3E0C82414F582E834007E
:10474000F5837413F09003A27402F002455974F7D4
:1047500012173A9004FAE02407F5D99004EAE0C46D
:10476000333354C0F5D978E8790488828983A3A3C8
:10477000A3E0F5D988828983A3A882A983E864EE9F
:104780007003E9640470E39004FAE0601F78E8794C
:1047900004FAE82413F582E93400F583E0F5D988BA
:1047A000828983A3A882A9831AEA70E690051AE099
:1047B0002407F5D99004EAE0C4333354C04404F527
:1047C000D978E8790488828983A3A3A3E0F5D988FE
:1047D000828983A3A882A983E864EE7003E9640454
:1047E00070E390051AE0601F78E87904FAE8243352
:1047F000F582E93400F583E0F5D988828983A3A89E
:1048000082A9831AEA70E675E195900BA374F1F022
:10481000A3740AF0A37441F0A3740CF0A37441F0E4
:10482000A3740CF0A37441F0A3740CF0A374EBF028
:10483000A3740AF0A37441F0A3740CF0A37403F002
:10484000A3740BF0900BB17441F0A3740CF0A3743B
:1048500041F0A3740CF0A37441F0A3740CF0A374A2
:1048600041F0A3740CF0A37441F0A3740CF0A37492
:1048700041F0A3740CF09004E8E0F8A3E0C8240E23
:10488000F582E83400F58374FFF0A3F0A3F0A3F001
:104890009004E8E0F8A3E0C82414F582E83400F5B9
:1048A000837412F09003A27401F0FF02180C74F7E5
:1048B00012173A9004FAE02407F5D99004EAE0C40C
:1048C000333354C04402F5D978E879048882898367
:1048D000A3A3A3E0F5D988828983A3A882A983E84A
:1048E00064EE7003E9640470E39004FAE0601F78FA
:1048F000E87904FAE82413F582E93400F583E0F559
:10490000D988828983A3A882A9831AEA70E675E10F
:1049100095900BA374FDF0A3740AF0A374FDF0A3AB
:10492000740AF0A374FDF0A3740AF0A374FDF0A35D
:10493000740AF0A374FDF0A3740AF0A374FDF0A34D
:10494000740AF0A37403F0A3740BF0900BB17441DC
:10495000F0A3740CF0A37441F0A3740CF0A37441A1
:10496000F0A3740CF0A37441F0A3740CF0A3744191
:10497000F0A3740CF0A37441F0A3740CF09004E85D
:10498000E0F8A3E0C8240EF582E83400F58374FF54
:10499000F0A3F0A3F0A3F09004E8E0F8A3E0C824AB
:1049A00014F582E83400F5837414F09003A27404C3
:1049B000F0024C7574F712173A9004FAE02407F5E8
:1049C000D99004EAE0C4333354C04406F5D978E8FA
:1049D000790488828983A3A3A3E0F5D98882898397
:1049E000A3A882A983E864EE7003E9640470E390ED
:1049F00004FAE0601F78E87904FAE82413F582E904
:104A00003400F583E0F5D988828983A3A882A9833D
:104A10001AEA70E690051AE02407F5D99004EAE056
:104A2000C4333354C04404F5D978E87904888289C2
:104A300083A3A3A3E0F5D988828983A3A882A9834D
:104A4000E864EE7003E9640470E390051AE0601F07
:104A500078E87904FAE82433F582E93400F583E054
:104A6000F5D988828983A3A882A9831AEA70E6759A
:104A7000E195900BA374F7F0A3740AF0A37441F0CE
:104A8000A3740CF0A37441F0A3740CF0A37441F070
:104A9000A3740CF0A37441F0A3740CF0A37441F060
:104AA000A3740CF0A37403F0A3740BF0900BB17417
:104AB00041F0A3740CF0A37441F0A3740CF0A37440
:104AC00041F0A3740CF0A37441F0A3740CF0A37430
:104AD00041F0A3740CF0A37441F0A3740CF09004A3
:104AE000E8E0F8A3E0C8240EF582E83400F583740A
:104AF000FFF0A3F0A3F0A3F09004E8E0F8A3E0C86F
:104B00002414F582E83400F5837415F09003A27440
:104B100003F0024C75C082C0839004E8E0F8A3E083
:104B2000C82406F582E83400F583E402434474F7B0
:104B300012173A9003D0E0F875F003A4C8AAF02A3F
:104B4000F974D228F8740339F9E82405FAE9340035
:104B5000FB8A828B83E0FCA3E0FD88828983A3A388
:104B6000A3A3A3A3A3A3A3ECF0A3EDF0888289835E
:104B7000A3A3A3A3A3A3A3E024FFF8A3E034FFF916
:104B80008A828B83E8F0A3E9F0024C7574F7121760
:104B90003AEAFEEBFF9061D0E06003024C6975D900
:104BA0000E75D90375D904EE248BF582EF3400F528
:104BB00083E5822408F8E5833400F9E0F5D9A3E819
:104BC00065827003E9658370F2EE2483F582EF3429
:104BD00000F583E5822404F8E5833400F9E0F5D993
:104BE000A3E865827003E9658370F275E195790841
:104BF000EE248BFAEF3400FB120BED7904EE2483E4
:104C0000FAEF3400FB120BED7C00EEF8EFF9ECFA52
:104C1000C3E49AFA95E0FBEE2AFAEF3BFBEA248A1A
:104C2000F582EB3400F583E0C0E0E824AAF582E9E0
:104C30003400F583D0E0F00C88828983A3A882A990
:104C400083ECC3940840C7EE246FF582EF3400F57F
:104C500083E0F8A3E0F9EE2471F582EF3400F583E8
:104C6000E8F0A3E9F07901800279008008F0EEA273
:104C7000E092AF79007F0102180CC082C08375D921
:104C80000275D90375D90575E195EA246FF582EBB4
:104C90003400F583E0F8A3E0F9EA2471F582EB34FF
:104CA00000F583E8F0A3E9F0790102434774F612B6
:104CB000173AEAFEEBFF9005457406F07508457556
:104CC0000905780812194D7C017903120C3574021C
:104CD0001216E075D90675D903758245758305E00E
:104CE000F5D9A3E582644A7004E583640570F07524
:104CF000E1959003A2E06408701EEE246FF582EF48
:104D00003400F583E0F8A3E0F9EE2471F582EF3486
:104D100000F583E8F0A3E9F07901024F7B74F61205
:104D2000173AEAFEEBFF9061D0E0706678019005DB
:104D300045740BF09003A2E064077019750845757F
:104D40000905780812194D7C017903120C3574029B
:104D50001216E07805740128F5D975D903758245D6
:104D6000758305E8FAE0F5D9A31AEA70F875E195BC
:104D7000EE246FF582EF3400F583E0F8A3E0F9EE5E
:104D80002471F582EF3400F583E8F0A3E9F07901AE
:104D900080027900024F7B74F712173AEAFEEBFFAC
:104DA00075D90375D90375D90DEE24DDF582EF347D
:104DB00000F583E0F5D975E1957904120D43EE24F1
:104DC0006FF582EF3400F583E0F8A3E0F9EE24718B
:104DD000F582EF3400F583E8F0A3E9F07901024CA5
:104DE0007574F612173AEAFEEBFF9061D0E0F874A2
:104DF00080C398FAEE2482F582EF3400F583E060F8
:104E000004780480027800E8240BF8EAC398500381
:104E1000024EA67D09900545EDF0EE24E2F8EF3450
:104E200000F97A467B057C0888828983E08A828B38
:104E300083F088828983A3A882A9838A828B83A333
:104E4000AA82AB831CEC70E0EE2482F582EF340082
:104E5000F583E0601D750845750905780812194D40
:104E60007C097903EEFAEFFB120C3574021216E09E
:104E70007D0D74012DF5D975D903758245758305AE
:104E80008D08E0F5D9A31508E50870F675E1957968
:104E900004120D43EE241DF582EF3400F583E4F097
:104EA000A3F0790180027900024F7B74F612173A61
:104EB000EAFEEBFF9061D0E0F87480C398FAEE242C
:104EC00082F582EF3400F583E06004780480027894
:104ED00000E82408F8EAC3985003024F7978069056
:104EE0000545740CF09003BFE0900546F09003C0B8
:104EF000E0900547F09003C1E0900548F09003C2B0
:104F0000E0900549F09003C3E090054AF0EE24825A
:104F1000F582EF3400F583E0601B750845750905DF
:104F2000780812194D7C067903EEFA120C357402DA
:104F30001216E0780A740128F5D975D903758245EF
:104F40007583058808E0F5D9A31508E50870F6759E
:104F5000E1957904120D43EE246FF582EF3400F5EC
:104F600083E0F8A3E0F9EE2471F582EF3400F583D5
:104F7000E8F0A3E9F07901800279007F0202180CC1
:104F800074F612173AEAFEEBFF9061D0E0F87480F5
:104F9000C398FAEE2482F582EF3400F583E06004D2
:104FA000780480027800E82404F8EAC398500302E9
:104FB000505A7802900545E8F0EE24F4F582EF347B
:104FC00000F583E0900546F0EE2482F582EF340090
:104FD000F583E0601B750845750905780812194DC1
:104FE0007C027903EEFA120C3574021216E0780690
:104FF000740128F5D975D90375824575830588082C
:10500000E0F5D9A31508E50870F675E195EE24736F
:10501000F582EF3400F583E4F0EE247FF582EF347F
:1050200000F583E4F0EE241DF582EF3400F583E40F
:10503000F0A3F07904120D43EE240DF582EF340055
:10504000F583E0F8A3E0F9EE2471F582EF3400F582
:1050500083E8F0A3E9F0790180027900024F7B74C4
:10506000F612173A9061D0E0F87480C398FCEA24F5
:1050700082F582EB3400F583E060047804800278E6
:1050800000E82404F8ECC398405B7902900545746D
:1050900007F0EA24F5F582EB3400F583E09005464D
:1050A000F0EA2482F582EB3400F583E0601875089D
:1050B00045750905780812194D7C0209120C3574E2
:1050C000021216E07906740129F5D975D9037582A3
:1050D00045758305E9F8E0F5D9A318E870F875E19E
:1050E00095790180027900024F7B74F512173AE935
:1050F000FCA2AFE433F50AC2AF7D0080010DEA24C3
:105100006EF582EB3400F583E0F8EDC398501A8D0C
:1051100008EA2508F8EB3400F9E8246AF582E93456
:1051200000F583E06C70D68024EA246EF8EB34003E
:10513000F9E0FEEA2EFAEB3400FBEA246AF582EB92
:105140003400F583ECF088828983E004F0E50AA25C
:10515000E092AF7F0302180C74F612173AA2AFE484
:1051600033FDC2AFEA246EF582EB3400F583E01420
:10517000F07C0060368C08EA2508F8EB3400F9E88A
:10518000246BF582E93400F583E0C0E0E8246AF599
:1051900082E93400F583D0E0F00CEA246EF582EB6E
:1051A0003400F583E0F8ECC39840CAEA246DF58238
:1051B000EB3400F58374FFF0EA2469F582EB3400E8
:1051C000F583E4F0EDA2E092AF024F7BC082C08392
:1051D000E5A8F8C2AFEA246AF582EB3400F583E96A
:1051E000F0EA2469F582EB3400F583E4F0E8A2E705
:1051F000A2E792AF02434774F312173AEAFEEBFFBD
:10520000ECFAEDFB8A828B83A3A3A3A3E0541FF0E7
:10521000EE2436F582EF3400F583E4F0F50AEEFC77
:10522000EFFD8A828B83E0C0E0EC245DF582ED34F3
:1052300000F583D0E0F0750B00E50A33333354F802
:10524000F50C8A828B83E0F508750900E50B780878
:10525000121698E508A2E0502FEE2436F8EF34003D
:10526000F988828983E0F508EE2508F508EF340017
:10527000F509E5082438F582E5093400F583E50CE5
:10528000F088828983E004F0050B050CE50BC394DC
:105290000840AF050A8A828B83A3AA82AB838C82E3
:1052A0008D83A3AC82AD83E50AC3940550030252FB
:1052B000227F0502180C74F712173A9003CEE064AF
:1052C0000170030254147A009003D4E06003025486
:1052D000147401F0A3E4F0A3F090043404F09004FB
:1052E00039F09003D7E4F0A3F0A3F0A3F09003E12A
:1052F00004F0900407E4F09003EAF0A3F0A3F0A315
:10530000F0A3F0A3F0A3F0900451F0900445F090C6
:10531000043A7480F0A3E4F0900440F09004BCF0F0
:10532000A3F0A3F0A3F0A3F0A3F0A3F0A3F09004E4
:10533000C5F0900454F09004A4F0A3F0A3F0A3F0FF
:10534000A3F0A3F0A3F0A3F0A3F0A3F09004B0F0B7
:105350009004B2F09004AEF09004C8F0A3F0A3F073
:10536000A3F0A3F0A3F0A3F0A3F078CE7903E82490
:105370006EF582E93400F58374FFF00A8882898330
:10538000A3A882A983EAC3940440E37ACE7B03787E
:10539000DC790488828983E0C0E0EA2461F582EB4D
:1053A0003400F583D0E0F088828983A3A882A983A2
:1053B0008A828B83A3AA82AB83E864E17003E964E9
:1053C0000470D07ACE7B0378B5790388828983A371
:1053D000E0C0E0EA24E6F582EB3400F583D0E0F0AB
:1053E00088828983A3A882A9838A828B83A3AA82C5
:1053F000AB83E864BD7003E9640370CF9003CEE033
:1054000004F0640170089003D6E09003D0F07AD2E3
:105410007B0380047A007B00024C75C082C08390BD
:1054200003D5E4F09003D4F09003CEF0A3F0A3747E
:10543000FFF075E1F1024347C082C0837800790034
:105440009003D5E0600478D2790388828983A3A38E
:10545000A3A3E0F902434774F612173AEAFEEBFF02
:10546000EE2463F582EF3400F583E0F8A3E0F9E879
:105470004970030254FCEE2463F8EF3400F97A001B
:105480007B00A2AFE433F508C2AF88828983E0FCD9
:10549000A3E0FDEC4D603A88828983E0FAA3E0FB4B
:1054A0008A828B83E0FCA3E0FD88828983ECF0A3F1
:1054B000EDF08A828B83E4F0A3F088828983E0FC9C
:1054C000A3E0FDEC4D700A88828983A3A3E4F0A3D6
:1054D000F0E508A2E092AF12124D9004E2E004F071
:1054E0009004E3E004F0EE2463F582EF3400F583EA
:1054F000E0F8A3E0F9E84960030254768E828F83D6
:10550000A3A3A3E0600F8E828F83A3A3A3E4F090F4
:1055100003CFE014F09003CEE014F070069003D0B7
:1055200074FFF08E828F83A3A3E4F09004E1E07017
:105530000D9003CFE0640170057900120D25EEFA9D
:10554000EFFB120C65024F7B74F712173AEAFEEB81
:10555000FF8E828F83A3A3A3A3E0FA7B00120941ED
:10556000EEFAEFFB120BB7120C4D024C75C082C065
:105570008378B5790388828983A3E4F0888289835C
:10558000A3A882A983E864BD7003E9640370E69070
:1055900003B6740102434674F612173AEAFEEBFFB3
:1055A000EC2403F8ED3400F988088909EC2407F8A5
:1055B000ED3400F9E8FCE9FD8C828D83E0F8A3E08E
:1055C000F9850882850983E0FAA3E0FB12163FEE15
:1055D000240DF582EF3400F583E8F0A3E9F08C8226
:1055E0008D83E0F8A3E0F9850882850983E0FAA3BA
:1055F000E0FB12163F8B09EA45096013EE240DF516
:1056000082EF3400F583E02401F0A3E03400F002DF
:105610004F7B74F612173AEAFEEBFFEE242EF5826A
:10562000EF3400F583E0FCA3E0FD780079FAECFAB2
:10563000EDFB12163FEE246FF582EF3400F583E8A0
:10564000F0A3E9F0780079FAECFAEDFB12163F8B43
:1056500009EA45096013EE246FF582EF3400F58303
:10566000E02401F0A3E03400F0024F7B74EC121749
:105670003AEAFEEBFF74141217167808121582121C
:105680000CE98A0C8B0D8C0E8D0F751002751100B4
:10569000751200751300780C79101214E87510FF5C
:1056A0007511FF7512FF780C7910121549780C12DC
:1056B00019498E828F83E0F8A3E0F5838882A3A343
:1056C0001215A012235974041216E0E96003025760
:1056D000D08E828F83E02402F8A3E03400F9E8FA48
:1056E000E9FB8A828B83780812150E8A828B837578
:1056F00008FF7509FF750AFF750B00780812156F12
:10570000EE240BF582EF3400F583C082C0838E82D5
:105710008F83A3A3A3A3A3E02401F8A3E03400F99B
:10572000D083D082E0687003A3E06970057901023C
:1057300057D28E828F83A3A3A3A3A3A3A3E02401A4
:10574000F0A3E03400F0EE2473F582EF3400F5832B
:10575000E064017036EE2474F582EF3400F583E0E6
:10576000F8A3E0F98E828F83A3A3A3A3A3A3A3E04E
:10577000687003A3E0697013EE2474F582EF3400BF
:10578000F583E02401F0A3E03400F0EE247FF582FD
:10579000EF3400F583E064017036EE2480F582EF8B
:1057A0003400F583E0F8A3E0F98E828F83A3A3A3EE
:1057B000A3A3A3A3E0687003A3E0697013EE2480A1
:1057C000F582EF3400F583E02401F0A3E03400F02B
:1057D00079000244DF74F612173AE9FEECFFEA247E
:1057E00062F582EB3400F583E06401600302587EC9
:1057F0009061D0E0F508EA2482F582EB3400F5836D
:10580000E060047804800278007480C39508FC95F9
:10581000E0FDEF28F8E43400F9E82402F8E9340068
:10582000F9EC98ED99A2D265D033404E740A121764
:1058300016E0F508A3E0F509EA2482F582EB3400CE
:10584000F583E06015780812194DEFFCEEF9120CA3
:105850003574021216E074042FFF74012FF5D98EEF
:10586000D9EF600F850882850983F8E0F5D9A31880
:10587000E870F875E195790080067907800279FF74
:10588000024F7B74F712173AA2AFE433FEC2AF8A1D
:10589000828B83E0F8A3E0F9E8498A828B83600A6F
:1058A000A3A3E0F8A3E0F5838882ECF0A3EDF08AEF
:1058B000828B83A3A3ECF0A3EDF08C828D83E4F0C4
:1058C000A3024C6D74F712173AE96021F88C828DAF
:1058D00083E08A828B83F08C828D83A3AC82AD833C
:1058E0008A828B83A3AA82AB8318E870E0ECFAED7E
:1058F000FB024C7574F412173A907803E06442701E
:1059000055900544E014F0704DC2AF12590E007866
:105910002AD0E0F618D0E0F6E59F54077005750927
:10592000FF800375097FC4C0E07829E6F50808E622
:105930005509F509740B78081216A8D0E02508F867
:10594000906270E0A2E740F8E8C333906272F09092
:105950006270E0D2E0F09003D0E0F47003025CEEFD
:10596000E0F875F003A4C8AAF02AF974D228FE74EE
:105970000339FFEE2401F582EF3401F583E0F8A34B
:10598000E0F9E849601EEE2401F582EF3401F58369
:10599000E0FAA3E0FBEE2400F582EF3401F583E0AA
:1059A000F9120FFB8E828F83A3A3A3A3A3A3A3E06B
:1059B000F8A3E0F98E828F83A3A3A3A3A3E8F0A3A7
:1059C000E9F0906054E09003A9F0906055E09003F6
:1059D000AAF0906056E09003ABF0906057E090031F
:1059E000ACF0906058E09003ADF0906059E0900307
:1059F000AEF090605AE09003AFF090605BE09003EF
:105A0000B0F090605CE0FC9003B1F090605DE0FB72
:105A10009003B2F090605EE0FD9003B3F090605FA1
:105A2000E0FA9003B4F09003AFE08C082508F8E4A6
:105A30003400F98D08E82508F8E93400F98B08E806
:105A40002508F8E93400F98A08E82508FAE934005D
:105A5000FBEE24F6F582EF3400F583E02AF0A3E0B4
:105A60003BF08C08EE24F8F582EF3400F583E02556
:105A700008F0A3E03400F0EE24FAF582EF3400F5EC
:105A800083E02401F0A3E03400F0EE24FEF582EF81
:105A90003400F583E0F8A3E0F9E849604290600043
:105AA000E0C333FCE433FDE82CF582E93DF583E007
:105AB0002AF0A3E03BF0906000E0FA9003B1E0FC34
:105AC000EAC333FAE433FBE82AF8E93BF9E8244A6D
:105AD000F582E93400F583E02CF0A3E03400F09087
:105AE00003AFE070119003B2E0700BA3E07007A366
:105AF000E07003025BEB8E828F83A3A3A3A3A3E0DA
:105B0000F8A3E0F9EE240DF582EF3400F583E028E8
:105B1000F8A3E039F9EE240BF582EF3400F583E8C1
:105B2000F0A3E9F0EE240FF582EF3400F583E4F002
