:020000040000FA
:060000000201070221D7F6
:03002B0002264F5B
:0300330002263171
:03003B000226702A
:030043000225E5AE
:0300530002224A3C
:03006B0002260B5F
:10008300022043E5C754F84401F5C7790122000073
:100093000080FB120086B900030200F1E4792178A5
:1000A30008B800028004F709D8FCE479297802B87B
:1000B30000028004F709D8FCE490028178437909AF
:1000C3008002F0A3D8FCD9FA7AC37B0A900137786F
:1000D3003F79048015E493A3AD82AE838A828B8338
:1000E300F0A3AA82AB838D828E83D8E9D9E7758288
:1000F300FC7583A6740312011975829175830074CC
:100103000012011975D00075813F751881751902A8
:10011300759F00020096C09FF59FE473D09F22D085
:1001230083D082C09FE493C0E0740193C0E0740263
:1001330093F59F22FF0000B4000028002800283018
:1001430075A000A000A000A00000080008E001F0D6
:10015300001000100010001000100010005000509C
:1001630000500010001000D0070000000000000F36
:100173000001000500307507001000010081FF0039
:10018300000000FF730691067906FF0202020802CF
:100193005000A0000000E8030252820100004182E7
:1001A300024C820100001A0B025C82010000B302C0
:1001B300024C820100001B0B025482010000C902A1
:1001C300024C820100001C0B024482010000CB029E
:1001D300024C820100001D0B024682080000CC0283
:1001E300024C820100001E0B0248820100001F0B1B
:1001F300FF0100FF200252820100003B82024C8279
:10020300010000830B024A820000000000026682A4
:100213000300001903430C430C430C430C430C43EE
:100223000C430C430C430C430C430C430C430CC5D1
:100233000EDD0EBF0EFFFF020202020202020202E5
:10024300010D0000001001025282010000D9810259
:100253004C82010000C60B0258820100005D0702B8
:100263004C82010000C70B0250820100005D810235
:100273004C82010000C80B025E820100004F810224
:100283004C82010000C90B026082010000DF800282
:100293004C82010000CA0B026482010000CD80027F
:1002A3004C82010000CB0B026C82010000A980028A
:1002B3004C82010000CC0B026E8201000097800289
:1002C3004C82010000CD0B027082010000418102CB
:1002D3004C82010000CE0B027282010000CF0B01A1
:1002E300E803053F100AFF00013075030201060011
:1002F30000000000000000000000000000000000FB
:100303000000000000000000000000FFFF06008066
:100313000CE803140953696D706C65424C455065D4
:10032300726970686572616C051250002003020ADD
:10033300000201060302F0FF091601020304050689
:10034300070853696D706C6520424C4520506572F7
:100353006970686572616C4B13000051130A43683E
:100363006172616374657269737469632031000239
:10037300436861726163746572697374696320327F
:1003830000084368617261637465726973746963B9
:10039300203300104368617261637465726973741A
:1003A3006963203400024368617261637465726932
:1003B300737469632035000A43686172616374650D
:1003C300726973746963204465766963654E616D10
:1003D30065000252820100003E82024C820100004D
:1003E300EC0C027682030000A00A02808201000066
:1003F300ED0C024C82010000FE0C02788201000029
:10040300A10A028082010000FF0C024C820100005D
:10041300100D027A82020000A20A0280820100000B
:10042300110D024C82010000220D027C82000000AB
:10043300A30A026682030000A40A0280820100006C
:10044300230D024C82010000340D027E8204000061
:10045300AA0A028082010000350D024C82010000CD
:10046300460D026882030000AF0A02808201000089
:10047300470D1201221E7E00120122357E00120159
:1004830022667E00120122A17E00120122CB7E0091
:10049300120122F57E001201220C7F001201222399
:1004A3007F001201223A7F00120122637F001201B2
:1004B30022767F001201228C7F001201229F7F008F
:1004C300120122C67F00120122B7A702120122BB2A
:1004D300A802120122F3A80212012216A902120194
:1004E3002221A90212012244A90212012253AA02C3
:1004F30012012228AB02120122A3AB021201222B0A
:10050300AC0212012266AC021201229DAC0212015E
:10051300222BAD0212012204AE0212012264AE02AA
:100523001201226FAE02120122EEAE02120122F17B
:10053300AE02120122F4AE0212012283AF021201B3
:100543002286AF02120122B6AF02120122E0AF02ED
:10055300120122CEB00212012280B102120122D76F
:10056300E302120122FFE3021201222DE40212012F
:100573002264E402120122C2E4021201220DE50206
:1005830012012258E50212012298E502120122DE2D
:10059300E5021201220CE602120122C9E60212014F
:1005A30022D3E602120122E0E60212012213E7023D
:1005B300120122DFE702120122EBE70212012203FA
:1005C300E8021201220DE80212012265A2031201C0
:1005D3002273A2031201228BA203120122A3A203FC
:1005E30012012223BA01120122CFBA011201224AB7
:1005F300BB011201226BBC01120122A7BC01120133
:100603002250BD0112012237BE011201229BBF01FC
:10061300120122F2BF0112012273C00112012263EF
:10062300C101120122B0C10112012236C20112011D
:100633002268C2011201227CC401120122BEC4013C
:10064300120122DCC4011201225FC501120122330F
:10065300C601120122FBC601120122BFD1021201FF
:100663002292D2021201223BD3021201228ED30222
:100673001201223ED402120122CAD402120122B66E
:10068300D502120122E5D502120122F8D602120187
:100693002240D70212012215D80212012251D80298
:1006A3001201226DD80212012240A5031201220079
:1006B30080031201221680031201223C80031201DF
:1006C30022588103120122628103120122978203BD
:1006D3001201228F8303120122B0DE02120122E0F3
:1006E300DF0212012213E0021201225DE002120175
:1006F3002224E2021201222F6E00120122996E00BF
:10070300120122F86F001201220870001201223533
:1007130070001201228C7000120122357100120147
:10072300223C720012012206730012012266740039
:10073300120122A974001201224E75001201229B9C
:100743007500120122C17500120122CF7700120138
:1007530022D47700120122D97900120122267A00CD
:10076300120122997A00120122CC7A001201226E20
:100773007B00120122177C001201224F7C00120120
:1007830022527C001201229A7C00120122DA7C00A0
:10079300120122317D00120122128D031201222A3D
:1007A3008D03120122728D03120122888D0312011F
:1007B30022CF8D03120122E38E03120122708F03D5
:1007C300120122BB8F03120122E42600120122F040
:1007D30026001201222B270012012270270012018A
:1007E30022302800120122B628001201221B290000
:1007F300120122472900120122802900120122BE80
:100803002B00120122A22D00120122882F001201B7
:1008130022CB30001201221933001201222B3400A3
:10082300120122763500120122863600120122A31C
:100833003600120122DE36001201220037001201B7
:1008430022633700120122243C00120122B93C002A
:100853001201220A3D00120122313D0012012283BE
:100863003D00120122A13D00120122FB3D001201B5
:1008730022E43E001201225A4000120122DE40000F
:1008830012012294E8021201229EE802120122E1DF
:10089300E802120122FCE8021201228CE902120191
:1008A30022B4E902120122F1E90212012228EA022A
:1008B30012012251EA02120122C6EA02120122DBCC
:1008C300EA02120122F0EA0212012221EB021201D2
:1008D3002235EB021201225AEB0212012294EB029F
:1008E300120122C0EB02120122F8EB02120122775D
:1008F300EC02120122C0EC02120122EAEC02120104
:100903002215ED02120122B1FE01120122E49A0224
:10091300120122129B02120122609C021201224048
:100923009D021201225F9D02120122DC9D0212012F
:10093300221F9E02120122759F0212012236A0027B
:10094300120122BDA2021201225EA302120122544D
:10095300A40212012251A502120122ABA602120126
:100963002236A7021201220F9F03120122789F034E
:10097300120122CC9F03120122F39F0312012224AE
:10098300A0031201223DED02120122AAED0212017F
:1009930022F1ED0212012209EF0212012205F002F7
:1009A300120122E8F002120122F1B10212012233F4
:1009B300B20212012205B302120122DEB3021201B6
:1009C30022D8B402120122BAB50212012223B602BE
:1009D300120122D9B6021201224DB702120122B925
:1009E300B702120122E2B7021201225CB80212011D
:1009F30022F5B8021201225AB9021201226FB9027A
:100A0300120122B5B902120122CEB9021201223318
:100A1300BA0212012236BA02120122198A03120102
:100A230022418A031201227F8A031201223D8B0392
:100A3300120122A48B03120122C08B03120122E8AC
:100A43008B03120122188C03120122278C0312013B
:100A530022A48C03120122CA8C03120122C1AA010F
:100A63001201229FAC01120122D1AE011201220D0B
:100A7300AF011201223AAF0112012224B001120187
:100A8300226FB001120122BAB001120122CCB001CF
:100A93001201220CB10112012241B1011201228F74
:100AA300B101120122BEB101120122E1B101120111
:100AB300222EB201120122B3B201120122CDB401DE
:100AC3001201220CB7011201224DB701120122EFCC
:100AD300B80112012230B901120122A3B901120196
:100AE30022F9B901120122CF8D02120122CD8E0209
:100AF30012012266950212012287970212012252E5
:100B03009902120122BA9A021201224541001201EE
:100B130022F441001201223A42001201227A4300D8
:100B23001201221045001201228A4500120122A55A
:100B330045001201222046001201227A47001201C9
:100B430022DA4800120122E04900120122414B003F
:100B53001201225A4B00120122B84B00120122A6A5
:100B63004C00120122D94C00120122494D001201FE
:100B730022C34D001201220D4E00120122D74E0056
:100B8300120122AC4F001201228B500012012216D7
:100B93005100120122845100120122F85100120166
:100BA30022235200120122E2520012012247540072
:100BB3001201226454001201228354001201227490
:100BC3005500120122995500120122C3550012014A
:100BD300223E5600120122985600120122015800AB
:100BE300120122AF5800120122F05800120122AF65
:100BF300E501120122FDE50112012209E6011201BC
:100C030022E7E60112012218E70112012249E70156
:100C1300120122C9E70112012201E8011201225344
:100C2300E80112012290E801120122ADEA0112014A
:100C330022D3EC01120122BEEE01120122A8F0011F
:100C4300120122D92600120122AE9601120122DEE0
:100C53009601120122B79D011201223C9F0112014C
:100C63002239A50112012221A6011201225EA60149
:100C730012012281A601120122B2A601120122BB96
:100C8300A601120122C5A601120122B3A701120176
:100C930022A9A8011201222059001201221F5D007E
:100CA300120122255D0012012260640012012279E3
:100CB3006900120122998303120122938403120112
:100CC30022078503120122458503120122B98503F8
:100CD3001201223286031201223B860312012247AC
:100CE30086031201225C86031201229A86031201F3
:100CF30022B0860312012212F6021201221FF6020B
:100D030012012239F60212012278F602120122B6EA
:100D1300F6021201221BF70212012230F70212011E
:100D2300223BF70212012248F7021201225FF70267
:100D33001201226DF70212012278F70212012284B6
:100D4300F70212012293F7021201229EF702120107
:100D530022C1F70212012268F80212012278F80276
:100D630012012292F802120122AFF802120122CBE1
:100D7300F802120122F0F802120122FBF80212011A
:100D83002210F90212012224F90212012285F9022A
:100D93001201228BF90212012291F9021201229708
:100DA300F902120122AFF902120122E2F902120141
:100DB3002285D70112012209D801120122B8D801D4
:100DC30012012217DA0112012238DC011201222456
:100DD300DD0112012259DD011201227BDD01120125
:100DE300222ADE0112012222E0011201224BE0013C
:100DF300120122DDE0011201220FE1011201221C86
:100E0300E10112012273E10112012299E1011201B0
:100E13002206E40112012209E50112012261E50122
:100E230012012214C9011201221ECA011201220554
:100E3300CB011201220FCB0112012231CB0112018E
:100E4300223DCB01120122D6CC0112012205CD0194
:100E530012012221CE011201227ACE01120122E0D7
:100E6300CF01120122BFD0011201221BD1011201B5
:100E73002288D101120122C3D10112012202D2011F
:100E8300120122BBD401120122D5D4011201226125
:100E9300D5011201226FD501120122C8D501120119
:100EA30022D6D50112012249D601120122ADD60163
:100EB300120122F7D60112012283F301120122A5A6
:100EC300F301120122CBF501120122E0F801120114
:100ED30022F8F901120122ABFA011201228DFB0162
:100EE300120122F698031201221B99031201228D8B
:100EF300990312012245CA021201224ECA021201AB
:100F03002257CA021201222ECB02120122DFCC0287
:100F130012012215CD021201224FCD0212012285A8
:100F2300CD02120122BFCD02120122F3CD02120122
:100F3300221FCE0212012268CE02120122A2CE0289
:100F4300120122EBCE0212012243CF0212012278B8
:100F5300CF02120122D3CF021201220DD0021201BD
:100F6300225ED00212012294D002120122CED002BC
:100F7300120122FCD0021201221FD102120122FD12
:100F8300A30312012229A40312012284A403120140
:100F9300228EA4031201229EA40312012250C20234
:100FA3001201225AC20212012298C202120122E144
:100FB300C2021201221BC30212012271C3021201D7
:100FC3002292C30212012217C60212012220C60274
:100FD3001201226BC60212012294C6021201229E42
:100FE300C6021201220AC702120122A0C70212017D
:100FF30022EAC7021201221AC802120122A3C8025E
:10100300120122E3C8021201221BC9021201222D7E
:10101300C9021201224CC90212012255C90212014E
:10102300221BCA021201226EA10312012207970397
:101033001201223D9703120122739703120122BC6E
:10104300980312012233A60312012249A6031201B7
:101053002253A6031201229DA6031201225FFA0264
:1010630012012274FA0212012227FB0212012267E3
:10107300FB0212012280FB02120122B4FB021201C5
:101083002201FC0212012235FC0212012277FC022A
:10109300120122389C03120122619C031201228A4D
:1010A3009C03120122259D03120122679D03120155
:1010B30022C4A503120122E58F031201220A900321
:1010C30012012234900312012298A70312012284F1
:1010D3008201120122E88401120122998601120180
:1010E300229B8701120122248801120122A8880170
:1010F300120122CD8801120122068C011201227AEB
:101103008C011201226B8D01120122A58D011201A6
:1011130022E58D01120122988F01120122EB8F012A
:10112300120122349001120122A29001120122D451
:101133009001120122EC900112012201920112018D
:10114300221192011201222C93011201224E9301CA
:1011530012012284930112012228950112012267B0
:1011630095011201228996011201223CA303120167
:10117300224DA303120122F2A3031201224FA7035C
:101183001201228EA703120122EBFF02120122A8F1
:10119300A403120122B8A403120122D0A403120152
:1011A3002236A5031201226AA003120122EFA00333
:1011B30012012255A10312012273FE021201229C85
:1011C300FE0212012207FF0212012258FF0212013E
:1011D30022B1FF02120122E08603120122F58603E7
:1011E3001201220B88031201228D880312012201AE
:1011F30089031201221B890312012232890312017E
:10120300224589031201225D890312012272890397
:10121300120122938903120122E489031201222974
:10122300A803120122EE94031201227E95031201F8
:1012330022FC950312012286960312012290960343
:10124300120122A496031201220497031201229B86
:101253009A03120122EB9A03120122749B031201D7
:1012630022DA9B03120122B19203120122DB9203C1
:10127300120122A193031201227C94031201225A28
:10128300BA0212012217BB0212012252BB0212013F
:10129300227ABB02120122DCBB0212012228BC0209
:1012A30012012288BC021201221BBD021201221A62
:1012B300BE02120122A9BF021201222CC002120196
:1012C3002293C002120122AAC002120122B4C10257
:1012D300120122F2C10212012200800212012260D5
:1012E3008302120122E884021201223F85021201C5
:1012F300225E8502120122DC85021201226C870222
:101303001201225088021201225C8C021201222C4B
:101313008D02120122AC9D03120122C39D0312010F
:1013230022E69D031201221E9E03120122509E03F8
:10133300120122E19E03120122019F03120122E204
:10134300D80212012249DB021201229ADC021201A5
:10135300221BDE02120122AAF102120122EFF10284
:101363001201220CF2021201220AF3021201227F5D
:10137300F30212012280F402120122D9F5021201B2
:1013830022DFA703120122CAFF01120122D87F0024
:101393001201220BA803E066701008A3E066700A2E
:1013A30008A3E066700408A3E06622C3E796080971
:1013B300E7960809E7960809E79622C3E09608A38B
:1013C300E09608A3E09608A3E09622C008C3E0963F
:1013D300F50808A3E096420808A3E096420808A38C
:1013E300E09645087001D3D00822080808EAC0E057
:1013F300EBC0E086F0E7A4FA180986F0E7A42AFA1E
:10140300180986F0E7A42AFA180986F0E7A42AFA4D
:101413001986F0E7A4FBE5F02AFA190886F0E7A499
:101423002BFBE5F03AFA190886F0E7A42BFBE5F06D
:101433003AFA18180986F0E7A4C5F02BFBE43AFA48
:101443001908E7C5F0C6A426F6E5F03BFBE43AFA33
:101453001886F0E7A4F6E5F00826F6E43B08F6E480
:101463003A08F6D0E0FBD0E0FA22E4CFC0E0E4CEC5
:10147300C0E0E4CDC0E0E4CCC0E075F020E626F6A1
:1014830008E633F608E633F608E633F6181818ECE0
:1014930033FCED33FDEE33FEEF33FFC3EC9709ED81
:1014A3009709EE9709EF97191919400FFFEC97FC6D
:1014B30009ED97FD09EE97FE191906D5F0BFECF774
:1014C30009EDF709EEF709EFF7191919D0E0FCD088
:1014D300E0FDD0E0FED0E0FF226016080808C6C396
:1014E30013C618C613C618C613C618C613C6D5E046
:1014F300EA227009080808226016181818C6C333B0
:10150300C608C633C608C633C608C633C6D5E0EA1E
:1015130022E627F60809E637F60809E637F608094A
:10152300E637F622E026F608A3E036F608A3E0360F
:10153300F608A3E036F622E026F008A3E036F0082A
:10154300A3E036F008A3E036F022C3E697F60809D5
:10155300E697F60809E697F60809E697F622C3E048
:1015630096F008A3E096F008A3E096F008A3E096AF
:10157300F022E657F60809E657F60809E657F60893
:1015830009E657F622E056F608A3E056F608A3E06C
:1015930056F608A3E056F622E056F008A3E056F00C
:1015A30008A3E056F008A3E056F022E0F608A3E013
:1015B300F608A3E0F608A3E0F622E6F008A3E6F0B7
:1015C30008A3E6F008A3E6F022E0FAA3E0FBA3E019
:1015D300FCA3E0FD22EAF0A3EBF0A3ECF0A3EDF013
:1015E30022E0F8A3E0F9A3E0FAA3E0FB22E8F0A3EA
:1015F300E9F0A3EAF0A3EBF022CAC0E0E6F0A30807
:10160300DAFAD0E0FA22CAC0E0E0A3C582CCC582F0
:10161300C583CDC583F0A3C582CCC582C583CDC5A3
:1016230083DAE6D0E0CA22C3E498F8E499F9121603
:101633006B8026C3E49AFAE49BFBE920E7E91216E0
:101643006BE498F8E499F922C3E498F8E499F91261
:10165300166BE498F8E499F9C3E49AFAE49BFB2245
:10166300EB20E7CFE920E7E0B90010BB0008E88AE8
:10167300F084F8AAF022E4FBC8FA22EB70227B1074
:10168300C833C8C933C9335007C39AC3DBF28006D2
:101693009A50012ADBEAC833F4C8C933F4C9FA22E1
:1016A30075F008E4C833C8C933C933C99AC99B5014
:1016B30004C92AC93BD5F0ECFBC833F4C8E4C9FA22
:1016C30022600D08C6A2E713C618C613C6D5E0F3F9
:1016D30022600C08C6C313C618C613C6D5E0F4228D
:1016E300700422600D18C6C333C608C633C6D5E0DE
:1016F300F41822251810AF08F518400C15198008A6
:10170300F51840021519D2AF2200C0D0251810AF2A
:1017130008F518500C05198008F51850020519D260
:10172300AFD0D0222518F58210AF08F518400C155C
:10173300198008F51840021519D2AF85198322259F
:1017430018F582E43519F583222518F8E43519F9DB
:10175300222518FAE43519FB222518FCE43519FD76
:1017630022E4732518C582C0E0E51934FFC583C0A0
:10177300E0E518C3958224F810AF088583198582A4
:10178300188008858319858218D2AFCEF0A3E5208F
:10179300F0A37808E608F0A3DEFAEFF0A3E58124CE
:1017A300FAF8E608F0A3E608F0A3E608F0A30808B1
:1017B300E608F0A3E608F0A315811581D0E0FED07A
:1017C300E0F8158115811581E8C0E0EEC0E022251F
:1017D30018C582C0E0E51934FFC583C0E0E518C32E
:1017E300958224F910AF08858319858218800885AE
:1017F3008319858218D2AFCEF0A3E520F0A3780831
:10180300E608F0A3DEFAEFF0A3E58124FBF8E6088F
:10181300F0A3E608F0A30808E608F0A3E608F0A39F
:1018230015811581D0E0FED0E0F815811581E8C05F
:10183300E0EEC0E022851983851882E0A3FEE0A3D1
:10184300F5207808E0A3F608DFFAE0A3FFE0A3C0E1
:10185300E0E0A3C0E0E0A3C0E0E0A3C0E0E0A3C0F9
:10186300E010AF0885821885831980088582188562
:101873008319D2AFD083D08202011F8519838518C3
:1018830082E0A3FEE0A3F5207808E0A3F608DFFAE0
:10189300E0A3FFE0A3C0E0E0A3C0E0E0A3C0E0E07A
:1018A300A3C0E010AF08858218858319800885825C
:1018B30018858319D2AFD083D08222C0D02518C512
:1018C30082C0E0E51934FFC583C0E0E518C3958203
:1018D30024F310AF0885831985821880088583193E
:1018E300858218D2AFC8F0A3E9F0A3EAF0A3EBF026
:1018F300A37908E709F0A3D8FAECF0A3EDF0A3EE7F
:10190300F0A3EFF0A3D0E0F0A3D0E0F0A3D0E0F099
:10191300A3E520F0A3E5F0F0A322851983851882BF
:10192300E0C0E0A3E0F9A3E0FAA3E0FBA37808E0BA
:10193300F608A3DFFAE0FCA3E0FDA3E0FEA3E0FFCB
:10194300A3E0C0E0A3E0C0E0A3E0F5D0A3E0F5206E
:10195300A3E0A3F5F010AF088583198582188008EA
:10196300858319858218D2AFD082D083D0E0F8D096
:10197300E03274048006740280027401C0E0F4044F
:10198300121727D0E01215FC22740480047402801D
:1019930000CCC0E0EDC0E0E518C39CCCAD1950010C
:1019A3001D10AF068C188D1980068C188D19D2AFB7
:1019B300121609D0E0FDD0E0FC22D083D082E9C02A
:1019C300E0E493A3C386F0C5F095F0F908E493A38C
:1019D30086F0C5F095F0700BE493A3C3994005E935
:1019E300048002A3E475F002A42582F582E5F035B4
:1019F30083F583D0E0F9E493A3C0E0E493C0E0224D
:101A0300D083D082ECC0E0EDC0E0E493A3FCE49388
:101A1300A3FDED4C600D121A4FEC24FFFCED34FFD7
:101A2300FD80EFE493A3FCE493A3FDED4C600D1262
:101A33001A8EEC24FFFCED34FFFD80EFD0E0FDD0E7
:101A4300E0FCE493A3C0E0E493C0E022C0E0C3E47D
:101A53009396087401939618400FE49366700808F0
:101A6300740193661870007019A3A3C3E4939608D6
:101A73007401939618A3A3400DD0E0D0E0D0E00208
:101A83001A3FA3A3A3A3A3A3D0E022C0E0C0F0887E
:101A9300F0E4936670080874019366187000A8F068
:101AA300A3A3700BD0F0D0E0D0E0D0E0021A3FA3A4
:061AB300A3D0F0D0E022F8
:101ABC0074F51217D2EAFEEBFFEE2434F8EF340083
:101ACC00F988088909EE2435F582EF3400F583E0B6
:101ADC00F8EE2437F582EF3400F583E0F50AEC8557
:101AEC000AF0A4FCAAF0850AF0EDA42AFDE82CF873
:101AFC00E43DF97A257B0012166BEA85088285098C
:101B0C0083F0F8740758F97401B900028004C333E8
:101B1C00D9FCFAE8131313541FF8EE28F8EF34002D
:101B2C00F9E8245DF582E93400F583E05A6008EEAB
:101B3C002434F582EF802CEE2434F582EF3400F55A
:101B4C0083E0C0E0EE2436F582EF3400F583E0F557
:101B5C00F0D0E084A8F0EE28F8EF3400F9E824384F
:101B6C00F582E93400F583E0F97F0402187E74F500
:101B7C001217D2EAFEEBFFEE2434F582EF3400F5B7
:101B8C0083E0C0E0EE2435F582EF3400F583D0E03D
:101B9C00F08E828F83A3A3A3A3A3A3A3C082C0832D
:101BAC008E828F83A3A3A3A3A3E0F8A3E0F9D08331
:101BBC00D082E0C398F508A3E099F509EE247FF5EF
:101BCC0082EF3400F583E064017069EE2480F582C5
:101BDC00EF3400F583E0F8A3E0F98E828F83A3A3A2
:101BEC00A3A3A3A3A3E0FCA3E0FD8E828F83A3A3F6
:101BFC00A3A3A3E0FAA3E0FBC3EA9CEB9D5010C3A4
:101C0C00EC98ED99402EC3EA98EB995027800EC3BF
:101C1C00EA98EB994007C3EC98ED9940177CDC7D72
:101C2C0004EEFAEFFB120BA1EE247FF582EF3400E9
:101C3C00F583E4F0EE2434F8EF3400F9E8FCE9FD28
:101C4C00EE2435F582EF3400F583E0F8EE2437F519
:101C5C0082EF3400F583E0F50AE508850AF0A4F577
:101C6C0008AAF0850AF0E509A42AF509E82508F880
:101C7C00E43509F97A257B0012166BEA8C828D8388
:101C8C00F0F8740758F97401B900028004C333D911
:101C9C00FCFAE8131313541FF8EE28F8EF3400F98C
:101CAC00E8245DF582E93400F583E05A6008EE24FF
:101CBC0034F582EF802CEE2434F582EF3400F5837A
:101CCC00E0C0E0EE2436F582EF3400F583E0F5F069
:101CDC00D0E084A8F0EE28F8EF3400F9E82438F5C9
:101CEC0082E93400F583E0F91225D1021B75C0821C
:101CFC00C083851882851983E0F8A3E0F9C3EA9CB8
:101D0C00EB9D5010C3EC98ED99401BC3EA98EB99EE
:101D1C005014800EC3EA98EB994007C3EC98ED99E8
:101D2C004004790180027900D083D08222EAC39CDE
:101D3C00FAEB9DFB2274EF1217D29003A2E0640819
:101D4C006005E06407702A9061C8E060249003D0BD
:101D5C00E0F4601DE0F875F003A4C8AAF02AF97449
:101D6C00D228FE740339FF8E828F83A3A3A3E07065
:101D7C0003021E71906060E0C0E0EE2468F582EF13
:101D8C003400F583D0E0F0750C45750D0575080031
:101D9C00750900E5D914F50AE5D95403F50E601759
:101DAC007403650E605CE50A6010EE2467F582EF43
:101DBC003400F583E07003021E56900540E0640188
:101DCC00602AEE2482F582EF3400F583E06004781B
:101DDC000480027800850A08E508C398FA95E0FBB0
:101DEC00120A6F8A088B09EA45097005120D938057
:101DFC0074EE2482F582EF3400F583E070048A0CD3
:101E0C008B0DE50A6012850C82850D83F50BE5D9E7
:101E1C00F0A3150BE50B70F6EE2482F582EF34007F
:101E2C00F583E0604474FC250AF50A780C121979E4
:101E3C00AC0AA90EEEFAEFFB120C3D740212170C51
:101E4C00E97026AA08AB09121255793D8E828F8350
:101E5C00A3A3A3A3E0FA7B00120943EEFAEFFB1253
:101E6C000BB9120C4F790080747403650E605685A3
:101E7C000A107511007810121979AC0CAD0DAA0866
:101E8C00AB09120C19740212170CEE2468F582EFD0
:101E9C003400F583E064807004747F8001E0F50CFD
:101EAC00780C12197DE50EF50C780C12197DA90A27
:101EBC00AC08AD099003D0E0FA7B0012090774025C
:101ECC0012170C80139003A2E06408600BAC0CADED
:101EDC000DEEFAEFFB120CA9120D9F79017F0A028D
:101EEC00187E74F51217D274FC1216F6EAFEEBFF8C
:101EFC008908A2AFE433F509C2AF806AEE2463F817
:101F0C00EF3400F97A007B00A2AFE433F50AC2AFDC
:101F1C0088828983E0FCA3E0FDEC4D603A888289DD
:101F2C0083E0FAA3E0FB8A828B83E0FCA3E0FD88CC
:101F3C00828983ECF0A3EDF08A828B83E4F0A3F02A
:101F4C0088828983E0FCA3E0FDEC4D700A888289CD
:101F5C0083A3A3E4F0A3F0E50AA2E092AF1212551A
:101F6C009004E3E004F0EE2463F582EF3400F58393
:101F7C00E0F8A3E0F9E849603DEE2463F582EF3424
:101F8C0000F583E02402FAA3E03400FBEA2402F516
:101F9C000AEB3400F50B780A1219798A828B83E0EC
:101FAC00FCA3E0F9EEFAEFFB120BDD740212170C36
:101FBC00E97003021F089004E3E060639004E4E01E
:101FCC00F89004E3E0C398500C74026508705090CC
:101FDC0004E5E0604A8E828F83A3A3A3A3E0851857
:101FEC0082851983F0A3E4F09004E3E0F874021204
:101FFC001742E8F0A3E4F09004E3E0F89004E2E088
:10200C0028F07402121742AC82AD838518828519B0
:10201C0083AA82AB8379011209139004E3E4F0E5FF
:10202C0009A2E092AF740412170C021B7500000099
:10203C008521878522C622C0E0C0D0E8C0E0E9C077
:10204C00E0EAC0E0EBC0E0ECC0E0EDC0E0EEC0E0E8
:10205C00C008C009C00AC00BC082C083C0F0A2AFC8
:10206C00E433FEC2AF759B00906182E0A2E0501297
:10207C00E591A2E0500C7591FE740165217003127C
:10208C001D41E0A2E55051E591A2E5504B7591DF61
:10209C009003A2E064076005E06408702374016596
:1020AC0021703579019003D0E0FA75F003A4CAA829
:1020BC00F028FB74D22AFA74033BFB121EEE801834
:1020CC00E0640D70139003C4E004F064287002E423
:1020DC00F07A00E0F9120DA5906182E0A2E64003CF
:1020EC0002218AE591A2E6400302218A7591BF90F4
:1020FC0003A2E064057008120CD3120CDF800312EB
:10210C000CD9752100120D33E99003A3F07900125C
:10211C000D27120B177A017B009003A1E0F9120F27
:10212C00FD907803E064427055900544E014F07023
:10213C004DC2AF12214200782AD0E0F618D0E0F65A
:10214C00E59F540770057509FF800375097FC4C0AE
:10215C00E07829E6F50808E65509F509740B7808C6
:10216C001216D4D0E02508F8906270E0A2E740F88F
:10217C00E8C333906272F0906270E0D2E0F090614C
:10218C0081E0A2E35009E5E9A2E3500375E9F7A366
:10219C00E0A2E75009E591A2E7500375917FEEA20A
:1021AC00E092AFD0F0D083D082D00BD00AD009D03F
:1021BC0008D0E0FED0E0FDD0E0FCD0E0FBD0E0FAAF
:1021CC00D0E0F9D0E0F8D0D0D0E032C0E0C0D0C040
:1021DC0082C083906183E0A2E05009E5BFA2E05089
:1021EC000375BFFEE0A2E15009E5BFA2E150037503
:1021FC00BFFDE0A2E25009E5BFA2E2500375BFFBB0
:10220C00E0A2E35009E5BFA2E3500375BFF7E0A2DB
:10221C00E45009E5BFA2E4500375BFEFE0A2E5501E
:10222C0009E5BFA2E5500375BFDFE0A2E65009E562
:10223C00BFA2E6500375BFBFD083D0828088C0E0B8
:10224C00C0D0E8C0E0E9C0E0EAC0E0EBC0E0ECC020
:10225C00E0EDC0E0C0F0E5A7A2E6500FE5A1A2E6D4
:10226C00500953A7BF75A1BF1222AFE5A7A2E55035
:10227C000CE5A1A2E5500653A7DF75A1DFE5A7A2E7
:10228C00E15009E5A1A2E1500375A1FDE5A7A2E289
:10229C00500CE5A1A2E2500653A7FB75A1FBD0F0B0
:1022AC000221C074F81217D27521019003A2E064C8
:1022BC00067015120C6D8A828B83A3A3A3A3A3A310
:1022CC00E0FAA3E0FB120CC1A2AFE433FED2AF9054
:1022DC0003A8E0640170187A207B009003A1E0F958
:1022EC001210817A207B009003A1E0F91210039068
:1022FC006182E0D2E6F0900541E0602185C6228043
:10230C00169003A7E064017008E5C654F84405F57F
:10231C00C653BEFC12203C7401652160E4EEA2E0C1
:10232C0092AF7F0102187E008E238F248582288530
:10233C008327851882851983E0CEA3E0CF85288278
:10234C00852783EBC9EAC8EDCBECCA75F010C3E85E
:10235C0033C8E933C9EA33CAEB33CBC3EA9EF5265B
:10236C00EB9FF525B35004AB25AA26EC33CCED330B
:10237C00CDD5F0DAAE23AF242274ED1217D28A0831
:10238C008B098C0A8D0B7413121742780C1215AE34
:10239C007808790C1213AE7510017511C8751200FE
:1023AC0075130050127808790C12154D78107908B5
:1023BC001213AE50168010780C790812154D781047
:1023CC00790C1213AE40047901800279007F0C0263
:1023DC00187E74ED1217D28A088B098C0A8D0B7437
:1023EC0013121742780C1215AE780C79081213AE32
:1023FC0040117808790C12154DAA08AB09AC0AAD3E
:10240C000B80227510007511007512007513017880
:10241C0010790C12154D78107908121514AA10ABFE
:10242C0011AC12AD1380A68A828B837508FF7509D7
:10243C00FF750AFF750B00780812159B7F040218B4
:10244C007E74F51217D28C828D8378081215AE8AA1
:10245C00828B837808121561EA2404F8EB3400F9B6
:10246C008C828D83A3A3A3A3E0FCA3E0FD888289C7
:10247C0083C3E09CF0A3E09DF088828983C3E09441
:10248C0020A3E0944E40268A828B837508FF750941
:10249C00FF750AFF750BFF780812153A8A828B8339
:1024AC00A3A3A3A3E02420F0A3E0344EF002243332
:1024BC0074F51217D2E9FE9004F7E0FAA3E0FBEEF4
:1024CC00C333F8E433F9742228F582748139F58327
:1024DC00E02AF508A3E03BF50978081219797A404F
:1024EC007B427C0F7D00122334740212170C8A0875
:1024FC008B098C0A8D0B741078081214DCAA08ABAB
:10250C00097F0402187E74F11217D28A0C8B0D8C81
:10251C000E8D0F740F121742E0FAA3E0FB74111228
:10252C001742E0F508A3E0F5097808121979EA24B6
:10253C0001F508EB3400F509E4F50AF50B780C7994
:10254C00081213ED750871750902780C79081213CD
:10255C00EDAA0CAB0DAC0EAD0F1223347402121796
:10256C000C8B09EA450960047A0180027A00EC2A96
:10257C00FCED3400FD7413121742E0F8A3E0F9E807
:10258C00FEE9FFECF8EDF97A717B0212166B880804
:10259C0089098E828F8378081215BDECF8EDF97AD3
:1025AC00717B0212166B8A088B0974057808121657
:1025BC00E38E828F83A3A3A3A3E508F0A3E509F020
:1025CC007F0802187EC082C083E9906000F0D0833F
:1025DC00D08222C2AF02000022C0E074F21218BEF8
:1025EC00A2AFE433FED2AFC2C0E5D1A2E450065391
:1025FC00D1EF121249EEA2E092AF7F0102191DC079
:10260C00E074F21218BEA2AFE433FED2AFE589A299
:10261C00E150031211D1758900C2C5EEA2E092AF50
:10262C007F0102191DC0E074F21218BEA2AFE43390
:10263C00FED2AFE58BA2E050031211D1758B00C214
:10264C00E880D8C0E0C0D0E8C0E0E9C0E0E5A8D29E
:10265C00AFC2C7A2E7A2E792AFD0E0F9D0E0F8D0C2
:10266C00D0D0E032C0E0C0D0E8C0E0E9C0E0C008A3
:10267C00C009C082C083A2AFE433F9D2AF9009D3B2
:10268C00E0F8A3E0687008539AFBA374018025C29C
:10269C00E99009D3E0F50874012508F07453250876
:1026AC00F582E43409F583E0F5C19009D3E0C394D5
:1026BC00804002E4F0E9A2E092AFD083D082D0094E
:1026CC00D008D0E0F9D0E0F8D0D0D0E03202011F31
:1026DC00FFFFFFFFFFFFFFFFC082C083E9900B826B
:1026EC00F002297374F7121766E99002E1F07C1975
:1026FC007D037AFF7BFF1208599002E274FFF0A36E
:10270C00F0A3E4F0A3F079051207E19002E1E0F9FF
:10271C001207037A777B08120A217F01021838749A
:10272C00F41217668A088B09EB548060309002E132
:10273C00E0F9120FE58A0A8B0BAE0AAF0BEE4F6075
:10274C00138E828F83E064B070031207F9EEFAEFF8
:10275C00FB120FD3AA08E5096480FB80047A007B86
:10276C000002294274F212176674FC1216F6EAFE85
:10277C00EBFFEE4F60387402121742EEF0A3EF122B
:10278C002BA7ECF0A3ED122BA7AA82AB831206FDAC
:10279C00E9F5087073741212174212375BE50A459B
:1027AC000B60658E828F8312281EEE4F70057508A4
:1027BC000280557A067B001210398A0C8B0DA80CFE
:1027CC00A90DE8497005750813803D88828983E45A
:1027DC00122828A3A3EEF0A3EF123BF4E50AF0A312
:1027EC00E50BF09002E71228B09002E76017E0FCCE
:1027FC00A3E08003EAFCEBFD8C828D831228B07081
:10280C00F38C828D83123680A908740412170C0283
:10281C003DF6A3A3A3A3E0FEA3E0FF22F0A3F08860
:10282C008289832274F2121766890AE975F017A45B
:10283C00FEAFF09002E6E4F09002E41228B0600AD9
:10284C0012103F9002E4E4F0A3F0EEFAEFFB12104A
:10285C00398A088B09EA4509602FEEFCEFFD7900F7
:10286C00120FBB9002E4E508F0A3E509F07B0080B1
:10287C000812289AE4F0A3F00BEBC3950A40F2E59A
:10288C000A9002E6F0790080027913023DF6EB75AE
:10289C00F017A4F8A9F09002E4E028FAA3E0398A32
:1028AC0082F58322123416EA4B2274F412176675E1
:1028BC000800750900740C121742123BC8FEE9FFA0
:1028CC00800CE5082401F508E5093400F509C3E599
:1028DC00089CE5099D503285080A85090B7403781C
:1028EC000A1216E3EA250AF8EB350BF9888289837C
:1028FC00A3A3A3A3A3A312375BEE650A7003EF6532
:10290C000B70BFE8FAE9FB80047A007B0080277427
:10291C00F41217667900EAA2E0501B7508FA7509E3
:10292C008178081219797C047D007A847B0B12075C
:10293C00DB740212170C7F04021838C082C083901B
:10294C0002E712297A601C88828983A3A3E06A704B
:10295C0003A3E06B8882898370E8A3A3A3A312343A
:10296C001280047A007B00D083D08202011F123EB9
:10297C00C9E8492274EE12176674FC1216F6EAFEC8
:10298C00EBFF851882851983E4F0A3F0EE24021284
:10299C003664EE2405122B95EE2404F50EEF122F5F
:1029AC007AE024FE603924FC604624FE605224FE4A
:1029BC00605E24FE7003022A9A24FE7003022B121E
:1029CC0024FE7003022B2124FE7003022B3024FC06
:1029DC007003022B3F24FE7003022B4E022B8B90B4
:1029EC0003007417F0A3E4122BAF12047B022B8BA1
:1029FC00851882851983AC82AD831207FF022B5B8D
:102A0C00851882851983AC82AD83120805022B5B75
:102A1C00850C08850D097402121742AC82AD8385B2
:102A2C0008828509831234121207218A0C8B0DAC93
:102A3C000CAD0DEC4D6042E4F50CF50D780C121953
:102A4C0079750C00750D03780C121979750C0175DC
:102A5C000D03780C12197974081217421219907917
:102A6C001612340C120841740812170CE9F50C708C
:102A7C000B123408120493800F750C0185088285A3
:102A8C000983122B9D123680850C08022B5E740272
:102A9C00121742AC82AD83850C82850D83123412E1
:102AAC001207218A108B11AC10AD11EC4D604385CF
:102ABC000C82850D83A3A312199075100075110358
:102ACC007810121979751001751103781012197993
:102ADC007408121742121990791612340C1208410C
:102AEC00740812170CE9F509700B123408120499CA
:102AFC00800F750901850C82850D83122B9D123672
:102B0C0080850908804C851882851983AC82AD8339
:102B1C0012080B803A851882851983AC82AD83121A
:102B2C000811802B851882851983AC82AD8312081D
:102B3C0017801C851882851983AC82AD8312081D01
:102B4C00800D851882851983AC82AD83120823E928
:102B5C00F508E50860298E828F83A3E06414601F5A
:102B6C00850E82850F83E0900300122BA7123EC5C1
:102B7C00900301123680E508A3122BAF120475EEF8
:102B8C00FAEFFB12079F02356CF50CEF3400F50DD4
:102B9C0022123EC985188285198322F085188285F8
:102BAC00198322F07C007D03850A82850B83123405
:102BBC00162274EE12176674FC1216F68A0A8B0B28
:102BCC008C0E8D0FEA2405F508EB3400F5097C1505
:102BDC007D0079007A007B03120FBBE5082402F517
:102BEC000CE509122B98851882851983858210852E
:102BFC0083117810121979850882850983A3A3A300
:102C0C00A31230C2121979E5082405F510E5093430
:102C1C0000F5117810121979850C82850D83123408
:102C2C001C12071B740612170C8A108B11AE10AFF6
:102C3C0011E50A2402F50AE50B123667EE4F700314
:102C4C00022D848017740212174212341288828962
:102C5C0083EAF0A3EBF0900300E004F0900300E0B3
:102C6C00C394054003022D84E4F510F5117810127D
:102C7C0019797510E975110278101219797510EA25
:102C8C0075110278101219797406121742121990E4
:102C9C007910EEFCEFFD12340C1208417408121777
:102CAC000CE9705E850882850983A3A3A3A3A3A363
:102CBC00A3E0F89002E9E06870481230C21219796A
:102CCC007CEA7D02E5082408FAE5093400FB120FC2
:102CDC00B5740212170CE960298E828F83A3A3A30B
:102CEC00A3123412900300E0F5107402781012163F
:102CFC00E374012510F58274033511F583EAF0A312
:102D0C00EBF0740212174285821085831178101231
:102D1C0019797402121742121990850C82850D8351
:102D2C00123EDA120727740412170C8A108B11AE9C
:102D3C0010AF11900300E0F51075110074027810BB
:102D4C001216E374002510F874033511F988828982
:102D5C0083A31228B07003022C48E82403F8E9344A
:102D6C0000F9EE4F6003022C518882898374FFF0C6
:102D7C00A3F0900300E004F0900300E0600A12342A
:102D8C00081204877900800B850882850983123626
:102D9C0077790A02356C74EA12176674FE1216F60D
:102DAC008C128D13EA2405F50CEB124044122822E8
:102DBC00750800750900EA2402F510EB3400F511D2
:102DCC0085188285198385820A85830B780A1219E6
:102DDC0079850C82850D83A3A3A3A3122F841219CA
:102DEC0079E50C2405F50AE50D123667780A1219F7
:102DFC0079850C82850D83123ED812071B7406123E
:102E0C00170C8A0A8B0BEA450B7003022F35EA2448
:102E1C0004F50EEB122F7A1228228A828B83A3A33D
:102E2C00A3E0F9851082851183123412120709E987
:102E3C00F5096003022F35E4F514F5157814121911
:102E4C00797514E975150278141219797514EA75E7
:102E5C001502781412197974061217421219907906
:102E6C0013AC0AAD0B851082851183123412120833
:102E7C0041740812170CE9F5096003022F35900212
:102E8C00E9E0F8E5087009E02402900301F08017EE
:102E9C00900301E0FCE82402FAE43400FBEA6C70D5
:102EAC0001EB6003022F39850882AA821230B99493
:102EBC00141230B15073850E82850F83E0C0E0741C
:102ECC00022A122F71D0E0F00508850E82850F833F
:102EDC00A3E0C0E085080A7402250A122F71D0E025
:102EEC00F005089002E9122F841219797CEA7D0210
:102EFC0085080A7402250AFA74033400FB120FA326
:102F0C00740212170C9002E9E02508F50874FF6EA4
:102F1C00700374FF6F6012EE24010EEF3400FFE5B6
:102F2C0008C394145003022DCCE50860131232FD33
:102F3C0085108285118312341212048D790080144D
:102F4C00E509700375090A851282851383EEF0A3D7
:102F5C00EFF0A909740212170C7F0E0218388508BD
:102F6C000C7402250CF58274033400F583223400B2
:102F7C00F50F850E82F58322123C072274EE121790
:102F8C006674FE1216F68C0E8D0FEA2405F50CEB0A
:102F9C00122B98750B00900300E4F0F50AEA24025A
:102FAC00F508EB3400F5098049900300E0FA900233
:102FBC00E9E0F81230B994171230B1400D900300CB
:102FCC00E0F87416C3989002E9F01230C212197925
:102FDC007CEA7D0274012AFA74033400FB120FA3FD
:102FEC00740212170C9002E9E0F8900300E028F04C
:102FFC00050AE50C2416F582E50D122F75E0F8E5AF
:10300C000AC398400302309A900300E0C394165010
:10301C007DE50AC333F8E433F9E50C28FEE50D39F8
:10302C00FF851882851983AC82AD838E828F8312C3
:10303C0034121207218A108B11AC10AD11EC4D70AB
:10304C0005750B018043E4F510F511781012197910
:10305C007510E975110278101219797510EA75114D
:10306C0002781012197974061217421219907916F7
:10307C0085088285098312341212084174081217CC
:10308C000CE9F50B7003022FB512367380107C001F
:10309C007D0385088285098312341212049FA90BC3
:1030AC00740202356EE99400C365D03322EA28F825
:1030BC00E43400F9E822E0F5107511007810227460
:1030CC00EA12176674FC1216F68A0C8B0D8C128D94
:1030DC0013EA2405F50AEB1236677508007509002A
:1030EC00E50A2402F510E50B3400F51174021217F1
:1030FC004285820E85830F780E121979850A828596
:10310C000B83A3A3A3A3123BB3121979E50A2405DD
:10311C00F50EE50B3400F50F780E12197985108237
:10312C0085118312366D12340C12071B740612179C
:10313C000C8A0E8B0FAE0EAF0FE50C2402F50EE5CC
:10314C000D3400F50F80408882898374FFF00508E8
:10315C00122F6A74FFF005089002E9E0F50C750D6A
:10316C0000780C1219797CEA7D0285080C74022512
:10317C000CFA74033400FB120FA3740212170C9098
:10318C0002E9E02508F508EE4F60718E828F83A36B
:10319C00A3A3E0F9850E82850F831234121207095E
:1031AC00E9F509EE2404122B95E97044E4F514F5C5
:1031BC001578141219797514E97515027814121909
:1031CC00797514EA751502781412197974081217A6
:1031DC00421219907911EEFCEFFD850E82850F835A
:1031EC00123412120841740812170CE9F509602701
:1031FC00850C82850D831232F3123680E50870033C
:10320C000232D91232FD850E82850F8312341212CE
:10321C0004A579000232EE850882AA82EA9002E9BE
:10322C007009E02404900301F08022E0F89003017F
:10323C00E0F514E82404FCE43400FDEC65147001A2
:10324C00ED70C01230B994121230B150B6850C82A8
:10325C00850D83E0C0E074022A122F71D0E0F005D6
:10326C0008850C82850D83A3E0C0E0122F6AD0E0A4
:10327C0012330F85820C85830D780C121979740426
:10328C00121742121990851082851183123EDA12A0
:10329C000727740412170C8A0C8B0DAE0CAF0D851E
:1032AC00080C7402250CF874033400F9EE4F70030B
:1032BC00023153851882851983E088828983123301
:1032CC000FA3E0C0E0122F6AD0E0023161E5097073
:1032DC000375090A850A82850B831232F312368034
:1032EC00A9097404022F62123EC9851282851383C8
:1032FC0022900301E0F5F0E50884900300F07C00D7
:10330C007D0322F005088518828519832274EC123E
:10331C00176674FE1216F68A088B098C0E8D0FEA4E
:10332C002405FEEB3400FF851882851983AC82AD31
:10333C00838E828F831234121207218A0A8B0BEE32
:10334C002418122B95EA450B70030233E312355502
:10335C0050328518828519831234121208358A105E
:10336C008B11EA4511606B7912AC0AAD0B850882A2
:10337C00850983123412851082851183121764E932
:10338C00F50A7058E4F50AF50B780A1219798E8251
:10339C008F83A3A3E0F50A780A121979EE2403129D
:1033AC003664780A1219798E828F8312341C1208B3
:1033BC0047740612170CE9F50A7021850C82850DED
:1033CC0083E0701F8508828509831234121204ABC6
:1033DC008011750A0E8009750A018004E50A6003E4
:1033EC00123673850C82850D83E0600479008002AF
:1033FC00A90A740212170C7F0C0218387C007D038A
:10340C00850A82850B8312341622E0FAA3E0FB2294
:10341C00E0FCA3E0FD850882850983123416227432
:10342C00EE12176674FE1216F68A088B098C0C8D38
:10343C000DEA2405FEEB3400FF750E00851882851D
:10344C001983AC82AD838E828F83123412120721C2
:10345C008A0A8B0BEA450B70030235411235555025
:10346C00358518828519831234121208358A0E8B11
:10347C000FEA450F605E7912AC0AAD0B85088285A8
:10348C000983123412850E82850F83121764E9F5B5
:10349C000E600302354485088285098312375BAAC6
:1034AC000AFB1208298A108B11A810A911E849707F
:1034BC001E7AFF7BFF1208298A108B11A810A91104
:1034CC00E849606C88828983E50AF0A3E50BF07506
:1034DC000A008007750E0E805F050A9002E6E0FA7E
:1034EC00E50AC39A504AE50A75F017A4FAABF088BE
:1034FC00828983A3A3E02AFAA3E03BFB8A828B8315
:10350C0012366DEC4D70D2750A17750B00780A12D5
:10351C001979EEFCEFFD120FA3740212170CEEFCDE
:10352C00EFFD8508828509831234121204B18014D0
:10353C00750E098003750E01123EC1850C82850D36
:10354C0083123680A90E0230ACE5082402F508E59A
:10355C00093400F5098A828B83A3A3A3E0A2E52298
:10356C00740412170C7F0A02183874EC1217668C4C
:10357C00108D11EA2405F50CEB122B98750F00EA4F
:10358C002402F50AEB123667850A82F5831234128F
:10359C001208298A088B09EA450970030236597505
:1035AC000E008071850C82850D83E06401704F8E56
:1035BC00828F83A3A31219908E828F83A3A3A3A3BC
:1035CC00E0F5127513007812121979EE2405F51234
:1035DC00EF3400F513781212197912340C120847D3
:1035EC00740612170CE9F50F6014850C82850D8397
:1035FC00E4F0123EC18510828511831236807C174F
:10360C007D007900EEFAEFFB120FBB8E828F83E404
:10361C00F0A3F0050E9002E6E0F8E50EC398501EFC
:10362C00E50E75F017A4F8A9F0850882850983A327
:10363C00A312404E12366DEC4D60030235B0850876
:10364C008285098374FFF0A3F0E50F700612340C29
:10365C001204B7A90F023403F50AEF3400F50B225C
:10366C00A3E0FCA3E0FD228E828F83123EC9850E5F
:10367C0082850F83E8F0A3E9F022C082C083900218
:10368C00E2E06A7003A3E06B70067AE27B028004CE
:10369C007A007B00022973C082C08378008C828DF3
:1036AC0083E06A7003A3E06B7010E875F003A4F874
:1036BC00A9F0EC28FAED39FB8015088C828D83A3D8
:1036CC00A3A3E06A7003A3E06B60DF7A007B0002C7
:1036DC00297374F61217661207F38A828B83E582BC
:1036EC00458370067A007B008007A3A3A3A3123442
:1036FC0012023D7274F2121766E9FE740E12174232
:10370C0012375B7410121742123BD38C828D83E0FC
:10371C0064027036A3123ECFF50CA3E0F9A80C742A
:10372C00026870037429697021750C02750D00789C
:10373C000C1219797808121979780A121979EEF99C
:10374C0012086B740612170C80027901023DF6E028
:10375C00F50AA3E0F50B2274E812176674FB121637
:10376C00F6E9851882851983F08A168B17ECFEED25
:10377C00FF751000741D121742123EC5741D1217EE
:10378C00421236808E828F83A3A3A3E0A2E4502D35
:10379C00741D1217421234121208358A828B83E57B
:1037AC008245837003023BA4790AEEFCEFFDAA1656
:1037BC00AB17121764E9F5106003023BA7741F12D4
:1037CC001742123BD3742112174212375B74231227
:1037DC001742E0F50EA3E0F50F8E828F83E06402B2
:1037EC006003023B52A3123EC5850882850983A360
:1037FC00858212858313EE2406122B958882898389
:10380C00E0FAA3E0F9EA2400F514E439F51578148C
:10381C00121A030100002801284738070002280C5F
:10382C0039032879380029433A01296E3A02290FC5
:10383C003A0329433A0429ED3A523BE50E450F6011
:10384C0003023B4D850C82850D83123BC8FAE9FBC4
:10385C008A828B83E0850A82850B83123BFE1219C8
:10386C00798A828B83A3E0FCA3E0023AD7E50E456C
:10387C000F6003023B4D850A82850B837401F012A5
:10388C003BDB850882850983F07C007D008E828F6E
:10389C0083A3A3A3A3E02401FAA3E03400FB120743
:1038AC0021EA4B60418A828B83E02402F8850A82EC
:1038BC00850B83E028F0EA2404F8EB3400F98882C5
:1038CC008983E0851282851383123C10123BFE1211
:1038DC0019798A828B8312366CE5082403FAE50980
:1038EC003400FB023ADC850A82850B83E02404F069
:1038FC007C047D007900AA12AB13120FBB023BA70C
:10390C00E50E450F6003023B4D123BDBFEA3E0FFCF
:10391C00850A82850B837404F0EE85088285098301
:10392C00F0EF851282851383F07403121742AC8278
:10393C00AD83EEFAEFFB1207218A0C8B0DEA450DD5
:10394C0070030239F08A828B83A3A312281E7401A0
:10395C0012174285820E85830F780E121979740521
:10396C001217421219907CFF7DFF12072774041264
:10397C00170C8B0FEA450F7033850C82850D831263
:10398C003BB3121979850C82850D83A31219907C97
:10399C00027D007A4E7B82120553740412170CE9D7
:1039AC00700A740112174274FFF0A3F08E828F8399
:1039BC00E064027039750C02750D00780C121979DF
:1039CC008E828F8312366CE5082404FAE5093400E4
:1039DC00FB120FA3740212170C850A82850B83E06D
:1039EC00240280097401121742EEF0A3EFF0740167
:1039FC00121742123BC4F07401121742A3123BBCC3
:103A0C00023B47E50E450F6003023B4D850C82855A
:103A1C000D8312366DAA16AB1712085F850A8285C4
:103A2C000B837402F0EA850882850983F085128283
:103A3C00851383EB023B4AE50E450F6003023B4DB9
:103A4C00123BDBF8A3E0F9850A82850B837402F044
:103A5C00E8850882850983F0E98512828513830243
:103A6C003B4A850C82850D83123412120F9DEAFCA1
:103A7C008C82A882C3950EE4950F405FE8650E70AA
:103A8C0002E50F70047C008022851882851983E082
:103A9C00FAE50E2AFAE50F3400FBC3EA98EB940022
:103AAC005003E08005E50ECCC39CFCEC850A8285B6
:103ABC000B83F08C0A750B00780A121979850C822D
:103ACC00850D83E0250EFCA3E0350FFDAA08AB099C
:103ADC00120FA3740212170C023BA7751007023BBE
:103AEC00A7E50E450F705A850C82850D83123EC5D5
:103AFC00850A82850B83740712282A123BBC122874
:103B0C002AA3E0851282851383F0E82402FAE934B3
:103B1C0000FB8A828B83123BBC123BEB123BC4A38F
:103B2C00123BF4123BCDF0E82405F8E93400F98897
:103B3C00828983123BCDA3123C10A3A3A3A3F080D4
:103B4C005A75100B8055741D12174212341212073D
:103B5C00F38A828B83E5824583603D123EC5880CD7
:103B6C00890DE8450D6031780E121979780A121911
:103B7C007978081219797406121742E0F9EEFCEF05
:103B8C00FDAA16AB17850C82850D8312176474067B
:103B9C0012170CE9F510800375100EA9107405129C
:103BAC00170C7F10021838E0F50E750F00780E22F6
:103BBC00E085088285098322123C1A22123EC9E84C
:103BCC0022123C1AA3A322E0F508A3E0F5092285F2
:103BDC000C82850D83E0F8A3E0F5838882E022A3B4
:103BEC00A3F08A828B83A322F088828983A3A3A368
:103BFC00A322F08A828B83123C0722E0F50A750B14
:103C0C0000780A22F088828983A3123C1A22E0856C
:103C1C000882850983A3A32274EE12176674FE1220
:103C2C0016F68A0A8B0BECFAEDFB7414121742E0B1
:103C3C00F510A3E0F5117416121742E0FE74181279
:103C4C001742E0F50EA3E0F50F851882851983ACB9
:103C5C0082AD831207218A0C8B0DEA450D604985D4
:103C6C0018828519831234121207F38A828B83E52A
:103C7C00824583602FA3A3123BD3E508450960243A
:103C8C00780E1219797810121979EEF9AC0CAD0D79
:103C9C00AA0AAB0B85088285098312176474041277
:103CAC00170C8006790E800279010230AC74F61282
:103CBC00176674FE1216F6740C121742123BC88566
:103CCC001882851983F07401121742E9F0E4F508A3
:103CDC00F50978081219797508027808121979749F
:103CEC000412174285820885830978081219791203
:103CFC000847740612170C740212170C806874F7BC
:103D0C00121766EAFEEBFF89087C197D0312085F27
:103D1C00EA5402600BA908EEFAEFFB1207158002B9
:103D2C00790102272674F612176674FF6A70037401
:103D3C00FF6B70168C828D83123D77E4F08C828D34
:103D4C0083A3A3A3123D77A3801812082F8A088B94
:103D5C0009A808A909E849600D8882898374FF12B3
:103D6C002828A3A3E4F07F0202183874FFF0A3F014
:103D7C008C828D83A3A32274F612176612082F8AE5
:103D8C00828B83E58245836006A3A3E0FA80027AE6
:103D9C00007B0080D174F21217668A088B09ECFE46
:103DAC00EDFF740E121742E0F50A12082F8A0C8BE5
:103DBC000DA80CA90DE8497026EEFCEFFD7AFF7BEF
:103DCC00FF12082F8A0C8B0DA80CA90DE849700462
:103DDC007911801688828983E508F0A3E509F088BB
:103DEC00828983A3A3E50AF079007F060218387450
:103DFC00EE121766EAFEEBFF8C088D09890C741421
:103E0C00121742123EC57416121742123412750D57
:103E1C0000E8496003023EB97402650C6003023E7F
:103E2C00B47412121742123ECFFCA3E0F9EC24003A
:103E3C00F50EE439F50FEAF4F8EBF4F9EC58F8E583
:103E4C000F59F9E849705CE5082406F8ED3400F9DF
:103E5C00880A890B8882F583123EDA12085F8A1071
:103E6C008B11E50E65107004E50F65116042780E3C
:103E7C00121979850A82850B83123EDA1208657451
:103E8C000212170CE9F50D7027780E1219798508B6
:103E9C0082850983A3A3123ED812087D74021217DF
:103EAC000C800D750D808008750D0D8003750D0B44
:103EBC00A90D0235718E828F83123EC922E0F8A3C0
:103ECC00E0F922123EC988828983E022A3A3E0FC98
:103EDC00A3E0FDEEFAEFFB2274E812176674E7120A
:103EEC0016F6851882851983EAF0A3EBF08C168DF3
:103EFC0017890E7508007509007431121742E0F528
:103F0C0012A3E0F5137433121742E0F514A3E0F595
:103F1C00157435121742E0F50FE50975F003A4F896
:103F2C00A9F085188285198312404EE0F47003A322
:103F3C00E0F47003024031EE2402F50CEF12404421
:103F4C00E0700302403185160A85170B780A1219A6
:103F5C0079AC14AD15AA12AB131207E77402121741
:103F6C000C8A0A8B0BEA450B7003024031E4F51006
:103F7C00F511781012197974061217428582108582
:103F8C0083117810121979740912174285821085E1
:103F9C0083117810121979851282851383A3A3A338
:103FAC00A31219907914AC0AAD0B8E828F83123444
:103FBC0012120841740812170CE97069850A82857F
:103FCC000B83A3A3A3A3123EC5740212174212368D
:103FDC0080850C82850D83E0A2E05018A90E740236
:103FEC00121742AC82AD838E828F83123412120769
:103FFC0039E94208850C82850D83E0A2E15026E563
:10400C000FF50A780A12197DA90E7403121742AC27
:10401C0082AD838E828F8312341212073374011295
:10402C00170CE942080509E509C394025003023F45
:10403C0025A9087419023BAB3400F50D850C82F5EB
:10404C008322E028FEA3E039FF8E828F832274F254
:10405C00121766EAFEEBFF890B7401650B600E7498
:10406C0002650B706A7901120A3FE97062EEFAEF91
:10407C00FB1208298A088B09EA45096047750A0072
:10408C00800B7C177D007900120FBB050A9002E6AD
:10409C00E0F8E50AC3985021E50A75F017A4F8A9D1
:1040AC00F0850882850983A3A3E028FAA3E039FBF5
:1040BC008A828B8312297A70C98508828509837458
:1040CC00FFF0A3F07C197D03EEFAEFFB1208590206
:1040DC003DF674F21217668A088B09ECFEEDFF743C
:1040EC000E12174212375B900B82E0F4603D7A0996
:1040FC007B00120FCDEA4B60328A828B8374B1F055
:10410C00A3E4123BEDA3123BEBA3E508F0A3E509F6
:10411C0012413AEEF0A3EF12413AA3A3E50AF0A341
:10412C00E50BF0900B82E0F9120FD9023DF6F08A04
:10413C00828B83A3A3A3A3A322C082C0839061908C
:10414C007404F0A37448F0A37402F090618074407E
:10415C00F09061BC7403F09061877419F090626503
:10416C00741BF0906249E0C3941390619C400A74F4
:10417C0009F090606674018007740DF0906066E43D
:10418C00F090619A7433F0A37455F09061A0743A76
:10419C00F090053FE064017009C2919003A674672A
:1041AC0080059003A67461F09026E2E493906186FA
:1041BC00F09026DCE493F46027E493540FF89061BC
:1041CC0085E0686012E5C654804449F5C6E59E5406
:1041DC007F644970F8E8F053C680E59E547F70FA0E
:1041EC007905120D87024373C082C083E5A8F8538A
:1041FC00A87E906181E4F0A3F0A3F0C2BA539AFEBA
:10420C00C289759B00C2C275E90075910075BF002B
:10421C0075A91175B905906181F0A374C0F0A3E480
:10422C00F0D2BA439A0174805842A8024373C082F8
:10423C00C08374F81216F69003A4E0F8A3E0F9E832
:10424C004970030243689003A4E05440602379084A
:10425C00851882851983AA82AB83120BFB85188281
:10426C00851983AA82AB831208EF9003A4E054BF94
:10427C00F0E054806010790C7A657B05120BFB9092
:10428C0003A4E0547FF0E0A2E0503190619A7433C3
:10429C00F0A37455F09061A0743AF090053FE0647F
:1042AC00017009C2919003A6746780059003A674EF
:1042BC0061F01208F59003A4E054FEF0E0540260A3
:1042CC003190619A743FF0A3745AF09061A0747F9E
:1042DC00F090053FE064017009D2919003A67471CF
:1042EC0080059003A6746AF01208F59003A4E054BC
:1042FC00FDF0E0540460139026E0E493906186F0A6
:10430C001208FB9003A4E054FBF0E05408601390F7
:10431C0026E1E493906186F01208FB9003A4E0542C
:10432C00F7F0E0541060139026E2E493906186F06D
:10433C001208FB9003A4E054EFF0E05420600A1242
:10434C0008FB9003A4E054DFF0A3E05401600D12CD
:10435C000B231209019003A5E054FEF07408121708
:10436C000C024373F0A3F0D083D08202011F74ECD3
:10437C0012176674F41216F6851882851983AC82AE
:10438C00AD8375838275821B74041216099026E026
:10439C0093F46003024506907808E0C3940250033E
:1043AC000244E67404121742AC82AD8375838175A6
:1043BC0082C17408121609851882851983858212A8
:1043CC008583137404121742AC82AD83750EFF758E
:1043DC000FFF7FFF7E00750C48750D7880157408F3
:1043EC006E700302447A74096E700302447A740A84
:1043FC006E607B850C82850D8378081215AE8C82DD
:10440C008D83A909E50AC9F8881074187808121464
:10441C00DCE5104508F8C3E098A3E099850C82858B
:10442C000D8378081215AE40188C828D8374187821
:10443C00081214DCE5104508F8E0C398F8A3E080F6
:10444C001C741878081214DCE5104508FAE9FB8C8A
:10445C00828D83E0F8A3E0F9EAC398F8EB99F9C3ED
:10446C00E8950EE9950F5006880E890FEEFF0EE5C4
:10447C000C2404F50CE50D3400F50DEEC39413502B
:10448C00030243EA74FF650E700474FF650F60232A
:10449C008F08740278081216E374482508F58274A4
:1044AC00783509F58378081215AE85128285138349
:1044BC00E508F0EC2402FCED3400FD851282851336
:1044CC0083A3858212858313740C121742E5826CC8
:1044DC007003E5836D60030243D87508017509000C
:1044EC0078081219797402121742AC82AD837AB82B
:1044FC007B091211AD740212170C740C12170C7F7D
:10450C000C021838C082C0839061AE7468F0A3743A
:10451C006AF090624574FBF0A304F053F4FD43FE83
:10452C000290053F7401F09061A0E0643A90619AAA
:10453C0070237433F0A37455F09061A0743AF07446
:10454C000164017009C2919003A6746780289003DE
:10455C00A674618021743FF0A3745AF09061A0742A
:10456C007FF0740164017009D2919003A67471807C
:10457C00059003A6746A0243727F08021838C08241
:10458C00C0839004F1E06401700A9004F6E06004CA
:10459C00790C80027900024373C082C08375E1F10B
:1045AC009004F4E0605B14600914605F14605714AD
:1045BC00705E120B359004EAE0F97AEB7B04120D75
:1045CC00097AD67BBE7C897D8E120D3F7A557B5540
:1045DC007C557D00120D159004F5E0F9120D217932
:1045EC0001120D7B9004E8E0F8A3E0C82416F582D4
:1045FC00E83400F583744DF0A3740BF0790002439A
:10460C0073120B3B80AF120B4180AA120B4780A593
:10461C00791280EA74F012176675D90D9004D5E002
:10462C00A2E0E4331313F89004EAE0C4333354C02B
:10463C00484401F5D978E8790488828983A3A3A337
:10464C00E0F5D988828983A3A882A983E864EE70F7
:10465C0003E9640470E378D5790488828983A3E044
:10466C00F5D988828983A3A882A983E864DB7003C7
:10467C00E9640470E575E1959004D5E0F97AD67B90
:10468C0004120D0F900BA474E7F0A3740AF0A3743A
:10469C0043F0A3740CF0A37443F0A3740CF0A37454
:1046AC0043F0A3740CF0A374EDF0A3740AF0A3749C
:1046BC0043F0A3740CF0A37405F0A3740BF0900BEF
:1046CC00B27443F0A3740CF0A37443F0A3740CF015
:1046DC00A37443F0A3740CF0A37443F0A3740CF014
:1046EC00A37443F0A3740CF0A37443F0A3740CF004
:1046FC009004F4E064019004E87012E0F8A3E0F593
:10470C00838882A3A37508007509088010E0F8A3BC
:10471C00E0F5838882A3A3750804750900750A0067
:10472C00750B007808121527750CFF750DFF750EAB
:10473C00FF750F007808790C1215759004E8E0F8F5
:10474C00A3E0C8240EF582E83400F583780812152E
:10475C00BD9004E8E0F8A3E0C82414F582E8340026
:10476C00F5837413F09003A27402F002458574F77C
:10477C001217669004FAE02407F5D99004EAE0C415
:10478C00333354C0F5D978E8790488828983A3A39C
:10479C00A3E0F5D988828983A3A882A983E864EE73
:1047AC007003E9640470E39004FAE0601F78E87920
:1047BC0004FAE82413F582E93400F583E0F5D9888E
:1047CC00828983A3A882A9831AEA70E690051AE06D
:1047DC002407F5D99004EAE0C4333354C04404F5FB
:1047EC00D978E8790488828983A3A3A3E0F5D988D2
:1047FC00828983A3A882A983E864EE7003E9640428
:10480C0070E390051AE0601F78E87904FAE8243325
:10481C00F582E93400F583E0F5D988828983A3A871
:10482C0082A9831AEA70E675E195900BA474F3F0F3
:10483C00A3740AF0A37443F0A3740CF0A37443F0B4
:10484C00A3740CF0A37443F0A3740CF0A374EDF0F8
:10485C00A3740AF0A37443F0A3740CF0A37405F0D2
:10486C00A3740BF0900BB27443F0A3740CF0A3740C
:10487C0043F0A3740CF0A37443F0A3740CF0A37472
:10488C0043F0A3740CF0A37443F0A3740CF0A37462
:10489C0043F0A3740CF09004E8E0F8A3E0C8240EF5
:1048AC00F582E83400F58374FFF0A3F0A3F0A3F0D5
:1048BC009004E8E0F8A3E0C82414F582E83400F58D
:1048CC00837412F09003A27401F0FF02183874F78D
:1048DC001217669004FAE02407F5D99004EAE0C4B4
:1048EC00333354C04402F5D978E87904888289833B
:1048FC00A3A3A3E0F5D988828983A3A882A983E81E
:10490C0064EE7003E9640470E39004FAE0601F78CD
:10491C00E87904FAE82413F582E93400F583E0F52C
:10492C00D988828983A3A882A9831AEA70E675E1E3
:10493C0095900BA474FFF0A3740AF0A374FFF0A37A
:10494C00740AF0A374FFF0A3740AF0A374FFF0A32D
:10495C00740AF0A374FFF0A3740AF0A374FFF0A31D
:10496C00740AF0A37405F0A3740BF0900BB27443AB
:10497C00F0A3740CF0A37443F0A3740CF0A3744371
:10498C00F0A3740CF0A37443F0A3740CF0A3744361
:10499C00F0A3740CF0A37443F0A3740CF09004E82F
:1049AC00E0F8A3E0C8240EF582E83400F58374FF28
:1049BC00F0A3F0A3F0A3F09004E8E0F8A3E0C8247F
:1049CC0014F582E83400F5837414F09003A2740497
:1049DC00F0024CA174F71217669004FAE02407F564
:1049EC00D99004EAE0C4333354C04406F5D978E8CE
:1049FC00790488828983A3A3A3E0F5D9888289836B
:104A0C00A3A882A983E864EE7003E9640470E390C0
:104A1C0004FAE0601F78E87904FAE82413F582E9D7
:104A2C003400F583E0F5D988828983A3A882A98311
:104A3C001AEA70E690051AE02407F5D99004EAE02A
:104A4C00C4333354C04404F5D978E8790488828996
:104A5C0083A3A3A3E0F5D988828983A3A882A98321
:104A6C00E864EE7003E9640470E390051AE0601FDB
:104A7C0078E87904FAE82433F582E93400F583E028
:104A8C00F5D988828983A3A882A9831AEA70E6756E
:104A9C00E195900BA474F9F0A3740AF0A37443F09D
:104AAC00A3740CF0A37443F0A3740CF0A37443F040
:104ABC00A3740CF0A37443F0A3740CF0A37443F030
:104ACC00A3740CF0A37405F0A3740BF0900BB274E8
:104ADC0043F0A3740CF0A37443F0A3740CF0A37410
:104AEC0043F0A3740CF0A37443F0A3740CF0A37400
:104AFC0043F0A3740CF0A37443F0A3740CF0900473
:104B0C00E8E0F8A3E0C8240EF582E83400F58374DD
:104B1C00FFF0A3F0A3F0A3F09004E8E0F8A3E0C842
:104B2C002414F582E83400F5837415F09003A27414
:104B3C0003F0024CA1C082C0839004E8E0F8A3E02B
:104B4C00C82406F582E83400F583E402437074F758
:104B5C001217669003D0E0F875F003A4C8AAF02AE7
:104B6C00F974D228F8740339F9E82405FAE9340009
:104B7C00FB8A828B83E0FCA3E0FD88828983A3A35C
:104B8C00A3A3A3A3A3A3A3ECF0A3EDF08882898332
:104B9C00A3A3A3A3A3A3A3E024FFF8A3E034FFF9EA
:104BAC008A828B83E8F0A3E9F0024CA174F7121708
:104BBC0066EAFEEBFF9061D0E06003024C9575D97C
:104BCC000E75D90375D904EE248BF582EF3400F5FC
:104BDC0083E5822408F8E5833400F9E0F5D9A3E8ED
:104BEC0065827003E9658370F2EE2483F582EF34FD
:104BFC0000F583E5822404F8E5833400F9E0F5D967
:104C0C00A3E865827003E9658370F275E195790814
:104C1C00EE248BFAEF3400FB120BEF7904EE2483B5
:104C2C00FAEF3400FB120BEF7C00EEF8EFF9ECFA24
:104C3C00C3E49AFA95E0FBEE2AFAEF3BFBEA248AEE
:104C4C00F582EB3400F583E0C0E0E824AAF582E9B4
:104C5C003400F583D0E0F00C88828983A3A882A964
:104C6C0083ECC3940840C7EE246FF582EF3400F553
:104C7C0083E0F8A3E0F9EE2471F582EF3400F583BC
:104C8C00E8F0A3E9F07901800279008008F0EEA247
:104C9C00E092AF79007F01021838C082C08375D9C9
:104CAC000275D90375D90575E195EA246FF582EB88
:104CBC003400F583E0F8A3E0F9EA2471F582EB34D3
:104CCC0000F583E8F0A3E9F0790102437374F6125E
:104CDC001766EAFEEBFF9005457406F075084575FE
:104CEC00090578081219797C017903120C377402C2
:104CFC0012170C75D90675D903758245758305E0B5
:104D0C00F5D9A3E582644A7004E583640570F075F7
:104D1C00E1959003A2E06408701EEE246FF582EF1B
:104D2C003400F583E0F8A3E0F9EE2471F582EF345A
:104D3C0000F583E8F0A3E9F07901024FA774F612AD
:104D4C001766EAFEEBFF9061D0E070667801900583
:104D5C0045740BF09003A2E0640770197508457553
:104D6C00090578081219797C017903120C37740241
:104D7C0012170C7805740128F5D975D9037582457D
:104D8C00758305E8FAE0F5D9A31AEA70F875E19590
:104D9C00EE246FF582EF3400F583E0F8A3E0F9EE32
:104DAC002471F582EF3400F583E8F0A3E9F0790182
:104DBC0080027900024FA774F7121766EAFEEBFF28
:104DCC0075D90375D90375D90DEE24DDF582EF3451
:104DDC0000F583E0F5D975E1957904120D45EE24C3
:104DEC006FF582EF3400F583E0F8A3E0F9EE24715F
:104DFC00F582EF3400F583E8F0A3E9F07901024C79
:104E0C00A174F6121766EAFEEBFF9061D0E0F8741D
:104E1C0080C398FAEE2482F582EF3400F583E060CB
:104E2C0004780480027800E8240BF8EAC398500355
:104E3C00024ED27D09900545EDF0EE24E2F8EF34F8
:104E4C0000F97A467B057C0888828983E08A828B0C
:104E5C0083F088828983A3A882A9838A828B83A307
:104E6C00AA82AB831CEC70E0EE2482F582EF340056
:104E7C00F583E0601D7508457509057808121979E8
:104E8C007C097903EEFAEFFB120C37740212170C43
:104E9C007D0D74012DF5D975D90375824575830582
:104EAC008D08E0F5D9A31508E50870F675E195793C
:104EBC0004120D45EE241DF582EF3400F583E4F069
:104ECC00A3F0790180027900024FA774F6121766DD
:104EDC00EAFEEBFF9061D0E0F87480C398FAEE2400
:104EEC0082F582EF3400F583E06004780480027868
:104EFC0000E82408F8EAC3985003024FA5780690FE
:104F0C000545740CF09003BFE0900546F09003C08B
:104F1C00E0900547F09003C1E0900548F09003C283
:104F2C00E0900549F09003C3E090054AF0EE24822E
:104F3C00F582EF3400F583E0601B750845750905B3
:104F4C0078081219797C067903EEFA120C37740280
:104F5C0012170C780A740128F5D975D90375824596
:104F6C007583058808E0F5D9A31508E50870F67572
:104F7C00E1957904120D45EE246FF582EF3400F5BE
:104F8C0083E0F8A3E0F9EE2471F582EF3400F583A9
:104F9C00E8F0A3E9F07901800279007F0202183869
:104FAC0074F6121766EAFEEBFF9061D0E0F874809D
:104FBC00C398FAEE2482F582EF3400F583E06004A6
:104FCC00780480027800E82404F8EAC398500302BD
:104FDC0050867802900545E8F0EE24F4F582EF3423
:104FEC0000F583E0900546F0EE2482F582EF340064
:104FFC00F583E0601B750845750905780812197969
:10500C007C027903EEFA120C37740212170C780634
:10501C00740128F5D975D9037582457583058808FF
:10502C00E0F5D9A31508E50870F675E195EE247343
:10503C00F582EF3400F583E4F0EE247FF582EF3453
:10504C0000F583E4F0EE241DF582EF3400F583E4E3
:10505C00F0A3F07904120D45EE240DF582EF340027
:10506C00F583E0F8A3E0F9EE2471F582EF3400F556
:10507C0083E8F0A3E9F0790180027900024FA7746C
:10508C00F61217669061D0E0F87480C398FCEA249D
:10509C0082F582EB3400F583E060047804800278BA
:1050AC0000E82404F8ECC398405B79029005457441
:1050BC0007F0EA24F5F582EB3400F583E090054621
:1050CC00F0EA2482F582EB3400F583E06018750871
:1050DC004575090578081219797C0209120C377488
:1050EC000212170C7906740129F5D975D90375824A
:1050FC0045758305E9F8E0F5D9A318E870F875E172
:10510C0095790180027900024FA774F5121766E9B0
:10511C00FCA2AFE433F50AC2AF7D0080010DEA2496
:10512C006EF582EB3400F583E0F8EDC398501A8DE0
:10513C0008EA2508F8EB3400F9E8246AF582E9342A
:10514C0000F583E06C70D68024EA246EF8EB340012
:10515C00F9E0FEEA2EFAEB3400FBEA246AF582EB66
:10516C003400F583ECF088828983E004F0E50AA230
:10517C00E092AF7F0302183874F6121766A2AFE400
:10518C0033FDC2AFEA246EF582EB3400F583E014F4
:10519C00F07C0060368C08EA2508F8EB3400F9E85E
:1051AC00246BF582E93400F583E0C0E0E8246AF56D
:1051BC0082E93400F583D0E0F00CEA246EF582EB42
:1051CC003400F583E0F8ECC39840CAEA246DF5820C
:1051DC00EB3400F58374FFF0EA2469F582EB3400BC
:1051EC00F583E4F0EDA2E092AF024FA7C082C0833A
:1051FC00E5A8F8C2AFEA246AF582EB3400F583E93E
:10520C00F0EA2469F582EB3400F583E4F0E8A2E7D8
:10521C00A2E792AF02437374F3121766EAFEEBFF38
:10522C00ECFAEDFB8A828B83A3A3A3A3E0541FF0BB
:10523C00EE2436F582EF3400F583E4F0F50AEEFC4B
:10524C00EFFD8A828B83E0C0E0EC245DF582ED34C7
:10525C0000F583D0E0F0750B00E50A33333354F8D6
:10526C00F50C8A828B83E0F508750900E50B78084C
:10527C001216C4E508A2E0502FEE2436F8EF3400E5
:10528C00F988828983E0F508EE2508F508EF3400EB
:10529C00F509E5082438F582E5093400F583E50CB9
:1052AC00F088828983E004F0050B050CE50BC394B0
:1052BC000840AF050A8A828B83A3AA82AB838C82B7
:1052CC008D83A3AC82AD83E50AC3940550030252CF
:1052DC004E7F0502183874F71217669003CEE064FF
:1052EC000170030254407A009003D4E0600302542E
:1052FC00407401F0A3E4F0A3F090043404F09004A3
:10530C0039F09003D7E4F0A3F0A3F0A3F09003E1FD
:10531C0004F0900407E4F09003EAF0A3F0A3F0A3E8
:10532C00F0A3F0A3F0A3F0900451F0900445F0909A
:10533C00043A7480F0A3E4F0900440F09004BCF0C4
:10534C00A3F0A3F0A3F0A3F0A3F0A3F0A3F09004B8
:10535C00C5F0900454F09004A4F0A3F0A3F0A3F0D3
:10536C00A3F0A3F0A3F0A3F0A3F0A3F09004B0F08B
:10537C009004B2F09004AEF09004C8F0A3F0A3F047
:10538C00A3F0A3F0A3F0A3F0A3F078CE7903E82464
:10539C006EF582E93400F58374FFF00A8882898304
:1053AC00A3A882A983EAC3940440E37ACE7B037852
:1053BC00DC790488828983E0C0E0EA2461F582EB21
:1053CC003400F583D0E0F088828983A3A882A98376
:1053DC008A828B83A3AA82AB83E864E17003E964BD
:1053EC000470D07ACE7B0378B5790388828983A345
:1053FC00E0C0E0EA24E6F582EB3400F583D0E0F07F
:10540C0088828983A3A882A9838A828B83A3AA8298
:10541C00AB83E864BD7003E9640370CF9003CEE006
:10542C0004F0640170089003D6E09003D0F07AD2B7
:10543C007B0380047A007B00024CA1C082C0839065
:10544C0003D5E4F09003D4F09003CEF0A3F0A37452
:10545C00FFF075E1F1024373C082C08378007900DC
:10546C009003D5E0600478D2790388828983A3A362
:10547C00A3A3E0F902437374F6121766EAFEEBFF7E
:10548C00EE2463F582EF3400F583E0F8A3E0F9E84D
:10549C00497003025528EE2463F8EF3400F97A00C2
:1054AC007B00A2AFE433F508C2AF88828983E0FCAD
:1054BC00A3E0FDEC4D603A88828983E0FAA3E0FB1F
:1054CC008A828B83E0FCA3E0FD88828983ECF0A3C5
:1054DC00EDF08A828B83E4F0A3F088828983E0FC70
:1054EC00A3E0FDEC4D700A88828983A3A3E4F0A3AA
:1054FC00F0E508A2E092AF1212559004E2E004F03D
:10550C009004E3E004F0EE2463F582EF3400F583BD
:10551C00E0F8A3E0F9E84960030254A28E828F837D
:10552C00A3A3A3E0600F8E828F83A3A3A3E4F090C8
:10553C0003CFE014F09003CEE014F070069003D08B
:10554C0074FFF08E828F83A3A3E4F09004E1E070EB
:10555C000D9003CFE0640170057900120D27EEFA6F
:10556C00EFFB120C67024FA774F7121766EAFEEBFB
:10557C00FF8E828F83A3A3A3A3E0FA7B00120943BF
:10558C00EEFAEFFB120BB9120C4F024CA1C082C009
:10559C008378B5790388828983A3E4F08882898330
:1055AC00A3A882A983E864BD7003E9640370E69044
:1055BC0003B6740102437274F6121766EAFEEBFF2F
:1055CC00EC2403F8ED3400F988088909EC2407F879
:1055DC00ED3400F9E8FCE9FD8C828D83E0F8A3E062
:1055EC00F9850882850983E0FAA3E0FB12166BEEBD
:1055FC00240DF582EF3400F583E8F0A3E9F08C82FA
:10560C008D83E0F8A3E0F9850882850983E0FAA38D
:10561C00E0FB12166B8B09EA45096013EE240DF5BD
:10562C0082EF3400F583E02401F0A3E03400F002B3
:10563C004FA774F6121766EAFEEBFFEE242EF582E6
:10564C00EF3400F583E0FCA3E0FD780079FAECFA86
:10565C00EDFB12166BEE246FF582EF3400F583E848
:10566C00F0A3E9F0780079FAECFAEDFB12166B8BEB
:10567C0009EA45096013EE246FF582EF3400F583D7
:10568C00E02401F0A3E03400F0024FA774EC1217F1
:10569C0066EAFEEBFF741412174278081215AE126C
:1056AC000CEB8A0C8B0D8C0E8D0F75100275110086
:1056BC00751200751300780C79101215147510FF03
:1056CC007511FF7512FF780C7910121575780C1284
:1056DC0019758E828F83E0F8A3E0F5838882A3A3EB
:1056EC001215CC122385740412170CE960030257AF
:1056FC00FC8E828F83E02402F8A3E03400F9E8FAF0
:10570C00E9FB8A828B83780812153A8A828B83751F
:10571C0008FF7509FF750AFF750B00780812159BB9
:10572C00EE240BF582EF3400F583C082C0838E82A9
:10573C008F83A3A3A3A3A3E02401F8A3E03400F96F
:10574C00D083D082E0687003A3E069700579010210
:10575C0057FE8E828F83A3A3A3A3A3A3A3E024014C
:10576C00F0A3E03400F0EE2473F582EF3400F583FF
:10577C00E064017036EE2474F582EF3400F583E0BA
:10578C00F8A3E0F98E828F83A3A3A3A3A3A3A3E022
:10579C00687003A3E0697013EE2474F582EF340093
:1057AC00F583E02401F0A3E03400F0EE247FF582D1
:1057BC00EF3400F583E064017036EE2480F582EF5F
:1057CC003400F583E0F8A3E0F98E828F83A3A3A3C2
:1057DC00A3A3A3A3E0687003A3E0697013EE248075
:1057EC00F582EF3400F583E02401F0A3E03400F0FF
:1057FC00790002450B74F6121766E9FEECFFEA24F9
:10580C0062F582EB3400F583E0640160030258AA70
:10581C009061D0E0F508EA2482F582EB3400F58340
:10582C00E060047804800278007480C39508FC95CD
:10583C00E0FDEF28F8E43400F9E82402F8E934003C
:10584C00F9EC98ED99A2D265D033404E740A121738
:10585C0042E0F508A3E0F509EA2482F582EB340076
:10586C00F583E060157808121979EFFCEEF9120C4B
:10587C0037740212170C74042FFF74012FF5D98E94
:10588C00D9EF600F850882850983F8E0F5D9A31854
:10589C00E870F875E195790080067907800279FF48
:1058AC00024FA774F7121766A2AFE433FEC2AF8A99
:1058BC00828B83E0F8A3E0F9E8498A828B83600A43
:1058CC00A3A3E0F8A3E0F5838882ECF0A3EDF08AC3
:1058DC00828B83A3A3ECF0A3EDF08C828D83E4F098
:1058EC00A3024C9974F7121766E96021F88C828D2B
:1058FC0083E08A828B83F08C828D83A3AC82AD8310
:10590C008A828B83A3AA82AB8318E870E0ECFAED51
:10591C00FB024CA174F4121766907803E064427099
:10592C0055900544E014F0704DC2AF12593A00780E
:10593C002AD0E0F618D0E0F6E59F540770057509FB
:10594C00FF800375097FC4C0E07829E6F50808E6F6
:10595C005509F509740B78081216D4D0E02508F80F
:10596C00906270E0A2E740F8E8C333906272F09066
:10597C006270E0D2E0F09003D0E0F47003025D1AA4
:10598C00E0F875F003A4C8AAF02AF974D228FE74C2
:10599C000339FFEE2401F582EF3401F583E0F8A31F
:1059AC00E0F9E849601EEE2401F582EF3401F5833D
:1059BC00E0FAA3E0FBEE2400F582EF3401F583E07E
:1059CC00F9120FFD8E828F83A3A3A3A3A3A3A3E03D
:1059DC00F8A3E0F98E828F83A3A3A3A3A3E8F0A37B
:1059EC00E9F0906054E09003A9F0906055E09003CA
:1059FC00AAF0906056E09003ABF0906057E09003F3
:105A0C00ACF0906058E09003ADF0906059E09003DA
:105A1C00AEF090605AE09003AFF090605BE09003C2
:105A2C00B0F090605CE0FC9003B1F090605DE0FB46
:105A3C009003B2F090605EE0FD9003B3F090605F75
:105A4C00E0FA9003B4F09003AFE08C082508F8E47A
:105A5C003400F98D08E82508F8E93400F98B08E8DA
:105A6C002508F8E93400F98A08E82508FAE9340031
:105A7C00FBEE24F6F582EF3400F583E02AF0A3E088
:105A8C003BF08C08EE24F8F582EF3400F583E0252A
:105A9C0008F0A3E03400F0EE24FAF582EF3400F5C0
:105AAC0083E02401F0A3E03400F0EE24FEF582EF55
:105ABC003400F583E0F8A3E0F9E849604290600017
:105ACC00E0C333FCE433FDE82CF582E93DF583E0DB
:105ADC002AF0A3E03BF0906000E0FA9003B1E0FC08
:105AEC00EAC333FAE433FBE82AF8E93BF9E8244A41
:105AFC00F582E93400F583E02CF0A3E03400F0905B
:105B0C0003AFE070119003B2E0700BA3E07007A339
:105B1C00E07003025C178E828F83A3A3A3A3A3E080
